{
  "abi": [
    {
      "inputs": [],
      "stateMutability": "nonpayable",
      "type": "constructor"
    },
    {
      "anonymous": false,
      "inputs": [
        {
          "indexed": true,
          "internalType": "address",
          "name": "tourist",
          "type": "address"
        }
      ],
      "name": "TouristExpired",
      "type": "event"
    },
    {
      "anonymous": false,
      "inputs": [
        {
          "indexed": true,
          "internalType": "address",
          "name": "tourist",
          "type": "address"
        },
        {
          "indexed": false,
          "internalType": "string",
          "name": "name",
          "type": "string"
        },
        {
          "indexed": false,
          "internalType": "uint256",
          "name": "validUntil",
          "type": "uint256"
        }
      ],
      "name": "TouristRegistered",
      "type": "event"
    },
    {
      "anonymous": false,
      "inputs": [
        {
          "indexed": true,
          "internalType": "address",
          "name": "tourist",
          "type": "address"
        },
        {
          "indexed": false,
          "internalType": "string",
          "name": "itinerary",
          "type": "string"
        },
        {
          "indexed": false,
          "internalType": "string",
          "name": "emergencyContact",
          "type": "string"
        }
      ],
      "name": "TouristUpdated",
      "type": "event"
    },
    {
      "inputs": [],
      "name": "admin",
      "outputs": [
        {
          "internalType": "address",
          "name": "",
          "type": "address"
        }
      ],
      "stateMutability": "view",
      "type": "function"
    },
    {
      "inputs": [
        {
          "internalType": "address",
          "name": "_tourist",
          "type": "address"
        }
      ],
      "name": "expireTourist",
      "outputs": [],
      "stateMutability": "nonpayable",
      "type": "function"
    },
    {
      "inputs": [
        {
          "internalType": "address",
          "name": "_tourist",
          "type": "address"
        }
      ],
      "name": "getTourist",
      "outputs": [
        {
          "components": [
            {
              "internalType": "string",
              "name": "name",
              "type": "string"
            },
            {
              "internalType": "string",
              "name": "passportOrAadhaar",
              "type": "string"
            },
            {
              "internalType": "string",
              "name": "itinerary",
              "type": "string"
            },
            {
              "internalType": "string",
              "name": "emergencyContact",
              "type": "string"
            },
            {
              "internalType": "uint256",
              "name": "validUntil",
              "type": "uint256"
            },
            {
              "internalType": "bool",
              "name": "exists",
              "type": "bool"
            }
          ],
          "internalType": "struct TouristID.Tourist",
          "name": "",
          "type": "tuple"
        }
      ],
      "stateMutability": "view",
      "type": "function"
    },
    {
      "inputs": [
        {
          "internalType": "address",
          "name": "_tourist",
          "type": "address"
        }
      ],
      "name": "isTouristValid",
      "outputs": [
        {
          "internalType": "bool",
          "name": "",
          "type": "bool"
        }
      ],
      "stateMutability": "view",
      "type": "function"
    },
    {
      "inputs": [
        {
          "internalType": "address",
          "name": "_tourist",
          "type": "address"
        },
        {
          "internalType": "string",
          "name": "_name",
          "type": "string"
        },
        {
          "internalType": "string",
          "name": "_passportOrAadhaar",
          "type": "string"
        },
        {
          "internalType": "string",
          "name": "_itinerary",
          "type": "string"
        },
        {
          "internalType": "string",
          "name": "_emergencyContact",
          "type": "string"
        },
        {
          "internalType": "uint256",
          "name": "_validUntil",
          "type": "uint256"
        }
      ],
      "name": "registerTourist",
      "outputs": [],
      "stateMutability": "nonpayable",
      "type": "function"
    },
    {
      "inputs": [
        {
          "internalType": "address",
          "name": "_tourist",
          "type": "address"
        },
        {
          "internalType": "string",
          "name": "_itinerary",
          "type": "string"
        },
        {
          "internalType": "string",
          "name": "_emergencyContact",
          "type": "string"
        }
      ],
      "name": "updateTourist",
      "outputs": [],
      "stateMutability": "nonpayable",
      "type": "function"
    }
  ],
  "devdoc": {
    "kind": "dev",
    "methods": {},
    "title": "Tourist Digital ID Contract",
    "version": 1
  },
  "evm": {
    "assembly": "    /* \"TouristID.sol\":168:3247  contract TouristID {... */\n  mstore(0x40, 0x80)\n    /* \"TouristID.sol\":1159:1210  constructor() {... */\n  callvalue\n  dup1\n  iszero\n  tag_1\n  jumpi\n  0x00\n  dup1\n  revert\ntag_1:\n  pop\n    /* \"TouristID.sol\":1192:1202  msg.sender */\n  caller\n    /* \"TouristID.sol\":1184:1189  admin */\n  0x01\n  0x00\n    /* \"TouristID.sol\":1184:1202  admin = msg.sender */\n  0x0100\n  exp\n  dup2\n  sload\n  dup2\n  0xffffffffffffffffffffffffffffffffffffffff\n  mul\n  not\n  and\n  swap1\n  dup4\n  0xffffffffffffffffffffffffffffffffffffffff\n  and\n  mul\n  or\n  swap1\n  sstore\n  pop\n    /* \"TouristID.sol\":168:3247  contract TouristID {... */\n  dataSize(sub_0)\n  dup1\n  dataOffset(sub_0)\n  0x00\n  codecopy\n  0x00\n  return\nstop\n\nsub_0: assembly {\n        /* \"TouristID.sol\":168:3247  contract TouristID {... */\n      mstore(0x40, 0x80)\n      callvalue\n      dup1\n      iszero\n      tag_1\n      jumpi\n      0x00\n      dup1\n      revert\n    tag_1:\n      pop\n      jumpi(tag_2, lt(calldatasize, 0x04))\n      shr(0xe0, calldataload(0x00))\n      dup1\n      0x1db925b0\n      eq\n      tag_3\n      jumpi\n      dup1\n      0xbf33cd4a\n      eq\n      tag_4\n      jumpi\n      dup1\n      0xc979715d\n      eq\n      tag_5\n      jumpi\n      dup1\n      0xd3c50c8c\n      eq\n      tag_6\n      jumpi\n      dup1\n      0xda836fa5\n      eq\n      tag_7\n      jumpi\n      dup1\n      0xf851a440\n      eq\n      tag_8\n      jumpi\n    tag_2:\n      0x00\n      dup1\n      revert\n        /* \"TouristID.sol\":2123:2499  function updateTourist(... */\n    tag_3:\n      tag_9\n      0x04\n      dup1\n      calldatasize\n      sub\n      dup2\n      add\n      swap1\n      tag_10\n      swap2\n      swap1\n      tag_11\n      jump\t// in\n    tag_10:\n      tag_12\n      jump\t// in\n    tag_9:\n      stop\n        /* \"TouristID.sol\":2549:2735  function getTourist(address _tourist)... */\n    tag_4:\n      tag_13\n      0x04\n      dup1\n      calldatasize\n      sub\n      dup2\n      add\n      swap1\n      tag_14\n      swap2\n      swap1\n      tag_15\n      jump\t// in\n    tag_14:\n      tag_16\n      jump\t// in\n    tag_13:\n      mload(0x40)\n      tag_17\n      swap2\n      swap1\n      tag_18\n      jump\t// in\n    tag_17:\n      mload(0x40)\n      dup1\n      swap2\n      sub\n      swap1\n      return\n        /* \"TouristID.sol\":3054:3244  function expireTourist(address _tourist) external onlyAdmin touristExists(_tourist) {... */\n    tag_5:\n      tag_19\n      0x04\n      dup1\n      calldatasize\n      sub\n      dup2\n      add\n      swap1\n      tag_20\n      swap2\n      swap1\n      tag_15\n      jump\t// in\n    tag_20:\n      tag_21\n      jump\t// in\n    tag_19:\n      stop\n        /* \"TouristID.sol\":1281:2052  function registerTourist(... */\n    tag_6:\n      tag_22\n      0x04\n      dup1\n      calldatasize\n      sub\n      dup2\n      add\n      swap1\n      tag_23\n      swap2\n      swap1\n      tag_24\n      jump\t// in\n    tag_23:\n      tag_25\n      jump\t// in\n    tag_22:\n      stop\n        /* \"TouristID.sol\":2791:3000  function isTouristValid(address _tourist)... */\n    tag_7:\n      tag_26\n      0x04\n      dup1\n      calldatasize\n      sub\n      dup2\n      add\n      swap1\n      tag_27\n      swap2\n      swap1\n      tag_15\n      jump\t// in\n    tag_27:\n      tag_28\n      jump\t// in\n    tag_26:\n      mload(0x40)\n      tag_29\n      swap2\n      swap1\n      tag_30\n      jump\t// in\n    tag_29:\n      mload(0x40)\n      dup1\n      swap2\n      sub\n      swap1\n      return\n        /* \"TouristID.sol\":465:485  address public admin */\n    tag_8:\n      tag_31\n      tag_32\n      jump\t// in\n    tag_31:\n      mload(0x40)\n      tag_33\n      swap2\n      swap1\n      tag_34\n      jump\t// in\n    tag_33:\n      mload(0x40)\n      dup1\n      swap2\n      sub\n      swap1\n      return\n        /* \"TouristID.sol\":2123:2499  function updateTourist(... */\n    tag_12:\n        /* \"TouristID.sol\":952:957  admin */\n      0x01\n      0x00\n      swap1\n      sload\n      swap1\n      0x0100\n      exp\n      swap1\n      div\n      0xffffffffffffffffffffffffffffffffffffffff\n      and\n        /* \"TouristID.sol\":938:957  msg.sender == admin */\n      0xffffffffffffffffffffffffffffffffffffffff\n      and\n        /* \"TouristID.sol\":938:948  msg.sender */\n      caller\n        /* \"TouristID.sol\":938:957  msg.sender == admin */\n      0xffffffffffffffffffffffffffffffffffffffff\n      and\n      eq\n        /* \"TouristID.sol\":930:996  require(msg.sender == admin, \"Only admin can perform this action\") */\n      tag_36\n      jumpi\n      mload(0x40)\n      0x08c379a000000000000000000000000000000000000000000000000000000000\n      dup2\n      mstore\n      0x04\n      add\n      tag_37\n      swap1\n      tag_38\n      jump\t// in\n    tag_37:\n      mload(0x40)\n      dup1\n      swap2\n      sub\n      swap1\n      revert\n    tag_36:\n        /* \"TouristID.sol\":2290:2298  _tourist */\n      dup3\n        /* \"TouristID.sol\":1084:1092  tourists */\n      0x00\n        /* \"TouristID.sol\":1084:1102  tourists[_tourist] */\n      dup1\n        /* \"TouristID.sol\":1093:1101  _tourist */\n      dup3\n        /* \"TouristID.sol\":1084:1102  tourists[_tourist] */\n      0xffffffffffffffffffffffffffffffffffffffff\n      and\n      0xffffffffffffffffffffffffffffffffffffffff\n      and\n      dup2\n      mstore\n      0x20\n      add\n      swap1\n      dup2\n      mstore\n      0x20\n      add\n      0x00\n      keccak256\n        /* \"TouristID.sol\":1084:1109  tourists[_tourist].exists */\n      0x05\n      add\n      0x00\n      swap1\n      sload\n      swap1\n      0x0100\n      exp\n      swap1\n      div\n      0xff\n      and\n        /* \"TouristID.sol\":1076:1131  require(tourists[_tourist].exists, \"Tourist not found\") */\n      tag_40\n      jumpi\n      mload(0x40)\n      0x08c379a000000000000000000000000000000000000000000000000000000000\n      dup2\n      mstore\n      0x04\n      add\n      tag_41\n      swap1\n      tag_42\n      jump\t// in\n    tag_41:\n      mload(0x40)\n      dup1\n      swap2\n      sub\n      swap1\n      revert\n    tag_40:\n        /* \"TouristID.sol\":2342:2352  _itinerary */\n      dup3\n        /* \"TouristID.sol\":2311:2319  tourists */\n      0x00\n        /* \"TouristID.sol\":2311:2329  tourists[_tourist] */\n      dup1\n        /* \"TouristID.sol\":2320:2328  _tourist */\n      dup7\n        /* \"TouristID.sol\":2311:2329  tourists[_tourist] */\n      0xffffffffffffffffffffffffffffffffffffffff\n      and\n      0xffffffffffffffffffffffffffffffffffffffff\n      and\n      dup2\n      mstore\n      0x20\n      add\n      swap1\n      dup2\n      mstore\n      0x20\n      add\n      0x00\n      keccak256\n        /* \"TouristID.sol\":2311:2339  tourists[_tourist].itinerary */\n      0x02\n      add\n        /* \"TouristID.sol\":2311:2352  tourists[_tourist].itinerary = _itinerary */\n      swap1\n      dup2\n      tag_44\n      swap2\n      swap1\n      tag_45\n      jump\t// in\n    tag_44:\n      pop\n        /* \"TouristID.sol\":2401:2418  _emergencyContact */\n      dup2\n        /* \"TouristID.sol\":2363:2371  tourists */\n      0x00\n        /* \"TouristID.sol\":2363:2381  tourists[_tourist] */\n      dup1\n        /* \"TouristID.sol\":2372:2380  _tourist */\n      dup7\n        /* \"TouristID.sol\":2363:2381  tourists[_tourist] */\n      0xffffffffffffffffffffffffffffffffffffffff\n      and\n      0xffffffffffffffffffffffffffffffffffffffff\n      and\n      dup2\n      mstore\n      0x20\n      add\n      swap1\n      dup2\n      mstore\n      0x20\n      add\n      0x00\n      keccak256\n        /* \"TouristID.sol\":2363:2398  tourists[_tourist].emergencyContact */\n      0x03\n      add\n        /* \"TouristID.sol\":2363:2418  tourists[_tourist].emergencyContact = _emergencyContact */\n      swap1\n      dup2\n      tag_46\n      swap2\n      swap1\n      tag_45\n      jump\t// in\n    tag_46:\n      pop\n        /* \"TouristID.sol\":2451:2459  _tourist */\n      dup4\n        /* \"TouristID.sol\":2436:2491  TouristUpdated(_tourist, _itinerary, _emergencyContact) */\n      0xffffffffffffffffffffffffffffffffffffffff\n      and\n      0xcfd2515814a3cc641c87c8e40ff4681c4ada74a7357a0ccde5a45b1bde0ec107\n        /* \"TouristID.sol\":2461:2471  _itinerary */\n      dup5\n        /* \"TouristID.sol\":2473:2490  _emergencyContact */\n      dup5\n        /* \"TouristID.sol\":2436:2491  TouristUpdated(_tourist, _itinerary, _emergencyContact) */\n      mload(0x40)\n      tag_47\n      swap3\n      swap2\n      swap1\n      tag_48\n      jump\t// in\n    tag_47:\n      mload(0x40)\n      dup1\n      swap2\n      sub\n      swap1\n      log2\n        /* \"TouristID.sol\":1007:1008  _ */\n      pop\n        /* \"TouristID.sol\":2123:2499  function updateTourist(... */\n      pop\n      pop\n      pop\n      jump\t// out\n        /* \"TouristID.sol\":2549:2735  function getTourist(address _tourist)... */\n    tag_16:\n        /* \"TouristID.sol\":2670:2684  Tourist memory */\n      tag_49\n      tag_50\n      jump\t// in\n    tag_49:\n        /* \"TouristID.sol\":2642:2650  _tourist */\n      dup2\n        /* \"TouristID.sol\":1084:1092  tourists */\n      0x00\n        /* \"TouristID.sol\":1084:1102  tourists[_tourist] */\n      dup1\n        /* \"TouristID.sol\":1093:1101  _tourist */\n      dup3\n        /* \"TouristID.sol\":1084:1102  tourists[_tourist] */\n      0xffffffffffffffffffffffffffffffffffffffff\n      and\n      0xffffffffffffffffffffffffffffffffffffffff\n      and\n      dup2\n      mstore\n      0x20\n      add\n      swap1\n      dup2\n      mstore\n      0x20\n      add\n      0x00\n      keccak256\n        /* \"TouristID.sol\":1084:1109  tourists[_tourist].exists */\n      0x05\n      add\n      0x00\n      swap1\n      sload\n      swap1\n      0x0100\n      exp\n      swap1\n      div\n      0xff\n      and\n        /* \"TouristID.sol\":1076:1131  require(tourists[_tourist].exists, \"Tourist not found\") */\n      tag_52\n      jumpi\n      mload(0x40)\n      0x08c379a000000000000000000000000000000000000000000000000000000000\n      dup2\n      mstore\n      0x04\n      add\n      tag_53\n      swap1\n      tag_42\n      jump\t// in\n    tag_53:\n      mload(0x40)\n      dup1\n      swap2\n      sub\n      swap1\n      revert\n    tag_52:\n        /* \"TouristID.sol\":2709:2717  tourists */\n      0x00\n        /* \"TouristID.sol\":2709:2727  tourists[_tourist] */\n      dup1\n        /* \"TouristID.sol\":2718:2726  _tourist */\n      dup5\n        /* \"TouristID.sol\":2709:2727  tourists[_tourist] */\n      0xffffffffffffffffffffffffffffffffffffffff\n      and\n      0xffffffffffffffffffffffffffffffffffffffff\n      and\n      dup2\n      mstore\n      0x20\n      add\n      swap1\n      dup2\n      mstore\n      0x20\n      add\n      0x00\n      keccak256\n        /* \"TouristID.sol\":2702:2727  return tourists[_tourist] */\n      mload(0x40)\n      dup1\n      0xc0\n      add\n      0x40\n      mstore\n      swap1\n      dup2\n      0x00\n      dup3\n      add\n      dup1\n      sload\n      tag_55\n      swap1\n      tag_56\n      jump\t// in\n    tag_55:\n      dup1\n      0x1f\n      add\n      0x20\n      dup1\n      swap2\n      div\n      mul\n      0x20\n      add\n      mload(0x40)\n      swap1\n      dup2\n      add\n      0x40\n      mstore\n      dup1\n      swap3\n      swap2\n      swap1\n      dup2\n      dup2\n      mstore\n      0x20\n      add\n      dup3\n      dup1\n      sload\n      tag_57\n      swap1\n      tag_56\n      jump\t// in\n    tag_57:\n      dup1\n      iszero\n      tag_58\n      jumpi\n      dup1\n      0x1f\n      lt\n      tag_59\n      jumpi\n      0x0100\n      dup1\n      dup4\n      sload\n      div\n      mul\n      dup4\n      mstore\n      swap2\n      0x20\n      add\n      swap2\n      jump(tag_58)\n    tag_59:\n      dup3\n      add\n      swap2\n      swap1\n      0x00\n      mstore\n      keccak256(0x00, 0x20)\n      swap1\n    tag_60:\n      dup2\n      sload\n      dup2\n      mstore\n      swap1\n      0x01\n      add\n      swap1\n      0x20\n      add\n      dup1\n      dup4\n      gt\n      tag_60\n      jumpi\n      dup3\n      swap1\n      sub\n      0x1f\n      and\n      dup3\n      add\n      swap2\n    tag_58:\n      pop\n      pop\n      pop\n      pop\n      pop\n      dup2\n      mstore\n      0x20\n      add\n      0x01\n      dup3\n      add\n      dup1\n      sload\n      tag_61\n      swap1\n      tag_56\n      jump\t// in\n    tag_61:\n      dup1\n      0x1f\n      add\n      0x20\n      dup1\n      swap2\n      div\n      mul\n      0x20\n      add\n      mload(0x40)\n      swap1\n      dup2\n      add\n      0x40\n      mstore\n      dup1\n      swap3\n      swap2\n      swap1\n      dup2\n      dup2\n      mstore\n      0x20\n      add\n      dup3\n      dup1\n      sload\n      tag_62\n      swap1\n      tag_56\n      jump\t// in\n    tag_62:\n      dup1\n      iszero\n      tag_63\n      jumpi\n      dup1\n      0x1f\n      lt\n      tag_64\n      jumpi\n      0x0100\n      dup1\n      dup4\n      sload\n      div\n      mul\n      dup4\n      mstore\n      swap2\n      0x20\n      add\n      swap2\n      jump(tag_63)\n    tag_64:\n      dup3\n      add\n      swap2\n      swap1\n      0x00\n      mstore\n      keccak256(0x00, 0x20)\n      swap1\n    tag_65:\n      dup2\n      sload\n      dup2\n      mstore\n      swap1\n      0x01\n      add\n      swap1\n      0x20\n      add\n      dup1\n      dup4\n      gt\n      tag_65\n      jumpi\n      dup3\n      swap1\n      sub\n      0x1f\n      and\n      dup3\n      add\n      swap2\n    tag_63:\n      pop\n      pop\n      pop\n      pop\n      pop\n      dup2\n      mstore\n      0x20\n      add\n      0x02\n      dup3\n      add\n      dup1\n      sload\n      tag_66\n      swap1\n      tag_56\n      jump\t// in\n    tag_66:\n      dup1\n      0x1f\n      add\n      0x20\n      dup1\n      swap2\n      div\n      mul\n      0x20\n      add\n      mload(0x40)\n      swap1\n      dup2\n      add\n      0x40\n      mstore\n      dup1\n      swap3\n      swap2\n      swap1\n      dup2\n      dup2\n      mstore\n      0x20\n      add\n      dup3\n      dup1\n      sload\n      tag_67\n      swap1\n      tag_56\n      jump\t// in\n    tag_67:\n      dup1\n      iszero\n      tag_68\n      jumpi\n      dup1\n      0x1f\n      lt\n      tag_69\n      jumpi\n      0x0100\n      dup1\n      dup4\n      sload\n      div\n      mul\n      dup4\n      mstore\n      swap2\n      0x20\n      add\n      swap2\n      jump(tag_68)\n    tag_69:\n      dup3\n      add\n      swap2\n      swap1\n      0x00\n      mstore\n      keccak256(0x00, 0x20)\n      swap1\n    tag_70:\n      dup2\n      sload\n      dup2\n      mstore\n      swap1\n      0x01\n      add\n      swap1\n      0x20\n      add\n      dup1\n      dup4\n      gt\n      tag_70\n      jumpi\n      dup3\n      swap1\n      sub\n      0x1f\n      and\n      dup3\n      add\n      swap2\n    tag_68:\n      pop\n      pop\n      pop\n      pop\n      pop\n      dup2\n      mstore\n      0x20\n      add\n      0x03\n      dup3\n      add\n      dup1\n      sload\n      tag_71\n      swap1\n      tag_56\n      jump\t// in\n    tag_71:\n      dup1\n      0x1f\n      add\n      0x20\n      dup1\n      swap2\n      div\n      mul\n      0x20\n      add\n      mload(0x40)\n      swap1\n      dup2\n      add\n      0x40\n      mstore\n      dup1\n      swap3\n      swap2\n      swap1\n      dup2\n      dup2\n      mstore\n      0x20\n      add\n      dup3\n      dup1\n      sload\n      tag_72\n      swap1\n      tag_56\n      jump\t// in\n    tag_72:\n      dup1\n      iszero\n      tag_73\n      jumpi\n      dup1\n      0x1f\n      lt\n      tag_74\n      jumpi\n      0x0100\n      dup1\n      dup4\n      sload\n      div\n      mul\n      dup4\n      mstore\n      swap2\n      0x20\n      add\n      swap2\n      jump(tag_73)\n    tag_74:\n      dup3\n      add\n      swap2\n      swap1\n      0x00\n      mstore\n      keccak256(0x00, 0x20)\n      swap1\n    tag_75:\n      dup2\n      sload\n      dup2\n      mstore\n      swap1\n      0x01\n      add\n      swap1\n      0x20\n      add\n      dup1\n      dup4\n      gt\n      tag_75\n      jumpi\n      dup3\n      swap1\n      sub\n      0x1f\n      and\n      dup3\n      add\n      swap2\n    tag_73:\n      pop\n      pop\n      pop\n      pop\n      pop\n      dup2\n      mstore\n      0x20\n      add\n      0x04\n      dup3\n      add\n      sload\n      dup2\n      mstore\n      0x20\n      add\n      0x05\n      dup3\n      add\n      0x00\n      swap1\n      sload\n      swap1\n      0x0100\n      exp\n      swap1\n      div\n      0xff\n      and\n      iszero\n      iszero\n      iszero\n      iszero\n      dup2\n      mstore\n      pop\n      pop\n      swap2\n      pop\n        /* \"TouristID.sol\":2549:2735  function getTourist(address _tourist)... */\n      pop\n      swap2\n      swap1\n      pop\n      jump\t// out\n        /* \"TouristID.sol\":3054:3244  function expireTourist(address _tourist) external onlyAdmin touristExists(_tourist) {... */\n    tag_21:\n        /* \"TouristID.sol\":952:957  admin */\n      0x01\n      0x00\n      swap1\n      sload\n      swap1\n      0x0100\n      exp\n      swap1\n      div\n      0xffffffffffffffffffffffffffffffffffffffff\n      and\n        /* \"TouristID.sol\":938:957  msg.sender == admin */\n      0xffffffffffffffffffffffffffffffffffffffff\n      and\n        /* \"TouristID.sol\":938:948  msg.sender */\n      caller\n        /* \"TouristID.sol\":938:957  msg.sender == admin */\n      0xffffffffffffffffffffffffffffffffffffffff\n      and\n      eq\n        /* \"TouristID.sol\":930:996  require(msg.sender == admin, \"Only admin can perform this action\") */\n      tag_77\n      jumpi\n      mload(0x40)\n      0x08c379a000000000000000000000000000000000000000000000000000000000\n      dup2\n      mstore\n      0x04\n      add\n      tag_78\n      swap1\n      tag_38\n      jump\t// in\n    tag_78:\n      mload(0x40)\n      dup1\n      swap2\n      sub\n      swap1\n      revert\n    tag_77:\n        /* \"TouristID.sol\":3128:3136  _tourist */\n      dup1\n        /* \"TouristID.sol\":1084:1092  tourists */\n      0x00\n        /* \"TouristID.sol\":1084:1102  tourists[_tourist] */\n      dup1\n        /* \"TouristID.sol\":1093:1101  _tourist */\n      dup3\n        /* \"TouristID.sol\":1084:1102  tourists[_tourist] */\n      0xffffffffffffffffffffffffffffffffffffffff\n      and\n      0xffffffffffffffffffffffffffffffffffffffff\n      and\n      dup2\n      mstore\n      0x20\n      add\n      swap1\n      dup2\n      mstore\n      0x20\n      add\n      0x00\n      keccak256\n        /* \"TouristID.sol\":1084:1109  tourists[_tourist].exists */\n      0x05\n      add\n      0x00\n      swap1\n      sload\n      swap1\n      0x0100\n      exp\n      swap1\n      div\n      0xff\n      and\n        /* \"TouristID.sol\":1076:1131  require(tourists[_tourist].exists, \"Tourist not found\") */\n      tag_80\n      jumpi\n      mload(0x40)\n      0x08c379a000000000000000000000000000000000000000000000000000000000\n      dup2\n      mstore\n      0x04\n      add\n      tag_81\n      swap1\n      tag_42\n      jump\t// in\n    tag_81:\n      mload(0x40)\n      dup1\n      swap2\n      sub\n      swap1\n      revert\n    tag_80:\n        /* \"TouristID.sol\":3181:3196  block.timestamp */\n      timestamp\n        /* \"TouristID.sol\":3149:3157  tourists */\n      0x00\n        /* \"TouristID.sol\":3149:3167  tourists[_tourist] */\n      dup1\n        /* \"TouristID.sol\":3158:3166  _tourist */\n      dup5\n        /* \"TouristID.sol\":3149:3167  tourists[_tourist] */\n      0xffffffffffffffffffffffffffffffffffffffff\n      and\n      0xffffffffffffffffffffffffffffffffffffffff\n      and\n      dup2\n      mstore\n      0x20\n      add\n      swap1\n      dup2\n      mstore\n      0x20\n      add\n      0x00\n      keccak256\n        /* \"TouristID.sol\":3149:3178  tourists[_tourist].validUntil */\n      0x04\n      add\n        /* \"TouristID.sol\":3149:3196  tourists[_tourist].validUntil = block.timestamp */\n      dup2\n      swap1\n      sstore\n      pop\n        /* \"TouristID.sol\":3227:3235  _tourist */\n      dup2\n        /* \"TouristID.sol\":3212:3236  TouristExpired(_tourist) */\n      0xffffffffffffffffffffffffffffffffffffffff\n      and\n      0x415e3ac1c97757466c8cbcfae5bd2e6c72a48551aec284290f32c6c33e6263fb\n      mload(0x40)\n      mload(0x40)\n      dup1\n      swap2\n      sub\n      swap1\n      log2\n        /* \"TouristID.sol\":1007:1008  _ */\n      pop\n        /* \"TouristID.sol\":3054:3244  function expireTourist(address _tourist) external onlyAdmin touristExists(_tourist) {... */\n      pop\n      jump\t// out\n        /* \"TouristID.sol\":1281:2052  function registerTourist(... */\n    tag_25:\n        /* \"TouristID.sol\":952:957  admin */\n      0x01\n      0x00\n      swap1\n      sload\n      swap1\n      0x0100\n      exp\n      swap1\n      div\n      0xffffffffffffffffffffffffffffffffffffffff\n      and\n        /* \"TouristID.sol\":938:957  msg.sender == admin */\n      0xffffffffffffffffffffffffffffffffffffffff\n      and\n        /* \"TouristID.sol\":938:948  msg.sender */\n      caller\n        /* \"TouristID.sol\":938:957  msg.sender == admin */\n      0xffffffffffffffffffffffffffffffffffffffff\n      and\n      eq\n        /* \"TouristID.sol\":930:996  require(msg.sender == admin, \"Only admin can perform this action\") */\n      tag_84\n      jumpi\n      mload(0x40)\n      0x08c379a000000000000000000000000000000000000000000000000000000000\n      dup2\n      mstore\n      0x04\n      add\n      tag_85\n      swap1\n      tag_38\n      jump\t// in\n    tag_85:\n      mload(0x40)\n      dup1\n      swap2\n      sub\n      swap1\n      revert\n    tag_84:\n        /* \"TouristID.sol\":1559:1567  tourists */\n      0x00\n        /* \"TouristID.sol\":1559:1577  tourists[_tourist] */\n      dup1\n        /* \"TouristID.sol\":1568:1576  _tourist */\n      dup8\n        /* \"TouristID.sol\":1559:1577  tourists[_tourist] */\n      0xffffffffffffffffffffffffffffffffffffffff\n      and\n      0xffffffffffffffffffffffffffffffffffffffff\n      and\n      dup2\n      mstore\n      0x20\n      add\n      swap1\n      dup2\n      mstore\n      0x20\n      add\n      0x00\n      keccak256\n        /* \"TouristID.sol\":1559:1584  tourists[_tourist].exists */\n      0x05\n      add\n      0x00\n      swap1\n      sload\n      swap1\n      0x0100\n      exp\n      swap1\n      div\n      0xff\n      and\n        /* \"TouristID.sol\":1558:1584  !tourists[_tourist].exists */\n      iszero\n        /* \"TouristID.sol\":1550:1615  require(!tourists[_tourist].exists, \"Tourist already registered\") */\n      tag_87\n      jumpi\n      mload(0x40)\n      0x08c379a000000000000000000000000000000000000000000000000000000000\n      dup2\n      mstore\n      0x04\n      add\n      tag_88\n      swap1\n      tag_89\n      jump\t// in\n    tag_88:\n      mload(0x40)\n      dup1\n      swap2\n      sub\n      swap1\n      revert\n    tag_87:\n        /* \"TouristID.sol\":1648:1663  block.timestamp */\n      timestamp\n        /* \"TouristID.sol\":1634:1645  _validUntil */\n      dup2\n        /* \"TouristID.sol\":1634:1663  _validUntil > block.timestamp */\n      gt\n        /* \"TouristID.sol\":1626:1696  require(_validUntil > block.timestamp, \"Expiry must be in the future\") */\n      tag_90\n      jumpi\n      mload(0x40)\n      0x08c379a000000000000000000000000000000000000000000000000000000000\n      dup2\n      mstore\n      0x04\n      add\n      tag_91\n      swap1\n      tag_92\n      jump\t// in\n    tag_91:\n      mload(0x40)\n      dup1\n      swap2\n      sub\n      swap1\n      revert\n    tag_90:\n        /* \"TouristID.sol\":1730:1979  Tourist({... */\n      mload(0x40)\n      dup1\n      0xc0\n      add\n      0x40\n      mstore\n      dup1\n        /* \"TouristID.sol\":1759:1764  _name */\n      dup7\n        /* \"TouristID.sol\":1730:1979  Tourist({... */\n      dup2\n      mstore\n      0x20\n      add\n        /* \"TouristID.sol\":1798:1816  _passportOrAadhaar */\n      dup6\n        /* \"TouristID.sol\":1730:1979  Tourist({... */\n      dup2\n      mstore\n      0x20\n      add\n        /* \"TouristID.sol\":1842:1852  _itinerary */\n      dup5\n        /* \"TouristID.sol\":1730:1979  Tourist({... */\n      dup2\n      mstore\n      0x20\n      add\n        /* \"TouristID.sol\":1885:1902  _emergencyContact */\n      dup4\n        /* \"TouristID.sol\":1730:1979  Tourist({... */\n      dup2\n      mstore\n      0x20\n      add\n        /* \"TouristID.sol\":1929:1940  _validUntil */\n      dup3\n        /* \"TouristID.sol\":1730:1979  Tourist({... */\n      dup2\n      mstore\n      0x20\n      add\n        /* \"TouristID.sol\":1963:1967  true */\n      0x01\n        /* \"TouristID.sol\":1730:1979  Tourist({... */\n      iszero\n      iszero\n      dup2\n      mstore\n      pop\n        /* \"TouristID.sol\":1709:1717  tourists */\n      0x00\n        /* \"TouristID.sol\":1709:1727  tourists[_tourist] */\n      dup1\n        /* \"TouristID.sol\":1718:1726  _tourist */\n      dup9\n        /* \"TouristID.sol\":1709:1727  tourists[_tourist] */\n      0xffffffffffffffffffffffffffffffffffffffff\n      and\n      0xffffffffffffffffffffffffffffffffffffffff\n      and\n      dup2\n      mstore\n      0x20\n      add\n      swap1\n      dup2\n      mstore\n      0x20\n      add\n      0x00\n      keccak256\n        /* \"TouristID.sol\":1709:1979  tourists[_tourist] = Tourist({... */\n      0x00\n      dup3\n      add\n      mload\n      dup2\n      0x00\n      add\n      swap1\n      dup2\n      tag_93\n      swap2\n      swap1\n      tag_45\n      jump\t// in\n    tag_93:\n      pop\n      0x20\n      dup3\n      add\n      mload\n      dup2\n      0x01\n      add\n      swap1\n      dup2\n      tag_94\n      swap2\n      swap1\n      tag_45\n      jump\t// in\n    tag_94:\n      pop\n      0x40\n      dup3\n      add\n      mload\n      dup2\n      0x02\n      add\n      swap1\n      dup2\n      tag_95\n      swap2\n      swap1\n      tag_45\n      jump\t// in\n    tag_95:\n      pop\n      0x60\n      dup3\n      add\n      mload\n      dup2\n      0x03\n      add\n      swap1\n      dup2\n      tag_96\n      swap2\n      swap1\n      tag_45\n      jump\t// in\n    tag_96:\n      pop\n      0x80\n      dup3\n      add\n      mload\n      dup2\n      0x04\n      add\n      sstore\n      0xa0\n      dup3\n      add\n      mload\n      dup2\n      0x05\n      add\n      exp(0x0100, 0x00)\n      dup2\n      sload\n      dup2\n      0xff\n      mul\n      not\n      and\n      swap1\n      dup4\n      iszero\n      iszero\n      mul\n      or\n      swap1\n      sstore\n      pop\n      swap1\n      pop\n      pop\n        /* \"TouristID.sol\":2015:2023  _tourist */\n      dup6\n        /* \"TouristID.sol\":1997:2044  TouristRegistered(_tourist, _name, _validUntil) */\n      0xffffffffffffffffffffffffffffffffffffffff\n      and\n      0x8e3413ce2e0caf9329bcbeaad68d2f5b50e098839b5efd33372014c1ba0021e6\n        /* \"TouristID.sol\":2025:2030  _name */\n      dup7\n        /* \"TouristID.sol\":2032:2043  _validUntil */\n      dup4\n        /* \"TouristID.sol\":1997:2044  TouristRegistered(_tourist, _name, _validUntil) */\n      mload(0x40)\n      tag_97\n      swap3\n      swap2\n      swap1\n      tag_98\n      jump\t// in\n    tag_97:\n      mload(0x40)\n      dup1\n      swap2\n      sub\n      swap1\n      log2\n        /* \"TouristID.sol\":1281:2052  function registerTourist(... */\n      pop\n      pop\n      pop\n      pop\n      pop\n      pop\n      jump\t// out\n        /* \"TouristID.sol\":2791:3000  function isTouristValid(address _tourist)... */\n    tag_28:\n        /* \"TouristID.sol\":2916:2920  bool */\n      0x00\n        /* \"TouristID.sol\":2888:2896  _tourist */\n      dup2\n        /* \"TouristID.sol\":1084:1092  tourists */\n      0x00\n        /* \"TouristID.sol\":1084:1102  tourists[_tourist] */\n      dup1\n        /* \"TouristID.sol\":1093:1101  _tourist */\n      dup3\n        /* \"TouristID.sol\":1084:1102  tourists[_tourist] */\n      0xffffffffffffffffffffffffffffffffffffffff\n      and\n      0xffffffffffffffffffffffffffffffffffffffff\n      and\n      dup2\n      mstore\n      0x20\n      add\n      swap1\n      dup2\n      mstore\n      0x20\n      add\n      0x00\n      keccak256\n        /* \"TouristID.sol\":1084:1109  tourists[_tourist].exists */\n      0x05\n      add\n      0x00\n      swap1\n      sload\n      swap1\n      0x0100\n      exp\n      swap1\n      div\n      0xff\n      and\n        /* \"TouristID.sol\":1076:1131  require(tourists[_tourist].exists, \"Tourist not found\") */\n      tag_100\n      jumpi\n      mload(0x40)\n      0x08c379a000000000000000000000000000000000000000000000000000000000\n      dup2\n      mstore\n      0x04\n      add\n      tag_101\n      swap1\n      tag_42\n      jump\t// in\n    tag_101:\n      mload(0x40)\n      dup1\n      swap2\n      sub\n      swap1\n      revert\n    tag_100:\n        /* \"TouristID.sol\":2977:2992  block.timestamp */\n      timestamp\n        /* \"TouristID.sol\":2945:2953  tourists */\n      0x00\n        /* \"TouristID.sol\":2945:2963  tourists[_tourist] */\n      dup1\n        /* \"TouristID.sol\":2954:2962  _tourist */\n      dup6\n        /* \"TouristID.sol\":2945:2963  tourists[_tourist] */\n      0xffffffffffffffffffffffffffffffffffffffff\n      and\n      0xffffffffffffffffffffffffffffffffffffffff\n      and\n      dup2\n      mstore\n      0x20\n      add\n      swap1\n      dup2\n      mstore\n      0x20\n      add\n      0x00\n      keccak256\n        /* \"TouristID.sol\":2945:2974  tourists[_tourist].validUntil */\n      0x04\n      add\n      sload\n        /* \"TouristID.sol\":2945:2992  tourists[_tourist].validUntil > block.timestamp */\n      gt\n        /* \"TouristID.sol\":2938:2992  return tourists[_tourist].validUntil > block.timestamp */\n      swap2\n      pop\n        /* \"TouristID.sol\":2791:3000  function isTouristValid(address _tourist)... */\n      pop\n      swap2\n      swap1\n      pop\n      jump\t// out\n        /* \"TouristID.sol\":465:485  address public admin */\n    tag_32:\n      0x01\n      0x00\n      swap1\n      sload\n      swap1\n      0x0100\n      exp\n      swap1\n      div\n      0xffffffffffffffffffffffffffffffffffffffff\n      and\n      dup2\n      jump\t// out\n    tag_50:\n      mload(0x40)\n      dup1\n      0xc0\n      add\n      0x40\n      mstore\n      dup1\n      0x60\n      dup2\n      mstore\n      0x20\n      add\n      0x60\n      dup2\n      mstore\n      0x20\n      add\n      0x60\n      dup2\n      mstore\n      0x20\n      add\n      0x60\n      dup2\n      mstore\n      0x20\n      add\n      0x00\n      dup2\n      mstore\n      0x20\n      add\n      iszero(iszero(0x00))\n      dup2\n      mstore\n      pop\n      swap1\n      jump\t// out\n        /* \"#utility.yul\":7:82   */\n    tag_103:\n        /* \"#utility.yul\":40:46   */\n      0x00\n        /* \"#utility.yul\":73:75   */\n      0x40\n        /* \"#utility.yul\":67:76   */\n      mload\n        /* \"#utility.yul\":57:76   */\n      swap1\n      pop\n        /* \"#utility.yul\":7:82   */\n      swap1\n      jump\t// out\n        /* \"#utility.yul\":88:205   */\n    tag_104:\n        /* \"#utility.yul\":197:198   */\n      0x00\n        /* \"#utility.yul\":194:195   */\n      dup1\n        /* \"#utility.yul\":187:199   */\n      revert\n        /* \"#utility.yul\":211:328   */\n    tag_105:\n        /* \"#utility.yul\":320:321   */\n      0x00\n        /* \"#utility.yul\":317:318   */\n      dup1\n        /* \"#utility.yul\":310:322   */\n      revert\n        /* \"#utility.yul\":334:460   */\n    tag_106:\n        /* \"#utility.yul\":371:378   */\n      0x00\n        /* \"#utility.yul\":411:453   */\n      0xffffffffffffffffffffffffffffffffffffffff\n        /* \"#utility.yul\":404:409   */\n      dup3\n        /* \"#utility.yul\":400:454   */\n      and\n        /* \"#utility.yul\":389:454   */\n      swap1\n      pop\n        /* \"#utility.yul\":334:460   */\n      swap2\n      swap1\n      pop\n      jump\t// out\n        /* \"#utility.yul\":466:562   */\n    tag_107:\n        /* \"#utility.yul\":503:510   */\n      0x00\n        /* \"#utility.yul\":532:556   */\n      tag_166\n        /* \"#utility.yul\":550:555   */\n      dup3\n        /* \"#utility.yul\":532:556   */\n      tag_106\n      jump\t// in\n    tag_166:\n        /* \"#utility.yul\":521:556   */\n      swap1\n      pop\n        /* \"#utility.yul\":466:562   */\n      swap2\n      swap1\n      pop\n      jump\t// out\n        /* \"#utility.yul\":568:690   */\n    tag_108:\n        /* \"#utility.yul\":641:665   */\n      tag_168\n        /* \"#utility.yul\":659:664   */\n      dup2\n        /* \"#utility.yul\":641:665   */\n      tag_107\n      jump\t// in\n    tag_168:\n        /* \"#utility.yul\":634:639   */\n      dup2\n        /* \"#utility.yul\":631:666   */\n      eq\n        /* \"#utility.yul\":621:684   */\n      tag_169\n      jumpi\n        /* \"#utility.yul\":680:681   */\n      0x00\n        /* \"#utility.yul\":677:678   */\n      dup1\n        /* \"#utility.yul\":670:682   */\n      revert\n        /* \"#utility.yul\":621:684   */\n    tag_169:\n        /* \"#utility.yul\":568:690   */\n      pop\n      jump\t// out\n        /* \"#utility.yul\":696:835   */\n    tag_109:\n        /* \"#utility.yul\":742:747   */\n      0x00\n        /* \"#utility.yul\":780:786   */\n      dup2\n        /* \"#utility.yul\":767:787   */\n      calldataload\n        /* \"#utility.yul\":758:787   */\n      swap1\n      pop\n        /* \"#utility.yul\":796:829   */\n      tag_171\n        /* \"#utility.yul\":823:828   */\n      dup2\n        /* \"#utility.yul\":796:829   */\n      tag_108\n      jump\t// in\n    tag_171:\n        /* \"#utility.yul\":696:835   */\n      swap3\n      swap2\n      pop\n      pop\n      jump\t// out\n        /* \"#utility.yul\":841:958   */\n    tag_110:\n        /* \"#utility.yul\":950:951   */\n      0x00\n        /* \"#utility.yul\":947:948   */\n      dup1\n        /* \"#utility.yul\":940:952   */\n      revert\n        /* \"#utility.yul\":964:1081   */\n    tag_111:\n        /* \"#utility.yul\":1073:1074   */\n      0x00\n        /* \"#utility.yul\":1070:1071   */\n      dup1\n        /* \"#utility.yul\":1063:1075   */\n      revert\n        /* \"#utility.yul\":1087:1189   */\n    tag_112:\n        /* \"#utility.yul\":1128:1134   */\n      0x00\n        /* \"#utility.yul\":1179:1181   */\n      0x1f\n        /* \"#utility.yul\":1175:1182   */\n      not\n        /* \"#utility.yul\":1170:1172   */\n      0x1f\n        /* \"#utility.yul\":1163:1168   */\n      dup4\n        /* \"#utility.yul\":1159:1173   */\n      add\n        /* \"#utility.yul\":1155:1183   */\n      and\n        /* \"#utility.yul\":1145:1183   */\n      swap1\n      pop\n        /* \"#utility.yul\":1087:1189   */\n      swap2\n      swap1\n      pop\n      jump\t// out\n        /* \"#utility.yul\":1195:1375   */\n    tag_113:\n        /* \"#utility.yul\":1243:1320   */\n      0x4e487b7100000000000000000000000000000000000000000000000000000000\n        /* \"#utility.yul\":1240:1241   */\n      0x00\n        /* \"#utility.yul\":1233:1321   */\n      mstore\n        /* \"#utility.yul\":1340:1344   */\n      0x41\n        /* \"#utility.yul\":1337:1338   */\n      0x04\n        /* \"#utility.yul\":1330:1345   */\n      mstore\n        /* \"#utility.yul\":1364:1368   */\n      0x24\n        /* \"#utility.yul\":1361:1362   */\n      0x00\n        /* \"#utility.yul\":1354:1369   */\n      revert\n        /* \"#utility.yul\":1381:1662   */\n    tag_114:\n        /* \"#utility.yul\":1464:1491   */\n      tag_177\n        /* \"#utility.yul\":1486:1490   */\n      dup3\n        /* \"#utility.yul\":1464:1491   */\n      tag_112\n      jump\t// in\n    tag_177:\n        /* \"#utility.yul\":1456:1462   */\n      dup2\n        /* \"#utility.yul\":1452:1492   */\n      add\n        /* \"#utility.yul\":1594:1600   */\n      dup2\n        /* \"#utility.yul\":1582:1592   */\n      dup2\n        /* \"#utility.yul\":1579:1601   */\n      lt\n        /* \"#utility.yul\":1558:1576   */\n      0xffffffffffffffff\n        /* \"#utility.yul\":1546:1556   */\n      dup3\n        /* \"#utility.yul\":1543:1577   */\n      gt\n        /* \"#utility.yul\":1540:1602   */\n      or\n        /* \"#utility.yul\":1537:1625   */\n      iszero\n      tag_178\n      jumpi\n        /* \"#utility.yul\":1605:1623   */\n      tag_179\n      tag_113\n      jump\t// in\n    tag_179:\n        /* \"#utility.yul\":1537:1625   */\n    tag_178:\n        /* \"#utility.yul\":1645:1655   */\n      dup1\n        /* \"#utility.yul\":1641:1643   */\n      0x40\n        /* \"#utility.yul\":1634:1656   */\n      mstore\n        /* \"#utility.yul\":1424:1662   */\n      pop\n        /* \"#utility.yul\":1381:1662   */\n      pop\n      pop\n      jump\t// out\n        /* \"#utility.yul\":1668:1797   */\n    tag_115:\n        /* \"#utility.yul\":1702:1708   */\n      0x00\n        /* \"#utility.yul\":1729:1749   */\n      tag_181\n      tag_103\n      jump\t// in\n    tag_181:\n        /* \"#utility.yul\":1719:1749   */\n      swap1\n      pop\n        /* \"#utility.yul\":1758:1791   */\n      tag_182\n        /* \"#utility.yul\":1786:1790   */\n      dup3\n        /* \"#utility.yul\":1778:1784   */\n      dup3\n        /* \"#utility.yul\":1758:1791   */\n      tag_114\n      jump\t// in\n    tag_182:\n        /* \"#utility.yul\":1668:1797   */\n      swap2\n      swap1\n      pop\n      jump\t// out\n        /* \"#utility.yul\":1803:2111   */\n    tag_116:\n        /* \"#utility.yul\":1865:1869   */\n      0x00\n        /* \"#utility.yul\":1955:1973   */\n      0xffffffffffffffff\n        /* \"#utility.yul\":1947:1953   */\n      dup3\n        /* \"#utility.yul\":1944:1974   */\n      gt\n        /* \"#utility.yul\":1941:1997   */\n      iszero\n      tag_184\n      jumpi\n        /* \"#utility.yul\":1977:1995   */\n      tag_185\n      tag_113\n      jump\t// in\n    tag_185:\n        /* \"#utility.yul\":1941:1997   */\n    tag_184:\n        /* \"#utility.yul\":2015:2044   */\n      tag_186\n        /* \"#utility.yul\":2037:2043   */\n      dup3\n        /* \"#utility.yul\":2015:2044   */\n      tag_112\n      jump\t// in\n    tag_186:\n        /* \"#utility.yul\":2007:2044   */\n      swap1\n      pop\n        /* \"#utility.yul\":2099:2103   */\n      0x20\n        /* \"#utility.yul\":2093:2097   */\n      dup2\n        /* \"#utility.yul\":2089:2104   */\n      add\n        /* \"#utility.yul\":2081:2104   */\n      swap1\n      pop\n        /* \"#utility.yul\":1803:2111   */\n      swap2\n      swap1\n      pop\n      jump\t// out\n        /* \"#utility.yul\":2117:2265   */\n    tag_117:\n        /* \"#utility.yul\":2215:2221   */\n      dup3\n        /* \"#utility.yul\":2210:2213   */\n      dup2\n        /* \"#utility.yul\":2205:2208   */\n      dup4\n        /* \"#utility.yul\":2192:2222   */\n      calldatacopy\n        /* \"#utility.yul\":2256:2257   */\n      0x00\n        /* \"#utility.yul\":2247:2253   */\n      dup4\n        /* \"#utility.yul\":2242:2245   */\n      dup4\n        /* \"#utility.yul\":2238:2254   */\n      add\n        /* \"#utility.yul\":2231:2258   */\n      mstore\n        /* \"#utility.yul\":2117:2265   */\n      pop\n      pop\n      pop\n      jump\t// out\n        /* \"#utility.yul\":2271:2696   */\n    tag_118:\n        /* \"#utility.yul\":2349:2354   */\n      0x00\n        /* \"#utility.yul\":2374:2440   */\n      tag_189\n        /* \"#utility.yul\":2390:2439   */\n      tag_190\n        /* \"#utility.yul\":2432:2438   */\n      dup5\n        /* \"#utility.yul\":2390:2439   */\n      tag_116\n      jump\t// in\n    tag_190:\n        /* \"#utility.yul\":2374:2440   */\n      tag_115\n      jump\t// in\n    tag_189:\n        /* \"#utility.yul\":2365:2440   */\n      swap1\n      pop\n        /* \"#utility.yul\":2463:2469   */\n      dup3\n        /* \"#utility.yul\":2456:2461   */\n      dup2\n        /* \"#utility.yul\":2449:2470   */\n      mstore\n        /* \"#utility.yul\":2501:2505   */\n      0x20\n        /* \"#utility.yul\":2494:2499   */\n      dup2\n        /* \"#utility.yul\":2490:2506   */\n      add\n        /* \"#utility.yul\":2539:2542   */\n      dup5\n        /* \"#utility.yul\":2530:2536   */\n      dup5\n        /* \"#utility.yul\":2525:2528   */\n      dup5\n        /* \"#utility.yul\":2521:2537   */\n      add\n        /* \"#utility.yul\":2518:2543   */\n      gt\n        /* \"#utility.yul\":2515:2627   */\n      iszero\n      tag_191\n      jumpi\n        /* \"#utility.yul\":2546:2625   */\n      tag_192\n      tag_111\n      jump\t// in\n    tag_192:\n        /* \"#utility.yul\":2515:2627   */\n    tag_191:\n        /* \"#utility.yul\":2636:2690   */\n      tag_193\n        /* \"#utility.yul\":2683:2689   */\n      dup5\n        /* \"#utility.yul\":2678:2681   */\n      dup3\n        /* \"#utility.yul\":2673:2676   */\n      dup6\n        /* \"#utility.yul\":2636:2690   */\n      tag_117\n      jump\t// in\n    tag_193:\n        /* \"#utility.yul\":2355:2696   */\n      pop\n        /* \"#utility.yul\":2271:2696   */\n      swap4\n      swap3\n      pop\n      pop\n      pop\n      jump\t// out\n        /* \"#utility.yul\":2716:3056   */\n    tag_119:\n        /* \"#utility.yul\":2772:2777   */\n      0x00\n        /* \"#utility.yul\":2821:2824   */\n      dup3\n        /* \"#utility.yul\":2814:2818   */\n      0x1f\n        /* \"#utility.yul\":2806:2812   */\n      dup4\n        /* \"#utility.yul\":2802:2819   */\n      add\n        /* \"#utility.yul\":2798:2825   */\n      slt\n        /* \"#utility.yul\":2788:2910   */\n      tag_195\n      jumpi\n        /* \"#utility.yul\":2829:2908   */\n      tag_196\n      tag_110\n      jump\t// in\n    tag_196:\n        /* \"#utility.yul\":2788:2910   */\n    tag_195:\n        /* \"#utility.yul\":2946:2952   */\n      dup2\n        /* \"#utility.yul\":2933:2953   */\n      calldataload\n        /* \"#utility.yul\":2971:3050   */\n      tag_197\n        /* \"#utility.yul\":3046:3049   */\n      dup5\n        /* \"#utility.yul\":3038:3044   */\n      dup3\n        /* \"#utility.yul\":3031:3035   */\n      0x20\n        /* \"#utility.yul\":3023:3029   */\n      dup7\n        /* \"#utility.yul\":3019:3036   */\n      add\n        /* \"#utility.yul\":2971:3050   */\n      tag_118\n      jump\t// in\n    tag_197:\n        /* \"#utility.yul\":2962:3050   */\n      swap2\n      pop\n        /* \"#utility.yul\":2778:3056   */\n      pop\n        /* \"#utility.yul\":2716:3056   */\n      swap3\n      swap2\n      pop\n      pop\n      jump\t// out\n        /* \"#utility.yul\":3062:4041   */\n    tag_11:\n        /* \"#utility.yul\":3159:3165   */\n      0x00\n        /* \"#utility.yul\":3167:3173   */\n      dup1\n        /* \"#utility.yul\":3175:3181   */\n      0x00\n        /* \"#utility.yul\":3224:3226   */\n      0x60\n        /* \"#utility.yul\":3212:3221   */\n      dup5\n        /* \"#utility.yul\":3203:3210   */\n      dup7\n        /* \"#utility.yul\":3199:3222   */\n      sub\n        /* \"#utility.yul\":3195:3227   */\n      slt\n        /* \"#utility.yul\":3192:3311   */\n      iszero\n      tag_199\n      jumpi\n        /* \"#utility.yul\":3230:3309   */\n      tag_200\n      tag_104\n      jump\t// in\n    tag_200:\n        /* \"#utility.yul\":3192:3311   */\n    tag_199:\n        /* \"#utility.yul\":3350:3351   */\n      0x00\n        /* \"#utility.yul\":3375:3428   */\n      tag_201\n        /* \"#utility.yul\":3420:3427   */\n      dup7\n        /* \"#utility.yul\":3411:3417   */\n      dup3\n        /* \"#utility.yul\":3400:3409   */\n      dup8\n        /* \"#utility.yul\":3396:3418   */\n      add\n        /* \"#utility.yul\":3375:3428   */\n      tag_109\n      jump\t// in\n    tag_201:\n        /* \"#utility.yul\":3365:3428   */\n      swap4\n      pop\n        /* \"#utility.yul\":3321:3438   */\n      pop\n        /* \"#utility.yul\":3505:3507   */\n      0x20\n        /* \"#utility.yul\":3494:3503   */\n      dup5\n        /* \"#utility.yul\":3490:3508   */\n      add\n        /* \"#utility.yul\":3477:3509   */\n      calldataload\n        /* \"#utility.yul\":3536:3554   */\n      0xffffffffffffffff\n        /* \"#utility.yul\":3528:3534   */\n      dup2\n        /* \"#utility.yul\":3525:3555   */\n      gt\n        /* \"#utility.yul\":3522:3639   */\n      iszero\n      tag_202\n      jumpi\n        /* \"#utility.yul\":3558:3637   */\n      tag_203\n      tag_105\n      jump\t// in\n    tag_203:\n        /* \"#utility.yul\":3522:3639   */\n    tag_202:\n        /* \"#utility.yul\":3663:3726   */\n      tag_204\n        /* \"#utility.yul\":3718:3725   */\n      dup7\n        /* \"#utility.yul\":3709:3715   */\n      dup3\n        /* \"#utility.yul\":3698:3707   */\n      dup8\n        /* \"#utility.yul\":3694:3716   */\n      add\n        /* \"#utility.yul\":3663:3726   */\n      tag_119\n      jump\t// in\n    tag_204:\n        /* \"#utility.yul\":3653:3726   */\n      swap3\n      pop\n        /* \"#utility.yul\":3448:3736   */\n      pop\n        /* \"#utility.yul\":3803:3805   */\n      0x40\n        /* \"#utility.yul\":3792:3801   */\n      dup5\n        /* \"#utility.yul\":3788:3806   */\n      add\n        /* \"#utility.yul\":3775:3807   */\n      calldataload\n        /* \"#utility.yul\":3834:3852   */\n      0xffffffffffffffff\n        /* \"#utility.yul\":3826:3832   */\n      dup2\n        /* \"#utility.yul\":3823:3853   */\n      gt\n        /* \"#utility.yul\":3820:3937   */\n      iszero\n      tag_205\n      jumpi\n        /* \"#utility.yul\":3856:3935   */\n      tag_206\n      tag_105\n      jump\t// in\n    tag_206:\n        /* \"#utility.yul\":3820:3937   */\n    tag_205:\n        /* \"#utility.yul\":3961:4024   */\n      tag_207\n        /* \"#utility.yul\":4016:4023   */\n      dup7\n        /* \"#utility.yul\":4007:4013   */\n      dup3\n        /* \"#utility.yul\":3996:4005   */\n      dup8\n        /* \"#utility.yul\":3992:4014   */\n      add\n        /* \"#utility.yul\":3961:4024   */\n      tag_119\n      jump\t// in\n    tag_207:\n        /* \"#utility.yul\":3951:4024   */\n      swap2\n      pop\n        /* \"#utility.yul\":3746:4034   */\n      pop\n        /* \"#utility.yul\":3062:4041   */\n      swap3\n      pop\n      swap3\n      pop\n      swap3\n      jump\t// out\n        /* \"#utility.yul\":4047:4376   */\n    tag_15:\n        /* \"#utility.yul\":4106:4112   */\n      0x00\n        /* \"#utility.yul\":4155:4157   */\n      0x20\n        /* \"#utility.yul\":4143:4152   */\n      dup3\n        /* \"#utility.yul\":4134:4141   */\n      dup5\n        /* \"#utility.yul\":4130:4153   */\n      sub\n        /* \"#utility.yul\":4126:4158   */\n      slt\n        /* \"#utility.yul\":4123:4242   */\n      iszero\n      tag_209\n      jumpi\n        /* \"#utility.yul\":4161:4240   */\n      tag_210\n      tag_104\n      jump\t// in\n    tag_210:\n        /* \"#utility.yul\":4123:4242   */\n    tag_209:\n        /* \"#utility.yul\":4281:4282   */\n      0x00\n        /* \"#utility.yul\":4306:4359   */\n      tag_211\n        /* \"#utility.yul\":4351:4358   */\n      dup5\n        /* \"#utility.yul\":4342:4348   */\n      dup3\n        /* \"#utility.yul\":4331:4340   */\n      dup6\n        /* \"#utility.yul\":4327:4349   */\n      add\n        /* \"#utility.yul\":4306:4359   */\n      tag_109\n      jump\t// in\n    tag_211:\n        /* \"#utility.yul\":4296:4359   */\n      swap2\n      pop\n        /* \"#utility.yul\":4252:4369   */\n      pop\n        /* \"#utility.yul\":4047:4376   */\n      swap3\n      swap2\n      pop\n      pop\n      jump\t// out\n        /* \"#utility.yul\":4382:4481   */\n    tag_120:\n        /* \"#utility.yul\":4434:4440   */\n      0x00\n        /* \"#utility.yul\":4468:4473   */\n      dup2\n        /* \"#utility.yul\":4462:4474   */\n      mload\n        /* \"#utility.yul\":4452:4474   */\n      swap1\n      pop\n        /* \"#utility.yul\":4382:4481   */\n      swap2\n      swap1\n      pop\n      jump\t// out\n        /* \"#utility.yul\":4487:4646   */\n    tag_121:\n        /* \"#utility.yul\":4561:4572   */\n      0x00\n        /* \"#utility.yul\":4595:4601   */\n      dup3\n        /* \"#utility.yul\":4590:4593   */\n      dup3\n        /* \"#utility.yul\":4583:4602   */\n      mstore\n        /* \"#utility.yul\":4635:4639   */\n      0x20\n        /* \"#utility.yul\":4630:4633   */\n      dup3\n        /* \"#utility.yul\":4626:4640   */\n      add\n        /* \"#utility.yul\":4611:4640   */\n      swap1\n      pop\n        /* \"#utility.yul\":4487:4646   */\n      swap3\n      swap2\n      pop\n      pop\n      jump\t// out\n        /* \"#utility.yul\":4652:4900   */\n    tag_122:\n        /* \"#utility.yul\":4734:4735   */\n      0x00\n        /* \"#utility.yul\":4744:4857   */\n    tag_215:\n        /* \"#utility.yul\":4758:4764   */\n      dup4\n        /* \"#utility.yul\":4755:4756   */\n      dup2\n        /* \"#utility.yul\":4752:4765   */\n      lt\n        /* \"#utility.yul\":4744:4857   */\n      iszero\n      tag_217\n      jumpi\n        /* \"#utility.yul\":4843:4844   */\n      dup1\n        /* \"#utility.yul\":4838:4841   */\n      dup3\n        /* \"#utility.yul\":4834:4845   */\n      add\n        /* \"#utility.yul\":4828:4846   */\n      mload\n        /* \"#utility.yul\":4824:4825   */\n      dup2\n        /* \"#utility.yul\":4819:4822   */\n      dup5\n        /* \"#utility.yul\":4815:4826   */\n      add\n        /* \"#utility.yul\":4808:4847   */\n      mstore\n        /* \"#utility.yul\":4780:4782   */\n      0x20\n        /* \"#utility.yul\":4777:4778   */\n      dup2\n        /* \"#utility.yul\":4773:4783   */\n      add\n        /* \"#utility.yul\":4768:4783   */\n      swap1\n      pop\n        /* \"#utility.yul\":4744:4857   */\n      jump(tag_215)\n    tag_217:\n        /* \"#utility.yul\":4891:4892   */\n      0x00\n        /* \"#utility.yul\":4882:4888   */\n      dup5\n        /* \"#utility.yul\":4877:4880   */\n      dup5\n        /* \"#utility.yul\":4873:4889   */\n      add\n        /* \"#utility.yul\":4866:4893   */\n      mstore\n        /* \"#utility.yul\":4714:4900   */\n      pop\n        /* \"#utility.yul\":4652:4900   */\n      pop\n      pop\n      pop\n      jump\t// out\n        /* \"#utility.yul\":4906:5263   */\n    tag_123:\n        /* \"#utility.yul\":4984:4987   */\n      0x00\n        /* \"#utility.yul\":5012:5051   */\n      tag_219\n        /* \"#utility.yul\":5045:5050   */\n      dup3\n        /* \"#utility.yul\":5012:5051   */\n      tag_120\n      jump\t// in\n    tag_219:\n        /* \"#utility.yul\":5067:5128   */\n      tag_220\n        /* \"#utility.yul\":5121:5127   */\n      dup2\n        /* \"#utility.yul\":5116:5119   */\n      dup6\n        /* \"#utility.yul\":5067:5128   */\n      tag_121\n      jump\t// in\n    tag_220:\n        /* \"#utility.yul\":5060:5128   */\n      swap4\n      pop\n        /* \"#utility.yul\":5137:5202   */\n      tag_221\n        /* \"#utility.yul\":5195:5201   */\n      dup2\n        /* \"#utility.yul\":5190:5193   */\n      dup6\n        /* \"#utility.yul\":5183:5187   */\n      0x20\n        /* \"#utility.yul\":5176:5181   */\n      dup7\n        /* \"#utility.yul\":5172:5188   */\n      add\n        /* \"#utility.yul\":5137:5202   */\n      tag_122\n      jump\t// in\n    tag_221:\n        /* \"#utility.yul\":5227:5256   */\n      tag_222\n        /* \"#utility.yul\":5249:5255   */\n      dup2\n        /* \"#utility.yul\":5227:5256   */\n      tag_112\n      jump\t// in\n    tag_222:\n        /* \"#utility.yul\":5222:5225   */\n      dup5\n        /* \"#utility.yul\":5218:5257   */\n      add\n        /* \"#utility.yul\":5211:5257   */\n      swap2\n      pop\n        /* \"#utility.yul\":4988:5263   */\n      pop\n        /* \"#utility.yul\":4906:5263   */\n      swap3\n      swap2\n      pop\n      pop\n      jump\t// out\n        /* \"#utility.yul\":5269:5346   */\n    tag_124:\n        /* \"#utility.yul\":5306:5313   */\n      0x00\n        /* \"#utility.yul\":5335:5340   */\n      dup2\n        /* \"#utility.yul\":5324:5340   */\n      swap1\n      pop\n        /* \"#utility.yul\":5269:5346   */\n      swap2\n      swap1\n      pop\n      jump\t// out\n        /* \"#utility.yul\":5352:5460   */\n    tag_125:\n        /* \"#utility.yul\":5429:5453   */\n      tag_225\n        /* \"#utility.yul\":5447:5452   */\n      dup2\n        /* \"#utility.yul\":5429:5453   */\n      tag_124\n      jump\t// in\n    tag_225:\n        /* \"#utility.yul\":5424:5427   */\n      dup3\n        /* \"#utility.yul\":5417:5454   */\n      mstore\n        /* \"#utility.yul\":5352:5460   */\n      pop\n      pop\n      jump\t// out\n        /* \"#utility.yul\":5466:5556   */\n    tag_126:\n        /* \"#utility.yul\":5500:5507   */\n      0x00\n        /* \"#utility.yul\":5543:5548   */\n      dup2\n        /* \"#utility.yul\":5536:5549   */\n      iszero\n        /* \"#utility.yul\":5529:5550   */\n      iszero\n        /* \"#utility.yul\":5518:5550   */\n      swap1\n      pop\n        /* \"#utility.yul\":5466:5556   */\n      swap2\n      swap1\n      pop\n      jump\t// out\n        /* \"#utility.yul\":5562:5661   */\n    tag_127:\n        /* \"#utility.yul\":5633:5654   */\n      tag_228\n        /* \"#utility.yul\":5648:5653   */\n      dup2\n        /* \"#utility.yul\":5633:5654   */\n      tag_126\n      jump\t// in\n    tag_228:\n        /* \"#utility.yul\":5628:5631   */\n      dup3\n        /* \"#utility.yul\":5621:5655   */\n      mstore\n        /* \"#utility.yul\":5562:5661   */\n      pop\n      pop\n      jump\t// out\n        /* \"#utility.yul\":5727:7270   */\n    tag_128:\n        /* \"#utility.yul\":5842:5845   */\n      0x00\n        /* \"#utility.yul\":5878:5882   */\n      0xc0\n        /* \"#utility.yul\":5873:5876   */\n      dup4\n        /* \"#utility.yul\":5869:5883   */\n      add\n        /* \"#utility.yul\":5965:5969   */\n      0x00\n        /* \"#utility.yul\":5958:5963   */\n      dup4\n        /* \"#utility.yul\":5954:5970   */\n      add\n        /* \"#utility.yul\":5948:5971   */\n      mload\n        /* \"#utility.yul\":6018:6021   */\n      dup5\n        /* \"#utility.yul\":6012:6016   */\n      dup3\n        /* \"#utility.yul\":6008:6022   */\n      sub\n        /* \"#utility.yul\":6001:6005   */\n      0x00\n        /* \"#utility.yul\":5996:5999   */\n      dup7\n        /* \"#utility.yul\":5992:6006   */\n      add\n        /* \"#utility.yul\":5985:6023   */\n      mstore\n        /* \"#utility.yul\":6044:6117   */\n      tag_230\n        /* \"#utility.yul\":6112:6116   */\n      dup3\n        /* \"#utility.yul\":6098:6110   */\n      dup3\n        /* \"#utility.yul\":6044:6117   */\n      tag_123\n      jump\t// in\n    tag_230:\n        /* \"#utility.yul\":6036:6117   */\n      swap2\n      pop\n        /* \"#utility.yul\":5893:6128   */\n      pop\n        /* \"#utility.yul\":6223:6227   */\n      0x20\n        /* \"#utility.yul\":6216:6221   */\n      dup4\n        /* \"#utility.yul\":6212:6228   */\n      add\n        /* \"#utility.yul\":6206:6229   */\n      mload\n        /* \"#utility.yul\":6276:6279   */\n      dup5\n        /* \"#utility.yul\":6270:6274   */\n      dup3\n        /* \"#utility.yul\":6266:6280   */\n      sub\n        /* \"#utility.yul\":6259:6263   */\n      0x20\n        /* \"#utility.yul\":6254:6257   */\n      dup7\n        /* \"#utility.yul\":6250:6264   */\n      add\n        /* \"#utility.yul\":6243:6281   */\n      mstore\n        /* \"#utility.yul\":6302:6375   */\n      tag_231\n        /* \"#utility.yul\":6370:6374   */\n      dup3\n        /* \"#utility.yul\":6356:6368   */\n      dup3\n        /* \"#utility.yul\":6302:6375   */\n      tag_123\n      jump\t// in\n    tag_231:\n        /* \"#utility.yul\":6294:6375   */\n      swap2\n      pop\n        /* \"#utility.yul\":6138:6386   */\n      pop\n        /* \"#utility.yul\":6473:6477   */\n      0x40\n        /* \"#utility.yul\":6466:6471   */\n      dup4\n        /* \"#utility.yul\":6462:6478   */\n      add\n        /* \"#utility.yul\":6456:6479   */\n      mload\n        /* \"#utility.yul\":6526:6529   */\n      dup5\n        /* \"#utility.yul\":6520:6524   */\n      dup3\n        /* \"#utility.yul\":6516:6530   */\n      sub\n        /* \"#utility.yul\":6509:6513   */\n      0x40\n        /* \"#utility.yul\":6504:6507   */\n      dup7\n        /* \"#utility.yul\":6500:6514   */\n      add\n        /* \"#utility.yul\":6493:6531   */\n      mstore\n        /* \"#utility.yul\":6552:6625   */\n      tag_232\n        /* \"#utility.yul\":6620:6624   */\n      dup3\n        /* \"#utility.yul\":6606:6618   */\n      dup3\n        /* \"#utility.yul\":6552:6625   */\n      tag_123\n      jump\t// in\n    tag_232:\n        /* \"#utility.yul\":6544:6625   */\n      swap2\n      pop\n        /* \"#utility.yul\":6396:6636   */\n      pop\n        /* \"#utility.yul\":6730:6734   */\n      0x60\n        /* \"#utility.yul\":6723:6728   */\n      dup4\n        /* \"#utility.yul\":6719:6735   */\n      add\n        /* \"#utility.yul\":6713:6736   */\n      mload\n        /* \"#utility.yul\":6783:6786   */\n      dup5\n        /* \"#utility.yul\":6777:6781   */\n      dup3\n        /* \"#utility.yul\":6773:6787   */\n      sub\n        /* \"#utility.yul\":6766:6770   */\n      0x60\n        /* \"#utility.yul\":6761:6764   */\n      dup7\n        /* \"#utility.yul\":6757:6771   */\n      add\n        /* \"#utility.yul\":6750:6788   */\n      mstore\n        /* \"#utility.yul\":6809:6882   */\n      tag_233\n        /* \"#utility.yul\":6877:6881   */\n      dup3\n        /* \"#utility.yul\":6863:6875   */\n      dup3\n        /* \"#utility.yul\":6809:6882   */\n      tag_123\n      jump\t// in\n    tag_233:\n        /* \"#utility.yul\":6801:6882   */\n      swap2\n      pop\n        /* \"#utility.yul\":6646:6893   */\n      pop\n        /* \"#utility.yul\":6981:6985   */\n      0x80\n        /* \"#utility.yul\":6974:6979   */\n      dup4\n        /* \"#utility.yul\":6970:6986   */\n      add\n        /* \"#utility.yul\":6964:6987   */\n      mload\n        /* \"#utility.yul\":7000:7063   */\n      tag_234\n        /* \"#utility.yul\":7057:7061   */\n      0x80\n        /* \"#utility.yul\":7052:7055   */\n      dup7\n        /* \"#utility.yul\":7048:7062   */\n      add\n        /* \"#utility.yul\":7034:7046   */\n      dup3\n        /* \"#utility.yul\":7000:7063   */\n      tag_125\n      jump\t// in\n    tag_234:\n        /* \"#utility.yul\":6903:7073   */\n      pop\n        /* \"#utility.yul\":7157:7161   */\n      0xa0\n        /* \"#utility.yul\":7150:7155   */\n      dup4\n        /* \"#utility.yul\":7146:7162   */\n      add\n        /* \"#utility.yul\":7140:7163   */\n      mload\n        /* \"#utility.yul\":7176:7233   */\n      tag_235\n        /* \"#utility.yul\":7227:7231   */\n      0xa0\n        /* \"#utility.yul\":7222:7225   */\n      dup7\n        /* \"#utility.yul\":7218:7232   */\n      add\n        /* \"#utility.yul\":7204:7216   */\n      dup3\n        /* \"#utility.yul\":7176:7233   */\n      tag_127\n      jump\t// in\n    tag_235:\n        /* \"#utility.yul\":7083:7243   */\n      pop\n        /* \"#utility.yul\":7260:7264   */\n      dup1\n        /* \"#utility.yul\":7253:7264   */\n      swap2\n      pop\n        /* \"#utility.yul\":5847:7270   */\n      pop\n        /* \"#utility.yul\":5727:7270   */\n      swap3\n      swap2\n      pop\n      pop\n      jump\t// out\n        /* \"#utility.yul\":7276:7641   */\n    tag_18:\n        /* \"#utility.yul\":7415:7419   */\n      0x00\n        /* \"#utility.yul\":7453:7455   */\n      0x20\n        /* \"#utility.yul\":7442:7451   */\n      dup3\n        /* \"#utility.yul\":7438:7456   */\n      add\n        /* \"#utility.yul\":7430:7456   */\n      swap1\n      pop\n        /* \"#utility.yul\":7502:7511   */\n      dup2\n        /* \"#utility.yul\":7496:7500   */\n      dup2\n        /* \"#utility.yul\":7492:7512   */\n      sub\n        /* \"#utility.yul\":7488:7489   */\n      0x00\n        /* \"#utility.yul\":7477:7486   */\n      dup4\n        /* \"#utility.yul\":7473:7490   */\n      add\n        /* \"#utility.yul\":7466:7513   */\n      mstore\n        /* \"#utility.yul\":7530:7634   */\n      tag_237\n        /* \"#utility.yul\":7629:7633   */\n      dup2\n        /* \"#utility.yul\":7620:7626   */\n      dup5\n        /* \"#utility.yul\":7530:7634   */\n      tag_128\n      jump\t// in\n    tag_237:\n        /* \"#utility.yul\":7522:7634   */\n      swap1\n      pop\n        /* \"#utility.yul\":7276:7641   */\n      swap3\n      swap2\n      pop\n      pop\n      jump\t// out\n        /* \"#utility.yul\":7647:7769   */\n    tag_129:\n        /* \"#utility.yul\":7720:7744   */\n      tag_239\n        /* \"#utility.yul\":7738:7743   */\n      dup2\n        /* \"#utility.yul\":7720:7744   */\n      tag_124\n      jump\t// in\n    tag_239:\n        /* \"#utility.yul\":7713:7718   */\n      dup2\n        /* \"#utility.yul\":7710:7745   */\n      eq\n        /* \"#utility.yul\":7700:7763   */\n      tag_240\n      jumpi\n        /* \"#utility.yul\":7759:7760   */\n      0x00\n        /* \"#utility.yul\":7756:7757   */\n      dup1\n        /* \"#utility.yul\":7749:7761   */\n      revert\n        /* \"#utility.yul\":7700:7763   */\n    tag_240:\n        /* \"#utility.yul\":7647:7769   */\n      pop\n      jump\t// out\n        /* \"#utility.yul\":7775:7914   */\n    tag_130:\n        /* \"#utility.yul\":7821:7826   */\n      0x00\n        /* \"#utility.yul\":7859:7865   */\n      dup2\n        /* \"#utility.yul\":7846:7866   */\n      calldataload\n        /* \"#utility.yul\":7837:7866   */\n      swap1\n      pop\n        /* \"#utility.yul\":7875:7908   */\n      tag_242\n        /* \"#utility.yul\":7902:7907   */\n      dup2\n        /* \"#utility.yul\":7875:7908   */\n      tag_129\n      jump\t// in\n    tag_242:\n        /* \"#utility.yul\":7775:7914   */\n      swap3\n      swap2\n      pop\n      pop\n      jump\t// out\n        /* \"#utility.yul\":7920:9697   */\n    tag_24:\n        /* \"#utility.yul\":8064:8070   */\n      0x00\n        /* \"#utility.yul\":8072:8078   */\n      dup1\n        /* \"#utility.yul\":8080:8086   */\n      0x00\n        /* \"#utility.yul\":8088:8094   */\n      dup1\n        /* \"#utility.yul\":8096:8102   */\n      0x00\n        /* \"#utility.yul\":8104:8110   */\n      dup1\n        /* \"#utility.yul\":8153:8156   */\n      0xc0\n        /* \"#utility.yul\":8141:8150   */\n      dup8\n        /* \"#utility.yul\":8132:8139   */\n      dup10\n        /* \"#utility.yul\":8128:8151   */\n      sub\n        /* \"#utility.yul\":8124:8157   */\n      slt\n        /* \"#utility.yul\":8121:8241   */\n      iszero\n      tag_244\n      jumpi\n        /* \"#utility.yul\":8160:8239   */\n      tag_245\n      tag_104\n      jump\t// in\n    tag_245:\n        /* \"#utility.yul\":8121:8241   */\n    tag_244:\n        /* \"#utility.yul\":8280:8281   */\n      0x00\n        /* \"#utility.yul\":8305:8358   */\n      tag_246\n        /* \"#utility.yul\":8350:8357   */\n      dup10\n        /* \"#utility.yul\":8341:8347   */\n      dup3\n        /* \"#utility.yul\":8330:8339   */\n      dup11\n        /* \"#utility.yul\":8326:8348   */\n      add\n        /* \"#utility.yul\":8305:8358   */\n      tag_109\n      jump\t// in\n    tag_246:\n        /* \"#utility.yul\":8295:8358   */\n      swap7\n      pop\n        /* \"#utility.yul\":8251:8368   */\n      pop\n        /* \"#utility.yul\":8435:8437   */\n      0x20\n        /* \"#utility.yul\":8424:8433   */\n      dup8\n        /* \"#utility.yul\":8420:8438   */\n      add\n        /* \"#utility.yul\":8407:8439   */\n      calldataload\n        /* \"#utility.yul\":8466:8484   */\n      0xffffffffffffffff\n        /* \"#utility.yul\":8458:8464   */\n      dup2\n        /* \"#utility.yul\":8455:8485   */\n      gt\n        /* \"#utility.yul\":8452:8569   */\n      iszero\n      tag_247\n      jumpi\n        /* \"#utility.yul\":8488:8567   */\n      tag_248\n      tag_105\n      jump\t// in\n    tag_248:\n        /* \"#utility.yul\":8452:8569   */\n    tag_247:\n        /* \"#utility.yul\":8593:8656   */\n      tag_249\n        /* \"#utility.yul\":8648:8655   */\n      dup10\n        /* \"#utility.yul\":8639:8645   */\n      dup3\n        /* \"#utility.yul\":8628:8637   */\n      dup11\n        /* \"#utility.yul\":8624:8646   */\n      add\n        /* \"#utility.yul\":8593:8656   */\n      tag_119\n      jump\t// in\n    tag_249:\n        /* \"#utility.yul\":8583:8656   */\n      swap6\n      pop\n        /* \"#utility.yul\":8378:8666   */\n      pop\n        /* \"#utility.yul\":8733:8735   */\n      0x40\n        /* \"#utility.yul\":8722:8731   */\n      dup8\n        /* \"#utility.yul\":8718:8736   */\n      add\n        /* \"#utility.yul\":8705:8737   */\n      calldataload\n        /* \"#utility.yul\":8764:8782   */\n      0xffffffffffffffff\n        /* \"#utility.yul\":8756:8762   */\n      dup2\n        /* \"#utility.yul\":8753:8783   */\n      gt\n        /* \"#utility.yul\":8750:8867   */\n      iszero\n      tag_250\n      jumpi\n        /* \"#utility.yul\":8786:8865   */\n      tag_251\n      tag_105\n      jump\t// in\n    tag_251:\n        /* \"#utility.yul\":8750:8867   */\n    tag_250:\n        /* \"#utility.yul\":8891:8954   */\n      tag_252\n        /* \"#utility.yul\":8946:8953   */\n      dup10\n        /* \"#utility.yul\":8937:8943   */\n      dup3\n        /* \"#utility.yul\":8926:8935   */\n      dup11\n        /* \"#utility.yul\":8922:8944   */\n      add\n        /* \"#utility.yul\":8891:8954   */\n      tag_119\n      jump\t// in\n    tag_252:\n        /* \"#utility.yul\":8881:8954   */\n      swap5\n      pop\n        /* \"#utility.yul\":8676:8964   */\n      pop\n        /* \"#utility.yul\":9031:9033   */\n      0x60\n        /* \"#utility.yul\":9020:9029   */\n      dup8\n        /* \"#utility.yul\":9016:9034   */\n      add\n        /* \"#utility.yul\":9003:9035   */\n      calldataload\n        /* \"#utility.yul\":9062:9080   */\n      0xffffffffffffffff\n        /* \"#utility.yul\":9054:9060   */\n      dup2\n        /* \"#utility.yul\":9051:9081   */\n      gt\n        /* \"#utility.yul\":9048:9165   */\n      iszero\n      tag_253\n      jumpi\n        /* \"#utility.yul\":9084:9163   */\n      tag_254\n      tag_105\n      jump\t// in\n    tag_254:\n        /* \"#utility.yul\":9048:9165   */\n    tag_253:\n        /* \"#utility.yul\":9189:9252   */\n      tag_255\n        /* \"#utility.yul\":9244:9251   */\n      dup10\n        /* \"#utility.yul\":9235:9241   */\n      dup3\n        /* \"#utility.yul\":9224:9233   */\n      dup11\n        /* \"#utility.yul\":9220:9242   */\n      add\n        /* \"#utility.yul\":9189:9252   */\n      tag_119\n      jump\t// in\n    tag_255:\n        /* \"#utility.yul\":9179:9252   */\n      swap4\n      pop\n        /* \"#utility.yul\":8974:9262   */\n      pop\n        /* \"#utility.yul\":9329:9332   */\n      0x80\n        /* \"#utility.yul\":9318:9327   */\n      dup8\n        /* \"#utility.yul\":9314:9333   */\n      add\n        /* \"#utility.yul\":9301:9334   */\n      calldataload\n        /* \"#utility.yul\":9361:9379   */\n      0xffffffffffffffff\n        /* \"#utility.yul\":9353:9359   */\n      dup2\n        /* \"#utility.yul\":9350:9380   */\n      gt\n        /* \"#utility.yul\":9347:9464   */\n      iszero\n      tag_256\n      jumpi\n        /* \"#utility.yul\":9383:9462   */\n      tag_257\n      tag_105\n      jump\t// in\n    tag_257:\n        /* \"#utility.yul\":9347:9464   */\n    tag_256:\n        /* \"#utility.yul\":9488:9551   */\n      tag_258\n        /* \"#utility.yul\":9543:9550   */\n      dup10\n        /* \"#utility.yul\":9534:9540   */\n      dup3\n        /* \"#utility.yul\":9523:9532   */\n      dup11\n        /* \"#utility.yul\":9519:9541   */\n      add\n        /* \"#utility.yul\":9488:9551   */\n      tag_119\n      jump\t// in\n    tag_258:\n        /* \"#utility.yul\":9478:9551   */\n      swap3\n      pop\n        /* \"#utility.yul\":9272:9561   */\n      pop\n        /* \"#utility.yul\":9600:9603   */\n      0xa0\n        /* \"#utility.yul\":9627:9680   */\n      tag_259\n        /* \"#utility.yul\":9672:9679   */\n      dup10\n        /* \"#utility.yul\":9663:9669   */\n      dup3\n        /* \"#utility.yul\":9652:9661   */\n      dup11\n        /* \"#utility.yul\":9648:9670   */\n      add\n        /* \"#utility.yul\":9627:9680   */\n      tag_130\n      jump\t// in\n    tag_259:\n        /* \"#utility.yul\":9617:9680   */\n      swap2\n      pop\n        /* \"#utility.yul\":9571:9690   */\n      pop\n        /* \"#utility.yul\":7920:9697   */\n      swap3\n      swap6\n      pop\n      swap3\n      swap6\n      pop\n      swap3\n      swap6\n      jump\t// out\n        /* \"#utility.yul\":9703:9812   */\n    tag_131:\n        /* \"#utility.yul\":9784:9805   */\n      tag_261\n        /* \"#utility.yul\":9799:9804   */\n      dup2\n        /* \"#utility.yul\":9784:9805   */\n      tag_126\n      jump\t// in\n    tag_261:\n        /* \"#utility.yul\":9779:9782   */\n      dup3\n        /* \"#utility.yul\":9772:9806   */\n      mstore\n        /* \"#utility.yul\":9703:9812   */\n      pop\n      pop\n      jump\t// out\n        /* \"#utility.yul\":9818:10028   */\n    tag_30:\n        /* \"#utility.yul\":9905:9909   */\n      0x00\n        /* \"#utility.yul\":9943:9945   */\n      0x20\n        /* \"#utility.yul\":9932:9941   */\n      dup3\n        /* \"#utility.yul\":9928:9946   */\n      add\n        /* \"#utility.yul\":9920:9946   */\n      swap1\n      pop\n        /* \"#utility.yul\":9956:10021   */\n      tag_263\n        /* \"#utility.yul\":10018:10019   */\n      0x00\n        /* \"#utility.yul\":10007:10016   */\n      dup4\n        /* \"#utility.yul\":10003:10020   */\n      add\n        /* \"#utility.yul\":9994:10000   */\n      dup5\n        /* \"#utility.yul\":9956:10021   */\n      tag_131\n      jump\t// in\n    tag_263:\n        /* \"#utility.yul\":9818:10028   */\n      swap3\n      swap2\n      pop\n      pop\n      jump\t// out\n        /* \"#utility.yul\":10034:10152   */\n    tag_132:\n        /* \"#utility.yul\":10121:10145   */\n      tag_265\n        /* \"#utility.yul\":10139:10144   */\n      dup2\n        /* \"#utility.yul\":10121:10145   */\n      tag_107\n      jump\t// in\n    tag_265:\n        /* \"#utility.yul\":10116:10119   */\n      dup3\n        /* \"#utility.yul\":10109:10146   */\n      mstore\n        /* \"#utility.yul\":10034:10152   */\n      pop\n      pop\n      jump\t// out\n        /* \"#utility.yul\":10158:10380   */\n    tag_34:\n        /* \"#utility.yul\":10251:10255   */\n      0x00\n        /* \"#utility.yul\":10289:10291   */\n      0x20\n        /* \"#utility.yul\":10278:10287   */\n      dup3\n        /* \"#utility.yul\":10274:10292   */\n      add\n        /* \"#utility.yul\":10266:10292   */\n      swap1\n      pop\n        /* \"#utility.yul\":10302:10373   */\n      tag_267\n        /* \"#utility.yul\":10370:10371   */\n      0x00\n        /* \"#utility.yul\":10359:10368   */\n      dup4\n        /* \"#utility.yul\":10355:10372   */\n      add\n        /* \"#utility.yul\":10346:10352   */\n      dup5\n        /* \"#utility.yul\":10302:10373   */\n      tag_132\n      jump\t// in\n    tag_267:\n        /* \"#utility.yul\":10158:10380   */\n      swap3\n      swap2\n      pop\n      pop\n      jump\t// out\n        /* \"#utility.yul\":10386:10555   */\n    tag_133:\n        /* \"#utility.yul\":10470:10481   */\n      0x00\n        /* \"#utility.yul\":10504:10510   */\n      dup3\n        /* \"#utility.yul\":10499:10502   */\n      dup3\n        /* \"#utility.yul\":10492:10511   */\n      mstore\n        /* \"#utility.yul\":10544:10548   */\n      0x20\n        /* \"#utility.yul\":10539:10542   */\n      dup3\n        /* \"#utility.yul\":10535:10549   */\n      add\n        /* \"#utility.yul\":10520:10549   */\n      swap1\n      pop\n        /* \"#utility.yul\":10386:10555   */\n      swap3\n      swap2\n      pop\n      pop\n      jump\t// out\n        /* \"#utility.yul\":10561:10782   */\n    tag_134:\n        /* \"#utility.yul\":10701:10735   */\n      0x4f6e6c792061646d696e2063616e20706572666f726d20746869732061637469\n        /* \"#utility.yul\":10697:10698   */\n      0x00\n        /* \"#utility.yul\":10689:10695   */\n      dup3\n        /* \"#utility.yul\":10685:10699   */\n      add\n        /* \"#utility.yul\":10678:10736   */\n      mstore\n        /* \"#utility.yul\":10770:10774   */\n      0x6f6e000000000000000000000000000000000000000000000000000000000000\n        /* \"#utility.yul\":10765:10767   */\n      0x20\n        /* \"#utility.yul\":10757:10763   */\n      dup3\n        /* \"#utility.yul\":10753:10768   */\n      add\n        /* \"#utility.yul\":10746:10775   */\n      mstore\n        /* \"#utility.yul\":10561:10782   */\n      pop\n      jump\t// out\n        /* \"#utility.yul\":10788:11154   */\n    tag_135:\n        /* \"#utility.yul\":10930:10933   */\n      0x00\n        /* \"#utility.yul\":10951:11018   */\n      tag_271\n        /* \"#utility.yul\":11015:11017   */\n      0x22\n        /* \"#utility.yul\":11010:11013   */\n      dup4\n        /* \"#utility.yul\":10951:11018   */\n      tag_133\n      jump\t// in\n    tag_271:\n        /* \"#utility.yul\":10944:11018   */\n      swap2\n      pop\n        /* \"#utility.yul\":11027:11120   */\n      tag_272\n        /* \"#utility.yul\":11116:11119   */\n      dup3\n        /* \"#utility.yul\":11027:11120   */\n      tag_134\n      jump\t// in\n    tag_272:\n        /* \"#utility.yul\":11145:11147   */\n      0x40\n        /* \"#utility.yul\":11140:11143   */\n      dup3\n        /* \"#utility.yul\":11136:11148   */\n      add\n        /* \"#utility.yul\":11129:11148   */\n      swap1\n      pop\n        /* \"#utility.yul\":10788:11154   */\n      swap2\n      swap1\n      pop\n      jump\t// out\n        /* \"#utility.yul\":11160:11579   */\n    tag_38:\n        /* \"#utility.yul\":11326:11330   */\n      0x00\n        /* \"#utility.yul\":11364:11366   */\n      0x20\n        /* \"#utility.yul\":11353:11362   */\n      dup3\n        /* \"#utility.yul\":11349:11367   */\n      add\n        /* \"#utility.yul\":11341:11367   */\n      swap1\n      pop\n        /* \"#utility.yul\":11413:11422   */\n      dup2\n        /* \"#utility.yul\":11407:11411   */\n      dup2\n        /* \"#utility.yul\":11403:11423   */\n      sub\n        /* \"#utility.yul\":11399:11400   */\n      0x00\n        /* \"#utility.yul\":11388:11397   */\n      dup4\n        /* \"#utility.yul\":11384:11401   */\n      add\n        /* \"#utility.yul\":11377:11424   */\n      mstore\n        /* \"#utility.yul\":11441:11572   */\n      tag_274\n        /* \"#utility.yul\":11567:11571   */\n      dup2\n        /* \"#utility.yul\":11441:11572   */\n      tag_135\n      jump\t// in\n    tag_274:\n        /* \"#utility.yul\":11433:11572   */\n      swap1\n      pop\n        /* \"#utility.yul\":11160:11579   */\n      swap2\n      swap1\n      pop\n      jump\t// out\n        /* \"#utility.yul\":11585:11752   */\n    tag_136:\n        /* \"#utility.yul\":11725:11744   */\n      0x546f7572697374206e6f7420666f756e64000000000000000000000000000000\n        /* \"#utility.yul\":11721:11722   */\n      0x00\n        /* \"#utility.yul\":11713:11719   */\n      dup3\n        /* \"#utility.yul\":11709:11723   */\n      add\n        /* \"#utility.yul\":11702:11745   */\n      mstore\n        /* \"#utility.yul\":11585:11752   */\n      pop\n      jump\t// out\n        /* \"#utility.yul\":11758:12124   */\n    tag_137:\n        /* \"#utility.yul\":11900:11903   */\n      0x00\n        /* \"#utility.yul\":11921:11988   */\n      tag_277\n        /* \"#utility.yul\":11985:11987   */\n      0x11\n        /* \"#utility.yul\":11980:11983   */\n      dup4\n        /* \"#utility.yul\":11921:11988   */\n      tag_133\n      jump\t// in\n    tag_277:\n        /* \"#utility.yul\":11914:11988   */\n      swap2\n      pop\n        /* \"#utility.yul\":11997:12090   */\n      tag_278\n        /* \"#utility.yul\":12086:12089   */\n      dup3\n        /* \"#utility.yul\":11997:12090   */\n      tag_136\n      jump\t// in\n    tag_278:\n        /* \"#utility.yul\":12115:12117   */\n      0x20\n        /* \"#utility.yul\":12110:12113   */\n      dup3\n        /* \"#utility.yul\":12106:12118   */\n      add\n        /* \"#utility.yul\":12099:12118   */\n      swap1\n      pop\n        /* \"#utility.yul\":11758:12124   */\n      swap2\n      swap1\n      pop\n      jump\t// out\n        /* \"#utility.yul\":12130:12549   */\n    tag_42:\n        /* \"#utility.yul\":12296:12300   */\n      0x00\n        /* \"#utility.yul\":12334:12336   */\n      0x20\n        /* \"#utility.yul\":12323:12332   */\n      dup3\n        /* \"#utility.yul\":12319:12337   */\n      add\n        /* \"#utility.yul\":12311:12337   */\n      swap1\n      pop\n        /* \"#utility.yul\":12383:12392   */\n      dup2\n        /* \"#utility.yul\":12377:12381   */\n      dup2\n        /* \"#utility.yul\":12373:12393   */\n      sub\n        /* \"#utility.yul\":12369:12370   */\n      0x00\n        /* \"#utility.yul\":12358:12367   */\n      dup4\n        /* \"#utility.yul\":12354:12371   */\n      add\n        /* \"#utility.yul\":12347:12394   */\n      mstore\n        /* \"#utility.yul\":12411:12542   */\n      tag_280\n        /* \"#utility.yul\":12537:12541   */\n      dup2\n        /* \"#utility.yul\":12411:12542   */\n      tag_137\n      jump\t// in\n    tag_280:\n        /* \"#utility.yul\":12403:12542   */\n      swap1\n      pop\n        /* \"#utility.yul\":12130:12549   */\n      swap2\n      swap1\n      pop\n      jump\t// out\n        /* \"#utility.yul\":12555:12735   */\n    tag_138:\n        /* \"#utility.yul\":12603:12680   */\n      0x4e487b7100000000000000000000000000000000000000000000000000000000\n        /* \"#utility.yul\":12600:12601   */\n      0x00\n        /* \"#utility.yul\":12593:12681   */\n      mstore\n        /* \"#utility.yul\":12700:12704   */\n      0x22\n        /* \"#utility.yul\":12697:12698   */\n      0x04\n        /* \"#utility.yul\":12690:12705   */\n      mstore\n        /* \"#utility.yul\":12724:12728   */\n      0x24\n        /* \"#utility.yul\":12721:12722   */\n      0x00\n        /* \"#utility.yul\":12714:12729   */\n      revert\n        /* \"#utility.yul\":12741:13061   */\n    tag_56:\n        /* \"#utility.yul\":12785:12791   */\n      0x00\n        /* \"#utility.yul\":12822:12823   */\n      0x02\n        /* \"#utility.yul\":12816:12820   */\n      dup3\n        /* \"#utility.yul\":12812:12824   */\n      div\n        /* \"#utility.yul\":12802:12824   */\n      swap1\n      pop\n        /* \"#utility.yul\":12869:12870   */\n      0x01\n        /* \"#utility.yul\":12863:12867   */\n      dup3\n        /* \"#utility.yul\":12859:12871   */\n      and\n        /* \"#utility.yul\":12890:12908   */\n      dup1\n        /* \"#utility.yul\":12880:12961   */\n      tag_283\n      jumpi\n        /* \"#utility.yul\":12946:12950   */\n      0x7f\n        /* \"#utility.yul\":12938:12944   */\n      dup3\n        /* \"#utility.yul\":12934:12951   */\n      and\n        /* \"#utility.yul\":12924:12951   */\n      swap2\n      pop\n        /* \"#utility.yul\":12880:12961   */\n    tag_283:\n        /* \"#utility.yul\":13008:13010   */\n      0x20\n        /* \"#utility.yul\":13000:13006   */\n      dup3\n        /* \"#utility.yul\":12997:13011   */\n      lt\n        /* \"#utility.yul\":12977:12995   */\n      dup2\n        /* \"#utility.yul\":12974:13012   */\n      sub\n        /* \"#utility.yul\":12971:13055   */\n      tag_284\n      jumpi\n        /* \"#utility.yul\":13027:13045   */\n      tag_285\n      tag_138\n      jump\t// in\n    tag_285:\n        /* \"#utility.yul\":12971:13055   */\n    tag_284:\n        /* \"#utility.yul\":12792:13061   */\n      pop\n        /* \"#utility.yul\":12741:13061   */\n      swap2\n      swap1\n      pop\n      jump\t// out\n        /* \"#utility.yul\":13067:13208   */\n    tag_139:\n        /* \"#utility.yul\":13116:13120   */\n      0x00\n        /* \"#utility.yul\":13139:13142   */\n      dup2\n        /* \"#utility.yul\":13131:13142   */\n      swap1\n      pop\n        /* \"#utility.yul\":13162:13165   */\n      dup2\n        /* \"#utility.yul\":13159:13160   */\n      0x00\n        /* \"#utility.yul\":13152:13166   */\n      mstore\n        /* \"#utility.yul\":13196:13200   */\n      0x20\n        /* \"#utility.yul\":13193:13194   */\n      0x00\n        /* \"#utility.yul\":13183:13201   */\n      keccak256\n        /* \"#utility.yul\":13175:13201   */\n      swap1\n      pop\n        /* \"#utility.yul\":13067:13208   */\n      swap2\n      swap1\n      pop\n      jump\t// out\n        /* \"#utility.yul\":13214:13307   */\n    tag_140:\n        /* \"#utility.yul\":13251:13257   */\n      0x00\n        /* \"#utility.yul\":13298:13300   */\n      0x20\n        /* \"#utility.yul\":13293:13295   */\n      0x1f\n        /* \"#utility.yul\":13286:13291   */\n      dup4\n        /* \"#utility.yul\":13282:13296   */\n      add\n        /* \"#utility.yul\":13278:13301   */\n      div\n        /* \"#utility.yul\":13268:13301   */\n      swap1\n      pop\n        /* \"#utility.yul\":13214:13307   */\n      swap2\n      swap1\n      pop\n      jump\t// out\n        /* \"#utility.yul\":13313:13420   */\n    tag_141:\n        /* \"#utility.yul\":13357:13365   */\n      0x00\n        /* \"#utility.yul\":13407:13412   */\n      dup3\n        /* \"#utility.yul\":13401:13405   */\n      dup3\n        /* \"#utility.yul\":13397:13413   */\n      shl\n        /* \"#utility.yul\":13376:13413   */\n      swap1\n      pop\n        /* \"#utility.yul\":13313:13420   */\n      swap3\n      swap2\n      pop\n      pop\n      jump\t// out\n        /* \"#utility.yul\":13426:13819   */\n    tag_142:\n        /* \"#utility.yul\":13495:13501   */\n      0x00\n        /* \"#utility.yul\":13545:13546   */\n      0x08\n        /* \"#utility.yul\":13533:13543   */\n      dup4\n        /* \"#utility.yul\":13529:13547   */\n      mul\n        /* \"#utility.yul\":13568:13665   */\n      tag_290\n        /* \"#utility.yul\":13598:13664   */\n      0xffffffffffffffffffffffffffffffffffffffffffffffffffffffffffffffff\n        /* \"#utility.yul\":13587:13596   */\n      dup3\n        /* \"#utility.yul\":13568:13665   */\n      tag_141\n      jump\t// in\n    tag_290:\n        /* \"#utility.yul\":13686:13725   */\n      tag_291\n        /* \"#utility.yul\":13716:13724   */\n      dup7\n        /* \"#utility.yul\":13705:13714   */\n      dup4\n        /* \"#utility.yul\":13686:13725   */\n      tag_141\n      jump\t// in\n    tag_291:\n        /* \"#utility.yul\":13674:13725   */\n      swap6\n      pop\n        /* \"#utility.yul\":13758:13762   */\n      dup1\n        /* \"#utility.yul\":13754:13763   */\n      not\n        /* \"#utility.yul\":13747:13752   */\n      dup5\n        /* \"#utility.yul\":13743:13764   */\n      and\n        /* \"#utility.yul\":13734:13764   */\n      swap4\n      pop\n        /* \"#utility.yul\":13807:13811   */\n      dup1\n        /* \"#utility.yul\":13797:13805   */\n      dup7\n        /* \"#utility.yul\":13793:13812   */\n      and\n        /* \"#utility.yul\":13786:13791   */\n      dup5\n        /* \"#utility.yul\":13783:13813   */\n      or\n        /* \"#utility.yul\":13773:13813   */\n      swap3\n      pop\n        /* \"#utility.yul\":13502:13819   */\n      pop\n      pop\n        /* \"#utility.yul\":13426:13819   */\n      swap4\n      swap3\n      pop\n      pop\n      pop\n      jump\t// out\n        /* \"#utility.yul\":13825:13885   */\n    tag_143:\n        /* \"#utility.yul\":13853:13856   */\n      0x00\n        /* \"#utility.yul\":13874:13879   */\n      dup2\n        /* \"#utility.yul\":13867:13879   */\n      swap1\n      pop\n        /* \"#utility.yul\":13825:13885   */\n      swap2\n      swap1\n      pop\n      jump\t// out\n        /* \"#utility.yul\":13891:14033   */\n    tag_144:\n        /* \"#utility.yul\":13941:13950   */\n      0x00\n        /* \"#utility.yul\":13974:14027   */\n      tag_294\n        /* \"#utility.yul\":13992:14026   */\n      tag_295\n        /* \"#utility.yul\":14001:14025   */\n      tag_296\n        /* \"#utility.yul\":14019:14024   */\n      dup5\n        /* \"#utility.yul\":14001:14025   */\n      tag_124\n      jump\t// in\n    tag_296:\n        /* \"#utility.yul\":13992:14026   */\n      tag_143\n      jump\t// in\n    tag_295:\n        /* \"#utility.yul\":13974:14027   */\n      tag_124\n      jump\t// in\n    tag_294:\n        /* \"#utility.yul\":13961:14027   */\n      swap1\n      pop\n        /* \"#utility.yul\":13891:14033   */\n      swap2\n      swap1\n      pop\n      jump\t// out\n        /* \"#utility.yul\":14039:14114   */\n    tag_145:\n        /* \"#utility.yul\":14082:14085   */\n      0x00\n        /* \"#utility.yul\":14103:14108   */\n      dup2\n        /* \"#utility.yul\":14096:14108   */\n      swap1\n      pop\n        /* \"#utility.yul\":14039:14114   */\n      swap2\n      swap1\n      pop\n      jump\t// out\n        /* \"#utility.yul\":14120:14389   */\n    tag_146:\n        /* \"#utility.yul\":14230:14269   */\n      tag_299\n        /* \"#utility.yul\":14261:14268   */\n      dup4\n        /* \"#utility.yul\":14230:14269   */\n      tag_144\n      jump\t// in\n    tag_299:\n        /* \"#utility.yul\":14291:14382   */\n      tag_300\n        /* \"#utility.yul\":14340:14381   */\n      tag_301\n        /* \"#utility.yul\":14364:14380   */\n      dup3\n        /* \"#utility.yul\":14340:14381   */\n      tag_145\n      jump\t// in\n    tag_301:\n        /* \"#utility.yul\":14332:14338   */\n      dup5\n        /* \"#utility.yul\":14325:14329   */\n      dup5\n        /* \"#utility.yul\":14319:14330   */\n      sload\n        /* \"#utility.yul\":14291:14382   */\n      tag_142\n      jump\t// in\n    tag_300:\n        /* \"#utility.yul\":14285:14289   */\n      dup3\n        /* \"#utility.yul\":14278:14383   */\n      sstore\n        /* \"#utility.yul\":14196:14389   */\n      pop\n        /* \"#utility.yul\":14120:14389   */\n      pop\n      pop\n      pop\n      jump\t// out\n        /* \"#utility.yul\":14395:14468   */\n    tag_147:\n        /* \"#utility.yul\":14440:14443   */\n      0x00\n        /* \"#utility.yul\":14395:14468   */\n      swap1\n      jump\t// out\n        /* \"#utility.yul\":14474:14663   */\n    tag_148:\n        /* \"#utility.yul\":14551:14583   */\n      tag_304\n      tag_147\n      jump\t// in\n    tag_304:\n        /* \"#utility.yul\":14592:14657   */\n      tag_305\n        /* \"#utility.yul\":14650:14656   */\n      dup2\n        /* \"#utility.yul\":14642:14648   */\n      dup5\n        /* \"#utility.yul\":14636:14640   */\n      dup5\n        /* \"#utility.yul\":14592:14657   */\n      tag_146\n      jump\t// in\n    tag_305:\n        /* \"#utility.yul\":14527:14663   */\n      pop\n        /* \"#utility.yul\":14474:14663   */\n      pop\n      pop\n      jump\t// out\n        /* \"#utility.yul\":14669:14855   */\n    tag_149:\n        /* \"#utility.yul\":14729:14849   */\n    tag_307:\n        /* \"#utility.yul\":14746:14749   */\n      dup2\n        /* \"#utility.yul\":14739:14744   */\n      dup2\n        /* \"#utility.yul\":14736:14750   */\n      lt\n        /* \"#utility.yul\":14729:14849   */\n      iszero\n      tag_309\n      jumpi\n        /* \"#utility.yul\":14800:14839   */\n      tag_310\n        /* \"#utility.yul\":14837:14838   */\n      0x00\n        /* \"#utility.yul\":14830:14835   */\n      dup3\n        /* \"#utility.yul\":14800:14839   */\n      tag_148\n      jump\t// in\n    tag_310:\n        /* \"#utility.yul\":14773:14774   */\n      0x01\n        /* \"#utility.yul\":14766:14771   */\n      dup2\n        /* \"#utility.yul\":14762:14775   */\n      add\n        /* \"#utility.yul\":14753:14775   */\n      swap1\n      pop\n        /* \"#utility.yul\":14729:14849   */\n      jump(tag_307)\n    tag_309:\n        /* \"#utility.yul\":14669:14855   */\n      pop\n      pop\n      jump\t// out\n        /* \"#utility.yul\":14861:15404   */\n    tag_150:\n        /* \"#utility.yul\":14962:14964   */\n      0x1f\n        /* \"#utility.yul\":14957:14960   */\n      dup3\n        /* \"#utility.yul\":14954:14965   */\n      gt\n        /* \"#utility.yul\":14951:15397   */\n      iszero\n      tag_312\n      jumpi\n        /* \"#utility.yul\":14996:15034   */\n      tag_313\n        /* \"#utility.yul\":15028:15033   */\n      dup2\n        /* \"#utility.yul\":14996:15034   */\n      tag_139\n      jump\t// in\n    tag_313:\n        /* \"#utility.yul\":15080:15109   */\n      tag_314\n        /* \"#utility.yul\":15098:15108   */\n      dup5\n        /* \"#utility.yul\":15080:15109   */\n      tag_140\n      jump\t// in\n    tag_314:\n        /* \"#utility.yul\":15070:15078   */\n      dup2\n        /* \"#utility.yul\":15066:15110   */\n      add\n        /* \"#utility.yul\":15263:15265   */\n      0x20\n        /* \"#utility.yul\":15251:15261   */\n      dup6\n        /* \"#utility.yul\":15248:15266   */\n      lt\n        /* \"#utility.yul\":15245:15294   */\n      iszero\n      tag_315\n      jumpi\n        /* \"#utility.yul\":15284:15292   */\n      dup2\n        /* \"#utility.yul\":15269:15292   */\n      swap1\n      pop\n        /* \"#utility.yul\":15245:15294   */\n    tag_315:\n        /* \"#utility.yul\":15307:15387   */\n      tag_316\n        /* \"#utility.yul\":15363:15385   */\n      tag_317\n        /* \"#utility.yul\":15381:15384   */\n      dup6\n        /* \"#utility.yul\":15363:15385   */\n      tag_140\n      jump\t// in\n    tag_317:\n        /* \"#utility.yul\":15353:15361   */\n      dup4\n        /* \"#utility.yul\":15349:15386   */\n      add\n        /* \"#utility.yul\":15336:15347   */\n      dup3\n        /* \"#utility.yul\":15307:15387   */\n      tag_149\n      jump\t// in\n    tag_316:\n        /* \"#utility.yul\":14966:15397   */\n      pop\n      pop\n        /* \"#utility.yul\":14951:15397   */\n    tag_312:\n        /* \"#utility.yul\":14861:15404   */\n      pop\n      pop\n      pop\n      jump\t// out\n        /* \"#utility.yul\":15410:15527   */\n    tag_151:\n        /* \"#utility.yul\":15464:15472   */\n      0x00\n        /* \"#utility.yul\":15514:15519   */\n      dup3\n        /* \"#utility.yul\":15508:15512   */\n      dup3\n        /* \"#utility.yul\":15504:15520   */\n      shr\n        /* \"#utility.yul\":15483:15520   */\n      swap1\n      pop\n        /* \"#utility.yul\":15410:15527   */\n      swap3\n      swap2\n      pop\n      pop\n      jump\t// out\n        /* \"#utility.yul\":15533:15702   */\n    tag_152:\n        /* \"#utility.yul\":15577:15583   */\n      0x00\n        /* \"#utility.yul\":15610:15661   */\n      tag_320\n        /* \"#utility.yul\":15658:15659   */\n      0x00\n        /* \"#utility.yul\":15654:15660   */\n      not\n        /* \"#utility.yul\":15646:15651   */\n      dup5\n        /* \"#utility.yul\":15643:15644   */\n      0x08\n        /* \"#utility.yul\":15639:15652   */\n      mul\n        /* \"#utility.yul\":15610:15661   */\n      tag_151\n      jump\t// in\n    tag_320:\n        /* \"#utility.yul\":15606:15662   */\n      not\n        /* \"#utility.yul\":15691:15695   */\n      dup1\n        /* \"#utility.yul\":15685:15689   */\n      dup4\n        /* \"#utility.yul\":15681:15696   */\n      and\n        /* \"#utility.yul\":15671:15696   */\n      swap2\n      pop\n        /* \"#utility.yul\":15584:15702   */\n      pop\n        /* \"#utility.yul\":15533:15702   */\n      swap3\n      swap2\n      pop\n      pop\n      jump\t// out\n        /* \"#utility.yul\":15707:16002   */\n    tag_153:\n        /* \"#utility.yul\":15783:15787   */\n      0x00\n        /* \"#utility.yul\":15929:15958   */\n      tag_322\n        /* \"#utility.yul\":15954:15957   */\n      dup4\n        /* \"#utility.yul\":15948:15952   */\n      dup4\n        /* \"#utility.yul\":15929:15958   */\n      tag_152\n      jump\t// in\n    tag_322:\n        /* \"#utility.yul\":15921:15958   */\n      swap2\n      pop\n        /* \"#utility.yul\":15991:15994   */\n      dup3\n        /* \"#utility.yul\":15988:15989   */\n      0x02\n        /* \"#utility.yul\":15984:15995   */\n      mul\n        /* \"#utility.yul\":15978:15982   */\n      dup3\n        /* \"#utility.yul\":15975:15996   */\n      or\n        /* \"#utility.yul\":15967:15996   */\n      swap1\n      pop\n        /* \"#utility.yul\":15707:16002   */\n      swap3\n      swap2\n      pop\n      pop\n      jump\t// out\n        /* \"#utility.yul\":16007:17402   */\n    tag_45:\n        /* \"#utility.yul\":16124:16161   */\n      tag_324\n        /* \"#utility.yul\":16157:16160   */\n      dup3\n        /* \"#utility.yul\":16124:16161   */\n      tag_120\n      jump\t// in\n    tag_324:\n        /* \"#utility.yul\":16226:16244   */\n      0xffffffffffffffff\n        /* \"#utility.yul\":16218:16224   */\n      dup2\n        /* \"#utility.yul\":16215:16245   */\n      gt\n        /* \"#utility.yul\":16212:16268   */\n      iszero\n      tag_325\n      jumpi\n        /* \"#utility.yul\":16248:16266   */\n      tag_326\n      tag_113\n      jump\t// in\n    tag_326:\n        /* \"#utility.yul\":16212:16268   */\n    tag_325:\n        /* \"#utility.yul\":16292:16330   */\n      tag_327\n        /* \"#utility.yul\":16324:16328   */\n      dup3\n        /* \"#utility.yul\":16318:16329   */\n      sload\n        /* \"#utility.yul\":16292:16330   */\n      tag_56\n      jump\t// in\n    tag_327:\n        /* \"#utility.yul\":16377:16444   */\n      tag_328\n        /* \"#utility.yul\":16437:16443   */\n      dup3\n        /* \"#utility.yul\":16429:16435   */\n      dup3\n        /* \"#utility.yul\":16423:16427   */\n      dup6\n        /* \"#utility.yul\":16377:16444   */\n      tag_150\n      jump\t// in\n    tag_328:\n        /* \"#utility.yul\":16471:16472   */\n      0x00\n        /* \"#utility.yul\":16495:16499   */\n      0x20\n        /* \"#utility.yul\":16482:16499   */\n      swap1\n      pop\n        /* \"#utility.yul\":16527:16529   */\n      0x1f\n        /* \"#utility.yul\":16519:16525   */\n      dup4\n        /* \"#utility.yul\":16516:16530   */\n      gt\n        /* \"#utility.yul\":16544:16545   */\n      0x01\n        /* \"#utility.yul\":16539:17157   */\n      dup2\n      eq\n      tag_330\n      jumpi\n        /* \"#utility.yul\":17201:17202   */\n      0x00\n        /* \"#utility.yul\":17218:17224   */\n      dup5\n        /* \"#utility.yul\":17215:17292   */\n      iszero\n      tag_331\n      jumpi\n        /* \"#utility.yul\":17267:17276   */\n      dup3\n        /* \"#utility.yul\":17262:17265   */\n      dup8\n        /* \"#utility.yul\":17258:17277   */\n      add\n        /* \"#utility.yul\":17252:17278   */\n      mload\n        /* \"#utility.yul\":17243:17278   */\n      swap1\n      pop\n        /* \"#utility.yul\":17215:17292   */\n    tag_331:\n        /* \"#utility.yul\":17318:17385   */\n      tag_332\n        /* \"#utility.yul\":17378:17384   */\n      dup6\n        /* \"#utility.yul\":17371:17376   */\n      dup3\n        /* \"#utility.yul\":17318:17385   */\n      tag_153\n      jump\t// in\n    tag_332:\n        /* \"#utility.yul\":17312:17316   */\n      dup7\n        /* \"#utility.yul\":17305:17386   */\n      sstore\n        /* \"#utility.yul\":17174:17396   */\n      pop\n        /* \"#utility.yul\":16509:17396   */\n      jump(tag_329)\n        /* \"#utility.yul\":16539:17157   */\n    tag_330:\n        /* \"#utility.yul\":16591:16595   */\n      0x1f\n        /* \"#utility.yul\":16587:16596   */\n      not\n        /* \"#utility.yul\":16579:16585   */\n      dup5\n        /* \"#utility.yul\":16575:16597   */\n      and\n        /* \"#utility.yul\":16625:16662   */\n      tag_333\n        /* \"#utility.yul\":16657:16661   */\n      dup7\n        /* \"#utility.yul\":16625:16662   */\n      tag_139\n      jump\t// in\n    tag_333:\n        /* \"#utility.yul\":16684:16685   */\n      0x00\n        /* \"#utility.yul\":16698:16906   */\n    tag_334:\n        /* \"#utility.yul\":16712:16719   */\n      dup3\n        /* \"#utility.yul\":16709:16710   */\n      dup2\n        /* \"#utility.yul\":16706:16720   */\n      lt\n        /* \"#utility.yul\":16698:16906   */\n      iszero\n      tag_336\n      jumpi\n        /* \"#utility.yul\":16791:16800   */\n      dup5\n        /* \"#utility.yul\":16786:16789   */\n      dup10\n        /* \"#utility.yul\":16782:16801   */\n      add\n        /* \"#utility.yul\":16776:16802   */\n      mload\n        /* \"#utility.yul\":16768:16774   */\n      dup3\n        /* \"#utility.yul\":16761:16803   */\n      sstore\n        /* \"#utility.yul\":16842:16843   */\n      0x01\n        /* \"#utility.yul\":16834:16840   */\n      dup3\n        /* \"#utility.yul\":16830:16844   */\n      add\n        /* \"#utility.yul\":16820:16844   */\n      swap2\n      pop\n        /* \"#utility.yul\":16889:16891   */\n      0x20\n        /* \"#utility.yul\":16878:16887   */\n      dup6\n        /* \"#utility.yul\":16874:16892   */\n      add\n        /* \"#utility.yul\":16861:16892   */\n      swap5\n      pop\n        /* \"#utility.yul\":16735:16739   */\n      0x20\n        /* \"#utility.yul\":16732:16733   */\n      dup2\n        /* \"#utility.yul\":16728:16740   */\n      add\n        /* \"#utility.yul\":16723:16740   */\n      swap1\n      pop\n        /* \"#utility.yul\":16698:16906   */\n      jump(tag_334)\n    tag_336:\n        /* \"#utility.yul\":16934:16940   */\n      dup7\n        /* \"#utility.yul\":16925:16932   */\n      dup4\n        /* \"#utility.yul\":16922:16941   */\n      lt\n        /* \"#utility.yul\":16919:17098   */\n      iszero\n      tag_337\n      jumpi\n        /* \"#utility.yul\":16992:17001   */\n      dup5\n        /* \"#utility.yul\":16987:16990   */\n      dup10\n        /* \"#utility.yul\":16983:17002   */\n      add\n        /* \"#utility.yul\":16977:17003   */\n      mload\n        /* \"#utility.yul\":17035:17083   */\n      tag_338\n        /* \"#utility.yul\":17077:17081   */\n      0x1f\n        /* \"#utility.yul\":17069:17075   */\n      dup10\n        /* \"#utility.yul\":17065:17082   */\n      and\n        /* \"#utility.yul\":17054:17063   */\n      dup3\n        /* \"#utility.yul\":17035:17083   */\n      tag_152\n      jump\t// in\n    tag_338:\n        /* \"#utility.yul\":17027:17033   */\n      dup4\n        /* \"#utility.yul\":17020:17084   */\n      sstore\n        /* \"#utility.yul\":16942:17098   */\n      pop\n        /* \"#utility.yul\":16919:17098   */\n    tag_337:\n        /* \"#utility.yul\":17144:17145   */\n      0x01\n        /* \"#utility.yul\":17140:17141   */\n      0x02\n        /* \"#utility.yul\":17132:17138   */\n      dup9\n        /* \"#utility.yul\":17128:17142   */\n      mul\n        /* \"#utility.yul\":17124:17146   */\n      add\n        /* \"#utility.yul\":17118:17122   */\n      dup9\n        /* \"#utility.yul\":17111:17147   */\n      sstore\n        /* \"#utility.yul\":16546:17157   */\n      pop\n      pop\n      pop\n        /* \"#utility.yul\":16509:17396   */\n    tag_329:\n      pop\n        /* \"#utility.yul\":16099:17402   */\n      pop\n      pop\n      pop\n        /* \"#utility.yul\":16007:17402   */\n      pop\n      pop\n      jump\t// out\n        /* \"#utility.yul\":17408:17785   */\n    tag_154:\n        /* \"#utility.yul\":17496:17499   */\n      0x00\n        /* \"#utility.yul\":17524:17563   */\n      tag_340\n        /* \"#utility.yul\":17557:17562   */\n      dup3\n        /* \"#utility.yul\":17524:17563   */\n      tag_120\n      jump\t// in\n    tag_340:\n        /* \"#utility.yul\":17579:17650   */\n      tag_341\n        /* \"#utility.yul\":17643:17649   */\n      dup2\n        /* \"#utility.yul\":17638:17641   */\n      dup6\n        /* \"#utility.yul\":17579:17650   */\n      tag_133\n      jump\t// in\n    tag_341:\n        /* \"#utility.yul\":17572:17650   */\n      swap4\n      pop\n        /* \"#utility.yul\":17659:17724   */\n      tag_342\n        /* \"#utility.yul\":17717:17723   */\n      dup2\n        /* \"#utility.yul\":17712:17715   */\n      dup6\n        /* \"#utility.yul\":17705:17709   */\n      0x20\n        /* \"#utility.yul\":17698:17703   */\n      dup7\n        /* \"#utility.yul\":17694:17710   */\n      add\n        /* \"#utility.yul\":17659:17724   */\n      tag_122\n      jump\t// in\n    tag_342:\n        /* \"#utility.yul\":17749:17778   */\n      tag_343\n        /* \"#utility.yul\":17771:17777   */\n      dup2\n        /* \"#utility.yul\":17749:17778   */\n      tag_112\n      jump\t// in\n    tag_343:\n        /* \"#utility.yul\":17744:17747   */\n      dup5\n        /* \"#utility.yul\":17740:17779   */\n      add\n        /* \"#utility.yul\":17733:17779   */\n      swap2\n      pop\n        /* \"#utility.yul\":17500:17785   */\n      pop\n        /* \"#utility.yul\":17408:17785   */\n      swap3\n      swap2\n      pop\n      pop\n      jump\t// out\n        /* \"#utility.yul\":17791:18305   */\n    tag_48:\n        /* \"#utility.yul\":17952:17956   */\n      0x00\n        /* \"#utility.yul\":17990:17992   */\n      0x40\n        /* \"#utility.yul\":17979:17988   */\n      dup3\n        /* \"#utility.yul\":17975:17993   */\n      add\n        /* \"#utility.yul\":17967:17993   */\n      swap1\n      pop\n        /* \"#utility.yul\":18039:18048   */\n      dup2\n        /* \"#utility.yul\":18033:18037   */\n      dup2\n        /* \"#utility.yul\":18029:18049   */\n      sub\n        /* \"#utility.yul\":18025:18026   */\n      0x00\n        /* \"#utility.yul\":18014:18023   */\n      dup4\n        /* \"#utility.yul\":18010:18027   */\n      add\n        /* \"#utility.yul\":18003:18050   */\n      mstore\n        /* \"#utility.yul\":18067:18145   */\n      tag_345\n        /* \"#utility.yul\":18140:18144   */\n      dup2\n        /* \"#utility.yul\":18131:18137   */\n      dup6\n        /* \"#utility.yul\":18067:18145   */\n      tag_154\n      jump\t// in\n    tag_345:\n        /* \"#utility.yul\":18059:18145   */\n      swap1\n      pop\n        /* \"#utility.yul\":18192:18201   */\n      dup2\n        /* \"#utility.yul\":18186:18190   */\n      dup2\n        /* \"#utility.yul\":18182:18202   */\n      sub\n        /* \"#utility.yul\":18177:18179   */\n      0x20\n        /* \"#utility.yul\":18166:18175   */\n      dup4\n        /* \"#utility.yul\":18162:18180   */\n      add\n        /* \"#utility.yul\":18155:18203   */\n      mstore\n        /* \"#utility.yul\":18220:18298   */\n      tag_346\n        /* \"#utility.yul\":18293:18297   */\n      dup2\n        /* \"#utility.yul\":18284:18290   */\n      dup5\n        /* \"#utility.yul\":18220:18298   */\n      tag_154\n      jump\t// in\n    tag_346:\n        /* \"#utility.yul\":18212:18298   */\n      swap1\n      pop\n        /* \"#utility.yul\":17791:18305   */\n      swap4\n      swap3\n      pop\n      pop\n      pop\n      jump\t// out\n        /* \"#utility.yul\":18311:18487   */\n    tag_155:\n        /* \"#utility.yul\":18451:18479   */\n      0x546f757269737420616c72656164792072656769737465726564000000000000\n        /* \"#utility.yul\":18447:18448   */\n      0x00\n        /* \"#utility.yul\":18439:18445   */\n      dup3\n        /* \"#utility.yul\":18435:18449   */\n      add\n        /* \"#utility.yul\":18428:18480   */\n      mstore\n        /* \"#utility.yul\":18311:18487   */\n      pop\n      jump\t// out\n        /* \"#utility.yul\":18493:18859   */\n    tag_156:\n        /* \"#utility.yul\":18635:18638   */\n      0x00\n        /* \"#utility.yul\":18656:18723   */\n      tag_349\n        /* \"#utility.yul\":18720:18722   */\n      0x1a\n        /* \"#utility.yul\":18715:18718   */\n      dup4\n        /* \"#utility.yul\":18656:18723   */\n      tag_133\n      jump\t// in\n    tag_349:\n        /* \"#utility.yul\":18649:18723   */\n      swap2\n      pop\n        /* \"#utility.yul\":18732:18825   */\n      tag_350\n        /* \"#utility.yul\":18821:18824   */\n      dup3\n        /* \"#utility.yul\":18732:18825   */\n      tag_155\n      jump\t// in\n    tag_350:\n        /* \"#utility.yul\":18850:18852   */\n      0x20\n        /* \"#utility.yul\":18845:18848   */\n      dup3\n        /* \"#utility.yul\":18841:18853   */\n      add\n        /* \"#utility.yul\":18834:18853   */\n      swap1\n      pop\n        /* \"#utility.yul\":18493:18859   */\n      swap2\n      swap1\n      pop\n      jump\t// out\n        /* \"#utility.yul\":18865:19284   */\n    tag_89:\n        /* \"#utility.yul\":19031:19035   */\n      0x00\n        /* \"#utility.yul\":19069:19071   */\n      0x20\n        /* \"#utility.yul\":19058:19067   */\n      dup3\n        /* \"#utility.yul\":19054:19072   */\n      add\n        /* \"#utility.yul\":19046:19072   */\n      swap1\n      pop\n        /* \"#utility.yul\":19118:19127   */\n      dup2\n        /* \"#utility.yul\":19112:19116   */\n      dup2\n        /* \"#utility.yul\":19108:19128   */\n      sub\n        /* \"#utility.yul\":19104:19105   */\n      0x00\n        /* \"#utility.yul\":19093:19102   */\n      dup4\n        /* \"#utility.yul\":19089:19106   */\n      add\n        /* \"#utility.yul\":19082:19129   */\n      mstore\n        /* \"#utility.yul\":19146:19277   */\n      tag_352\n        /* \"#utility.yul\":19272:19276   */\n      dup2\n        /* \"#utility.yul\":19146:19277   */\n      tag_156\n      jump\t// in\n    tag_352:\n        /* \"#utility.yul\":19138:19277   */\n      swap1\n      pop\n        /* \"#utility.yul\":18865:19284   */\n      swap2\n      swap1\n      pop\n      jump\t// out\n        /* \"#utility.yul\":19290:19468   */\n    tag_157:\n        /* \"#utility.yul\":19430:19460   */\n      0x457870697279206d75737420626520696e207468652066757475726500000000\n        /* \"#utility.yul\":19426:19427   */\n      0x00\n        /* \"#utility.yul\":19418:19424   */\n      dup3\n        /* \"#utility.yul\":19414:19428   */\n      add\n        /* \"#utility.yul\":19407:19461   */\n      mstore\n        /* \"#utility.yul\":19290:19468   */\n      pop\n      jump\t// out\n        /* \"#utility.yul\":19474:19840   */\n    tag_158:\n        /* \"#utility.yul\":19616:19619   */\n      0x00\n        /* \"#utility.yul\":19637:19704   */\n      tag_355\n        /* \"#utility.yul\":19701:19703   */\n      0x1c\n        /* \"#utility.yul\":19696:19699   */\n      dup4\n        /* \"#utility.yul\":19637:19704   */\n      tag_133\n      jump\t// in\n    tag_355:\n        /* \"#utility.yul\":19630:19704   */\n      swap2\n      pop\n        /* \"#utility.yul\":19713:19806   */\n      tag_356\n        /* \"#utility.yul\":19802:19805   */\n      dup3\n        /* \"#utility.yul\":19713:19806   */\n      tag_157\n      jump\t// in\n    tag_356:\n        /* \"#utility.yul\":19831:19833   */\n      0x20\n        /* \"#utility.yul\":19826:19829   */\n      dup3\n        /* \"#utility.yul\":19822:19834   */\n      add\n        /* \"#utility.yul\":19815:19834   */\n      swap1\n      pop\n        /* \"#utility.yul\":19474:19840   */\n      swap2\n      swap1\n      pop\n      jump\t// out\n        /* \"#utility.yul\":19846:20265   */\n    tag_92:\n        /* \"#utility.yul\":20012:20016   */\n      0x00\n        /* \"#utility.yul\":20050:20052   */\n      0x20\n        /* \"#utility.yul\":20039:20048   */\n      dup3\n        /* \"#utility.yul\":20035:20053   */\n      add\n        /* \"#utility.yul\":20027:20053   */\n      swap1\n      pop\n        /* \"#utility.yul\":20099:20108   */\n      dup2\n        /* \"#utility.yul\":20093:20097   */\n      dup2\n        /* \"#utility.yul\":20089:20109   */\n      sub\n        /* \"#utility.yul\":20085:20086   */\n      0x00\n        /* \"#utility.yul\":20074:20083   */\n      dup4\n        /* \"#utility.yul\":20070:20087   */\n      add\n        /* \"#utility.yul\":20063:20110   */\n      mstore\n        /* \"#utility.yul\":20127:20258   */\n      tag_358\n        /* \"#utility.yul\":20253:20257   */\n      dup2\n        /* \"#utility.yul\":20127:20258   */\n      tag_158\n      jump\t// in\n    tag_358:\n        /* \"#utility.yul\":20119:20258   */\n      swap1\n      pop\n        /* \"#utility.yul\":19846:20265   */\n      swap2\n      swap1\n      pop\n      jump\t// out\n        /* \"#utility.yul\":20271:20389   */\n    tag_159:\n        /* \"#utility.yul\":20358:20382   */\n      tag_360\n        /* \"#utility.yul\":20376:20381   */\n      dup2\n        /* \"#utility.yul\":20358:20382   */\n      tag_124\n      jump\t// in\n    tag_360:\n        /* \"#utility.yul\":20353:20356   */\n      dup3\n        /* \"#utility.yul\":20346:20383   */\n      mstore\n        /* \"#utility.yul\":20271:20389   */\n      pop\n      pop\n      jump\t// out\n        /* \"#utility.yul\":20395:20818   */\n    tag_98:\n        /* \"#utility.yul\":20536:20540   */\n      0x00\n        /* \"#utility.yul\":20574:20576   */\n      0x40\n        /* \"#utility.yul\":20563:20572   */\n      dup3\n        /* \"#utility.yul\":20559:20577   */\n      add\n        /* \"#utility.yul\":20551:20577   */\n      swap1\n      pop\n        /* \"#utility.yul\":20623:20632   */\n      dup2\n        /* \"#utility.yul\":20617:20621   */\n      dup2\n        /* \"#utility.yul\":20613:20633   */\n      sub\n        /* \"#utility.yul\":20609:20610   */\n      0x00\n        /* \"#utility.yul\":20598:20607   */\n      dup4\n        /* \"#utility.yul\":20594:20611   */\n      add\n        /* \"#utility.yul\":20587:20634   */\n      mstore\n        /* \"#utility.yul\":20651:20729   */\n      tag_362\n        /* \"#utility.yul\":20724:20728   */\n      dup2\n        /* \"#utility.yul\":20715:20721   */\n      dup6\n        /* \"#utility.yul\":20651:20729   */\n      tag_154\n      jump\t// in\n    tag_362:\n        /* \"#utility.yul\":20643:20729   */\n      swap1\n      pop\n        /* \"#utility.yul\":20739:20811   */\n      tag_363\n        /* \"#utility.yul\":20807:20809   */\n      0x20\n        /* \"#utility.yul\":20796:20805   */\n      dup4\n        /* \"#utility.yul\":20792:20810   */\n      add\n        /* \"#utility.yul\":20783:20789   */\n      dup5\n        /* \"#utility.yul\":20739:20811   */\n      tag_159\n      jump\t// in\n    tag_363:\n        /* \"#utility.yul\":20395:20818   */\n      swap4\n      swap3\n      pop\n      pop\n      pop\n      jump\t// out\n\n    auxdata: 0xa26469706673582212208468abc9f8f567d4dbaee49135ebb335792beeee724dc6bfabeddf359598020964736f6c634300081e0033\n}\n",
    "bytecode": {
      "linkReferences": {},
      "object": "6080604052348015600f57600080fd5b5033600160006101000a81548173ffffffffffffffffffffffffffffffffffffffff021916908373ffffffffffffffffffffffffffffffffffffffff16021790555061173e806100606000396000f3fe608060405234801561001057600080fd5b50600436106100625760003560e01c80631db925b014610067578063bf33cd4a14610083578063c979715d146100b3578063d3c50c8c146100cf578063da836fa5146100eb578063f851a4401461011b575b600080fd5b610081600480360381019061007c9190610dec565b610139565b005b61009d60048036038101906100989190610e77565b61034c565b6040516100aa9190610ff5565b60405180910390f35b6100cd60048036038101906100c89190610e77565b6106a1565b005b6100e960048036038101906100e49190611043565b61084d565b005b61010560048036038101906101009190610e77565b610af9565b604051610112919061114f565b60405180910390f35b610123610bd6565b6040516101309190611179565b60405180910390f35b600160009054906101000a900473ffffffffffffffffffffffffffffffffffffffff1673ffffffffffffffffffffffffffffffffffffffff163373ffffffffffffffffffffffffffffffffffffffff16146101c9576040517f08c379a00000000000000000000000000000000000000000000000000000000081526004016101c090611217565b60405180910390fd5b826000808273ffffffffffffffffffffffffffffffffffffffff1673ffffffffffffffffffffffffffffffffffffffff16815260200190815260200160002060050160009054906101000a900460ff16610258576040517f08c379a000000000000000000000000000000000000000000000000000000000815260040161024f90611283565b60405180910390fd5b826000808673ffffffffffffffffffffffffffffffffffffffff1673ffffffffffffffffffffffffffffffffffffffff16815260200190815260200160002060020190816102a691906114af565b50816000808673ffffffffffffffffffffffffffffffffffffffff1673ffffffffffffffffffffffffffffffffffffffff16815260200190815260200160002060030190816102f591906114af565b508373ffffffffffffffffffffffffffffffffffffffff167fcfd2515814a3cc641c87c8e40ff4681c4ada74a7357a0ccde5a45b1bde0ec107848460405161033e9291906115ba565b60405180910390a250505050565b610354610bfc565b816000808273ffffffffffffffffffffffffffffffffffffffff1673ffffffffffffffffffffffffffffffffffffffff16815260200190815260200160002060050160009054906101000a900460ff166103e3576040517f08c379a00000000000000000000000000000000000000000000000000000000081526004016103da90611283565b60405180910390fd5b6000808473ffffffffffffffffffffffffffffffffffffffff1673ffffffffffffffffffffffffffffffffffffffff1681526020019081526020016000206040518060c001604052908160008201805461043c906112d2565b80601f0160208091040260200160405190810160405280929190818152602001828054610468906112d2565b80156104b55780601f1061048a576101008083540402835291602001916104b5565b820191906000526020600020905b81548152906001019060200180831161049857829003601f168201915b505050505081526020016001820180546104ce906112d2565b80601f01602080910402602001604051908101604052809291908181526020018280546104fa906112d2565b80156105475780601f1061051c57610100808354040283529160200191610547565b820191906000526020600020905b81548152906001019060200180831161052a57829003601f168201915b50505050508152602001600282018054610560906112d2565b80601f016020809104026020016040519081016040528092919081815260200182805461058c906112d2565b80156105d95780601f106105ae576101008083540402835291602001916105d9565b820191906000526020600020905b8154815290600101906020018083116105bc57829003601f168201915b505050505081526020016003820180546105f2906112d2565b80601f016020809104026020016040519081016040528092919081815260200182805461061e906112d2565b801561066b5780601f106106405761010080835404028352916020019161066b565b820191906000526020600020905b81548152906001019060200180831161064e57829003601f168201915b50505050508152602001600482015481526020016005820160009054906101000a900460ff161515151581525050915050919050565b600160009054906101000a900473ffffffffffffffffffffffffffffffffffffffff1673ffffffffffffffffffffffffffffffffffffffff163373ffffffffffffffffffffffffffffffffffffffff1614610731576040517f08c379a000000000000000000000000000000000000000000000000000000000815260040161072890611217565b60405180910390fd5b806000808273ffffffffffffffffffffffffffffffffffffffff1673ffffffffffffffffffffffffffffffffffffffff16815260200190815260200160002060050160009054906101000a900460ff166107c0576040517f08c379a00000000000000000000000000000000000000000000000000000000081526004016107b790611283565b60405180910390fd5b426000808473ffffffffffffffffffffffffffffffffffffffff1673ffffffffffffffffffffffffffffffffffffffff168152602001908152602001600020600401819055508173ffffffffffffffffffffffffffffffffffffffff167f415e3ac1c97757466c8cbcfae5bd2e6c72a48551aec284290f32c6c33e6263fb60405160405180910390a25050565b600160009054906101000a900473ffffffffffffffffffffffffffffffffffffffff1673ffffffffffffffffffffffffffffffffffffffff163373ffffffffffffffffffffffffffffffffffffffff16146108dd576040517f08c379a00000000000000000000000000000000000000000000000000000000081526004016108d490611217565b60405180910390fd5b6000808773ffffffffffffffffffffffffffffffffffffffff1673ffffffffffffffffffffffffffffffffffffffff16815260200190815260200160002060050160009054906101000a900460ff161561096c576040517f08c379a00000000000000000000000000000000000000000000000000000000081526004016109639061163d565b60405180910390fd5b4281116109ae576040517f08c379a00000000000000000000000000000000000000000000000000000000081526004016109a5906116a9565b60405180910390fd5b6040518060c00160405280868152602001858152602001848152602001838152602001828152602001600115158152506000808873ffffffffffffffffffffffffffffffffffffffff1673ffffffffffffffffffffffffffffffffffffffff1681526020019081526020016000206000820151816000019081610a3191906114af565b506020820151816001019081610a4791906114af565b506040820151816002019081610a5d91906114af565b506060820151816003019081610a7391906114af565b506080820151816004015560a08201518160050160006101000a81548160ff0219169083151502179055509050508573ffffffffffffffffffffffffffffffffffffffff167f8e3413ce2e0caf9329bcbeaad68d2f5b50e098839b5efd33372014c1ba0021e68683604051610ae99291906116d8565b60405180910390a2505050505050565b6000816000808273ffffffffffffffffffffffffffffffffffffffff1673ffffffffffffffffffffffffffffffffffffffff16815260200190815260200160002060050160009054906101000a900460ff16610b8a576040517f08c379a0000000000000000000000000000000000000000000000000000000008152600401610b8190611283565b60405180910390fd5b426000808573ffffffffffffffffffffffffffffffffffffffff1673ffffffffffffffffffffffffffffffffffffffff1681526020019081526020016000206004015411915050919050565b600160009054906101000a900473ffffffffffffffffffffffffffffffffffffffff1681565b6040518060c0016040528060608152602001606081526020016060815260200160608152602001600081526020016000151581525090565b6000604051905090565b600080fd5b600080fd5b600073ffffffffffffffffffffffffffffffffffffffff82169050919050565b6000610c7382610c48565b9050919050565b610c8381610c68565b8114610c8e57600080fd5b50565b600081359050610ca081610c7a565b92915050565b600080fd5b600080fd5b6000601f19601f8301169050919050565b7f4e487b7100000000000000000000000000000000000000000000000000000000600052604160045260246000fd5b610cf982610cb0565b810181811067ffffffffffffffff82111715610d1857610d17610cc1565b5b80604052505050565b6000610d2b610c34565b9050610d378282610cf0565b919050565b600067ffffffffffffffff821115610d5757610d56610cc1565b5b610d6082610cb0565b9050602081019050919050565b82818337600083830152505050565b6000610d8f610d8a84610d3c565b610d21565b905082815260208101848484011115610dab57610daa610cab565b5b610db6848285610d6d565b509392505050565b600082601f830112610dd357610dd2610ca6565b5b8135610de3848260208601610d7c565b91505092915050565b600080600060608486031215610e0557610e04610c3e565b5b6000610e1386828701610c91565b935050602084013567ffffffffffffffff811115610e3457610e33610c43565b5b610e4086828701610dbe565b925050604084013567ffffffffffffffff811115610e6157610e60610c43565b5b610e6d86828701610dbe565b9150509250925092565b600060208284031215610e8d57610e8c610c3e565b5b6000610e9b84828501610c91565b91505092915050565b600081519050919050565b600082825260208201905092915050565b60005b83811015610ede578082015181840152602081019050610ec3565b60008484015250505050565b6000610ef582610ea4565b610eff8185610eaf565b9350610f0f818560208601610ec0565b610f1881610cb0565b840191505092915050565b6000819050919050565b610f3681610f23565b82525050565b60008115159050919050565b610f5181610f3c565b82525050565b600060c0830160008301518482036000860152610f748282610eea565b91505060208301518482036020860152610f8e8282610eea565b91505060408301518482036040860152610fa88282610eea565b91505060608301518482036060860152610fc28282610eea565b9150506080830151610fd76080860182610f2d565b5060a0830151610fea60a0860182610f48565b508091505092915050565b6000602082019050818103600083015261100f8184610f57565b905092915050565b61102081610f23565b811461102b57600080fd5b50565b60008135905061103d81611017565b92915050565b60008060008060008060c087890312156110605761105f610c3e565b5b600061106e89828a01610c91565b965050602087013567ffffffffffffffff81111561108f5761108e610c43565b5b61109b89828a01610dbe565b955050604087013567ffffffffffffffff8111156110bc576110bb610c43565b5b6110c889828a01610dbe565b945050606087013567ffffffffffffffff8111156110e9576110e8610c43565b5b6110f589828a01610dbe565b935050608087013567ffffffffffffffff81111561111657611115610c43565b5b61112289828a01610dbe565b92505060a061113389828a0161102e565b9150509295509295509295565b61114981610f3c565b82525050565b60006020820190506111646000830184611140565b92915050565b61117381610c68565b82525050565b600060208201905061118e600083018461116a565b92915050565b600082825260208201905092915050565b7f4f6e6c792061646d696e2063616e20706572666f726d2074686973206163746960008201527f6f6e000000000000000000000000000000000000000000000000000000000000602082015250565b6000611201602283611194565b915061120c826111a5565b604082019050919050565b60006020820190508181036000830152611230816111f4565b9050919050565b7f546f7572697374206e6f7420666f756e64000000000000000000000000000000600082015250565b600061126d601183611194565b915061127882611237565b602082019050919050565b6000602082019050818103600083015261129c81611260565b9050919050565b7f4e487b7100000000000000000000000000000000000000000000000000000000600052602260045260246000fd5b600060028204905060018216806112ea57607f821691505b6020821081036112fd576112fc6112a3565b5b50919050565b60008190508160005260206000209050919050565b60006020601f8301049050919050565b600082821b905092915050565b6000600883026113657fffffffffffffffffffffffffffffffffffffffffffffffffffffffffffffffff82611328565b61136f8683611328565b95508019841693508086168417925050509392505050565b6000819050919050565b60006113ac6113a76113a284610f23565b611387565b610f23565b9050919050565b6000819050919050565b6113c683611391565b6113da6113d2826113b3565b848454611335565b825550505050565b600090565b6113ef6113e2565b6113fa8184846113bd565b505050565b5b8181101561141e576114136000826113e7565b600181019050611400565b5050565b601f8211156114635761143481611303565b61143d84611318565b8101602085101561144c578190505b61146061145885611318565b8301826113ff565b50505b505050565b600082821c905092915050565b600061148660001984600802611468565b1980831691505092915050565b600061149f8383611475565b9150826002028217905092915050565b6114b882610ea4565b67ffffffffffffffff8111156114d1576114d0610cc1565b5b6114db82546112d2565b6114e6828285611422565b600060209050601f8311600181146115195760008415611507578287015190505b6115118582611493565b865550611579565b601f19841661152786611303565b60005b8281101561154f5784890151825560018201915060208501945060208101905061152a565b8683101561156c5784890151611568601f891682611475565b8355505b6001600288020188555050505b505050505050565b600061158c82610ea4565b6115968185611194565b93506115a6818560208601610ec0565b6115af81610cb0565b840191505092915050565b600060408201905081810360008301526115d48185611581565b905081810360208301526115e88184611581565b90509392505050565b7f546f757269737420616c72656164792072656769737465726564000000000000600082015250565b6000611627601a83611194565b9150611632826115f1565b602082019050919050565b600060208201905081810360008301526116568161161a565b9050919050565b7f457870697279206d75737420626520696e207468652066757475726500000000600082015250565b6000611693601c83611194565b915061169e8261165d565b602082019050919050565b600060208201905081810360008301526116c281611686565b9050919050565b6116d281610f23565b82525050565b600060408201905081810360008301526116f28185611581565b905061170160208301846116c9565b939250505056fea26469706673582212208468abc9f8f567d4dbaee49135ebb335792beeee724dc6bfabeddf359598020964736f6c634300081e0033",
      "opcodes": "PUSH1 0x80 PUSH1 0x40 MSTORE CALLVALUE DUP1 ISZERO PUSH1 0xF JUMPI PUSH1 0x0 DUP1 REVERT JUMPDEST POP CALLER PUSH1 0x1 PUSH1 0x0 PUSH2 0x100 EXP DUP2 SLOAD DUP2 PUSH20 0xFFFFFFFFFFFFFFFFFFFFFFFFFFFFFFFFFFFFFFFF MUL NOT AND SWAP1 DUP4 PUSH20 0xFFFFFFFFFFFFFFFFFFFFFFFFFFFFFFFFFFFFFFFF AND MUL OR SWAP1 SSTORE POP PUSH2 0x173E DUP1 PUSH2 0x60 PUSH1 0x0 CODECOPY PUSH1 0x0 RETURN INVALID PUSH1 0x80 PUSH1 0x40 MSTORE CALLVALUE DUP1 ISZERO PUSH2 0x10 JUMPI PUSH1 0x0 DUP1 REVERT JUMPDEST POP PUSH1 0x4 CALLDATASIZE LT PUSH2 0x62 JUMPI PUSH1 0x0 CALLDATALOAD PUSH1 0xE0 SHR DUP1 PUSH4 0x1DB925B0 EQ PUSH2 0x67 JUMPI DUP1 PUSH4 0xBF33CD4A EQ PUSH2 0x83 JUMPI DUP1 PUSH4 0xC979715D EQ PUSH2 0xB3 JUMPI DUP1 PUSH4 0xD3C50C8C EQ PUSH2 0xCF JUMPI DUP1 PUSH4 0xDA836FA5 EQ PUSH2 0xEB JUMPI DUP1 PUSH4 0xF851A440 EQ PUSH2 0x11B JUMPI JUMPDEST PUSH1 0x0 DUP1 REVERT JUMPDEST PUSH2 0x81 PUSH1 0x4 DUP1 CALLDATASIZE SUB DUP2 ADD SWAP1 PUSH2 0x7C SWAP2 SWAP1 PUSH2 0xDEC JUMP JUMPDEST PUSH2 0x139 JUMP JUMPDEST STOP JUMPDEST PUSH2 0x9D PUSH1 0x4 DUP1 CALLDATASIZE SUB DUP2 ADD SWAP1 PUSH2 0x98 SWAP2 SWAP1 PUSH2 0xE77 JUMP JUMPDEST PUSH2 0x34C JUMP JUMPDEST PUSH1 0x40 MLOAD PUSH2 0xAA SWAP2 SWAP1 PUSH2 0xFF5 JUMP JUMPDEST PUSH1 0x40 MLOAD DUP1 SWAP2 SUB SWAP1 RETURN JUMPDEST PUSH2 0xCD PUSH1 0x4 DUP1 CALLDATASIZE SUB DUP2 ADD SWAP1 PUSH2 0xC8 SWAP2 SWAP1 PUSH2 0xE77 JUMP JUMPDEST PUSH2 0x6A1 JUMP JUMPDEST STOP JUMPDEST PUSH2 0xE9 PUSH1 0x4 DUP1 CALLDATASIZE SUB DUP2 ADD SWAP1 PUSH2 0xE4 SWAP2 SWAP1 PUSH2 0x1043 JUMP JUMPDEST PUSH2 0x84D JUMP JUMPDEST STOP JUMPDEST PUSH2 0x105 PUSH1 0x4 DUP1 CALLDATASIZE SUB DUP2 ADD SWAP1 PUSH2 0x100 SWAP2 SWAP1 PUSH2 0xE77 JUMP JUMPDEST PUSH2 0xAF9 JUMP JUMPDEST PUSH1 0x40 MLOAD PUSH2 0x112 SWAP2 SWAP1 PUSH2 0x114F JUMP JUMPDEST PUSH1 0x40 MLOAD DUP1 SWAP2 SUB SWAP1 RETURN JUMPDEST PUSH2 0x123 PUSH2 0xBD6 JUMP JUMPDEST PUSH1 0x40 MLOAD PUSH2 0x130 SWAP2 SWAP1 PUSH2 0x1179 JUMP JUMPDEST PUSH1 0x40 MLOAD DUP1 SWAP2 SUB SWAP1 RETURN JUMPDEST PUSH1 0x1 PUSH1 0x0 SWAP1 SLOAD SWAP1 PUSH2 0x100 EXP SWAP1 DIV PUSH20 0xFFFFFFFFFFFFFFFFFFFFFFFFFFFFFFFFFFFFFFFF AND PUSH20 0xFFFFFFFFFFFFFFFFFFFFFFFFFFFFFFFFFFFFFFFF AND CALLER PUSH20 0xFFFFFFFFFFFFFFFFFFFFFFFFFFFFFFFFFFFFFFFF AND EQ PUSH2 0x1C9 JUMPI PUSH1 0x40 MLOAD PUSH32 0x8C379A000000000000000000000000000000000000000000000000000000000 DUP2 MSTORE PUSH1 0x4 ADD PUSH2 0x1C0 SWAP1 PUSH2 0x1217 JUMP JUMPDEST PUSH1 0x40 MLOAD DUP1 SWAP2 SUB SWAP1 REVERT JUMPDEST DUP3 PUSH1 0x0 DUP1 DUP3 PUSH20 0xFFFFFFFFFFFFFFFFFFFFFFFFFFFFFFFFFFFFFFFF AND PUSH20 0xFFFFFFFFFFFFFFFFFFFFFFFFFFFFFFFFFFFFFFFF AND DUP2 MSTORE PUSH1 0x20 ADD SWAP1 DUP2 MSTORE PUSH1 0x20 ADD PUSH1 0x0 KECCAK256 PUSH1 0x5 ADD PUSH1 0x0 SWAP1 SLOAD SWAP1 PUSH2 0x100 EXP SWAP1 DIV PUSH1 0xFF AND PUSH2 0x258 JUMPI PUSH1 0x40 MLOAD PUSH32 0x8C379A000000000000000000000000000000000000000000000000000000000 DUP2 MSTORE PUSH1 0x4 ADD PUSH2 0x24F SWAP1 PUSH2 0x1283 JUMP JUMPDEST PUSH1 0x40 MLOAD DUP1 SWAP2 SUB SWAP1 REVERT JUMPDEST DUP3 PUSH1 0x0 DUP1 DUP7 PUSH20 0xFFFFFFFFFFFFFFFFFFFFFFFFFFFFFFFFFFFFFFFF AND PUSH20 0xFFFFFFFFFFFFFFFFFFFFFFFFFFFFFFFFFFFFFFFF AND DUP2 MSTORE PUSH1 0x20 ADD SWAP1 DUP2 MSTORE PUSH1 0x20 ADD PUSH1 0x0 KECCAK256 PUSH1 0x2 ADD SWAP1 DUP2 PUSH2 0x2A6 SWAP2 SWAP1 PUSH2 0x14AF JUMP JUMPDEST POP DUP2 PUSH1 0x0 DUP1 DUP7 PUSH20 0xFFFFFFFFFFFFFFFFFFFFFFFFFFFFFFFFFFFFFFFF AND PUSH20 0xFFFFFFFFFFFFFFFFFFFFFFFFFFFFFFFFFFFFFFFF AND DUP2 MSTORE PUSH1 0x20 ADD SWAP1 DUP2 MSTORE PUSH1 0x20 ADD PUSH1 0x0 KECCAK256 PUSH1 0x3 ADD SWAP1 DUP2 PUSH2 0x2F5 SWAP2 SWAP1 PUSH2 0x14AF JUMP JUMPDEST POP DUP4 PUSH20 0xFFFFFFFFFFFFFFFFFFFFFFFFFFFFFFFFFFFFFFFF AND PUSH32 0xCFD2515814A3CC641C87C8E40FF4681C4ADA74A7357A0CCDE5A45B1BDE0EC107 DUP5 DUP5 PUSH1 0x40 MLOAD PUSH2 0x33E SWAP3 SWAP2 SWAP1 PUSH2 0x15BA JUMP JUMPDEST PUSH1 0x40 MLOAD DUP1 SWAP2 SUB SWAP1 LOG2 POP POP POP POP JUMP JUMPDEST PUSH2 0x354 PUSH2 0xBFC JUMP JUMPDEST DUP2 PUSH1 0x0 DUP1 DUP3 PUSH20 0xFFFFFFFFFFFFFFFFFFFFFFFFFFFFFFFFFFFFFFFF AND PUSH20 0xFFFFFFFFFFFFFFFFFFFFFFFFFFFFFFFFFFFFFFFF AND DUP2 MSTORE PUSH1 0x20 ADD SWAP1 DUP2 MSTORE PUSH1 0x20 ADD PUSH1 0x0 KECCAK256 PUSH1 0x5 ADD PUSH1 0x0 SWAP1 SLOAD SWAP1 PUSH2 0x100 EXP SWAP1 DIV PUSH1 0xFF AND PUSH2 0x3E3 JUMPI PUSH1 0x40 MLOAD PUSH32 0x8C379A000000000000000000000000000000000000000000000000000000000 DUP2 MSTORE PUSH1 0x4 ADD PUSH2 0x3DA SWAP1 PUSH2 0x1283 JUMP JUMPDEST PUSH1 0x40 MLOAD DUP1 SWAP2 SUB SWAP1 REVERT JUMPDEST PUSH1 0x0 DUP1 DUP5 PUSH20 0xFFFFFFFFFFFFFFFFFFFFFFFFFFFFFFFFFFFFFFFF AND PUSH20 0xFFFFFFFFFFFFFFFFFFFFFFFFFFFFFFFFFFFFFFFF AND DUP2 MSTORE PUSH1 0x20 ADD SWAP1 DUP2 MSTORE PUSH1 0x20 ADD PUSH1 0x0 KECCAK256 PUSH1 0x40 MLOAD DUP1 PUSH1 0xC0 ADD PUSH1 0x40 MSTORE SWAP1 DUP2 PUSH1 0x0 DUP3 ADD DUP1 SLOAD PUSH2 0x43C SWAP1 PUSH2 0x12D2 JUMP JUMPDEST DUP1 PUSH1 0x1F ADD PUSH1 0x20 DUP1 SWAP2 DIV MUL PUSH1 0x20 ADD PUSH1 0x40 MLOAD SWAP1 DUP2 ADD PUSH1 0x40 MSTORE DUP1 SWAP3 SWAP2 SWAP1 DUP2 DUP2 MSTORE PUSH1 0x20 ADD DUP3 DUP1 SLOAD PUSH2 0x468 SWAP1 PUSH2 0x12D2 JUMP JUMPDEST DUP1 ISZERO PUSH2 0x4B5 JUMPI DUP1 PUSH1 0x1F LT PUSH2 0x48A JUMPI PUSH2 0x100 DUP1 DUP4 SLOAD DIV MUL DUP4 MSTORE SWAP2 PUSH1 0x20 ADD SWAP2 PUSH2 0x4B5 JUMP JUMPDEST DUP3 ADD SWAP2 SWAP1 PUSH1 0x0 MSTORE PUSH1 0x20 PUSH1 0x0 KECCAK256 SWAP1 JUMPDEST DUP2 SLOAD DUP2 MSTORE SWAP1 PUSH1 0x1 ADD SWAP1 PUSH1 0x20 ADD DUP1 DUP4 GT PUSH2 0x498 JUMPI DUP3 SWAP1 SUB PUSH1 0x1F AND DUP3 ADD SWAP2 JUMPDEST POP POP POP POP POP DUP2 MSTORE PUSH1 0x20 ADD PUSH1 0x1 DUP3 ADD DUP1 SLOAD PUSH2 0x4CE SWAP1 PUSH2 0x12D2 JUMP JUMPDEST DUP1 PUSH1 0x1F ADD PUSH1 0x20 DUP1 SWAP2 DIV MUL PUSH1 0x20 ADD PUSH1 0x40 MLOAD SWAP1 DUP2 ADD PUSH1 0x40 MSTORE DUP1 SWAP3 SWAP2 SWAP1 DUP2 DUP2 MSTORE PUSH1 0x20 ADD DUP3 DUP1 SLOAD PUSH2 0x4FA SWAP1 PUSH2 0x12D2 JUMP JUMPDEST DUP1 ISZERO PUSH2 0x547 JUMPI DUP1 PUSH1 0x1F LT PUSH2 0x51C JUMPI PUSH2 0x100 DUP1 DUP4 SLOAD DIV MUL DUP4 MSTORE SWAP2 PUSH1 0x20 ADD SWAP2 PUSH2 0x547 JUMP JUMPDEST DUP3 ADD SWAP2 SWAP1 PUSH1 0x0 MSTORE PUSH1 0x20 PUSH1 0x0 KECCAK256 SWAP1 JUMPDEST DUP2 SLOAD DUP2 MSTORE SWAP1 PUSH1 0x1 ADD SWAP1 PUSH1 0x20 ADD DUP1 DUP4 GT PUSH2 0x52A JUMPI DUP3 SWAP1 SUB PUSH1 0x1F AND DUP3 ADD SWAP2 JUMPDEST POP POP POP POP POP DUP2 MSTORE PUSH1 0x20 ADD PUSH1 0x2 DUP3 ADD DUP1 SLOAD PUSH2 0x560 SWAP1 PUSH2 0x12D2 JUMP JUMPDEST DUP1 PUSH1 0x1F ADD PUSH1 0x20 DUP1 SWAP2 DIV MUL PUSH1 0x20 ADD PUSH1 0x40 MLOAD SWAP1 DUP2 ADD PUSH1 0x40 MSTORE DUP1 SWAP3 SWAP2 SWAP1 DUP2 DUP2 MSTORE PUSH1 0x20 ADD DUP3 DUP1 SLOAD PUSH2 0x58C SWAP1 PUSH2 0x12D2 JUMP JUMPDEST DUP1 ISZERO PUSH2 0x5D9 JUMPI DUP1 PUSH1 0x1F LT PUSH2 0x5AE JUMPI PUSH2 0x100 DUP1 DUP4 SLOAD DIV MUL DUP4 MSTORE SWAP2 PUSH1 0x20 ADD SWAP2 PUSH2 0x5D9 JUMP JUMPDEST DUP3 ADD SWAP2 SWAP1 PUSH1 0x0 MSTORE PUSH1 0x20 PUSH1 0x0 KECCAK256 SWAP1 JUMPDEST DUP2 SLOAD DUP2 MSTORE SWAP1 PUSH1 0x1 ADD SWAP1 PUSH1 0x20 ADD DUP1 DUP4 GT PUSH2 0x5BC JUMPI DUP3 SWAP1 SUB PUSH1 0x1F AND DUP3 ADD SWAP2 JUMPDEST POP POP POP POP POP DUP2 MSTORE PUSH1 0x20 ADD PUSH1 0x3 DUP3 ADD DUP1 SLOAD PUSH2 0x5F2 SWAP1 PUSH2 0x12D2 JUMP JUMPDEST DUP1 PUSH1 0x1F ADD PUSH1 0x20 DUP1 SWAP2 DIV MUL PUSH1 0x20 ADD PUSH1 0x40 MLOAD SWAP1 DUP2 ADD PUSH1 0x40 MSTORE DUP1 SWAP3 SWAP2 SWAP1 DUP2 DUP2 MSTORE PUSH1 0x20 ADD DUP3 DUP1 SLOAD PUSH2 0x61E SWAP1 PUSH2 0x12D2 JUMP JUMPDEST DUP1 ISZERO PUSH2 0x66B JUMPI DUP1 PUSH1 0x1F LT PUSH2 0x640 JUMPI PUSH2 0x100 DUP1 DUP4 SLOAD DIV MUL DUP4 MSTORE SWAP2 PUSH1 0x20 ADD SWAP2 PUSH2 0x66B JUMP JUMPDEST DUP3 ADD SWAP2 SWAP1 PUSH1 0x0 MSTORE PUSH1 0x20 PUSH1 0x0 KECCAK256 SWAP1 JUMPDEST DUP2 SLOAD DUP2 MSTORE SWAP1 PUSH1 0x1 ADD SWAP1 PUSH1 0x20 ADD DUP1 DUP4 GT PUSH2 0x64E JUMPI DUP3 SWAP1 SUB PUSH1 0x1F AND DUP3 ADD SWAP2 JUMPDEST POP POP POP POP POP DUP2 MSTORE PUSH1 0x20 ADD PUSH1 0x4 DUP3 ADD SLOAD DUP2 MSTORE PUSH1 0x20 ADD PUSH1 0x5 DUP3 ADD PUSH1 0x0 SWAP1 SLOAD SWAP1 PUSH2 0x100 EXP SWAP1 DIV PUSH1 0xFF AND ISZERO ISZERO ISZERO ISZERO DUP2 MSTORE POP POP SWAP2 POP POP SWAP2 SWAP1 POP JUMP JUMPDEST PUSH1 0x1 PUSH1 0x0 SWAP1 SLOAD SWAP1 PUSH2 0x100 EXP SWAP1 DIV PUSH20 0xFFFFFFFFFFFFFFFFFFFFFFFFFFFFFFFFFFFFFFFF AND PUSH20 0xFFFFFFFFFFFFFFFFFFFFFFFFFFFFFFFFFFFFFFFF AND CALLER PUSH20 0xFFFFFFFFFFFFFFFFFFFFFFFFFFFFFFFFFFFFFFFF AND EQ PUSH2 0x731 JUMPI PUSH1 0x40 MLOAD PUSH32 0x8C379A000000000000000000000000000000000000000000000000000000000 DUP2 MSTORE PUSH1 0x4 ADD PUSH2 0x728 SWAP1 PUSH2 0x1217 JUMP JUMPDEST PUSH1 0x40 MLOAD DUP1 SWAP2 SUB SWAP1 REVERT JUMPDEST DUP1 PUSH1 0x0 DUP1 DUP3 PUSH20 0xFFFFFFFFFFFFFFFFFFFFFFFFFFFFFFFFFFFFFFFF AND PUSH20 0xFFFFFFFFFFFFFFFFFFFFFFFFFFFFFFFFFFFFFFFF AND DUP2 MSTORE PUSH1 0x20 ADD SWAP1 DUP2 MSTORE PUSH1 0x20 ADD PUSH1 0x0 KECCAK256 PUSH1 0x5 ADD PUSH1 0x0 SWAP1 SLOAD SWAP1 PUSH2 0x100 EXP SWAP1 DIV PUSH1 0xFF AND PUSH2 0x7C0 JUMPI PUSH1 0x40 MLOAD PUSH32 0x8C379A000000000000000000000000000000000000000000000000000000000 DUP2 MSTORE PUSH1 0x4 ADD PUSH2 0x7B7 SWAP1 PUSH2 0x1283 JUMP JUMPDEST PUSH1 0x40 MLOAD DUP1 SWAP2 SUB SWAP1 REVERT JUMPDEST TIMESTAMP PUSH1 0x0 DUP1 DUP5 PUSH20 0xFFFFFFFFFFFFFFFFFFFFFFFFFFFFFFFFFFFFFFFF AND PUSH20 0xFFFFFFFFFFFFFFFFFFFFFFFFFFFFFFFFFFFFFFFF AND DUP2 MSTORE PUSH1 0x20 ADD SWAP1 DUP2 MSTORE PUSH1 0x20 ADD PUSH1 0x0 KECCAK256 PUSH1 0x4 ADD DUP2 SWAP1 SSTORE POP DUP2 PUSH20 0xFFFFFFFFFFFFFFFFFFFFFFFFFFFFFFFFFFFFFFFF AND PUSH32 0x415E3AC1C97757466C8CBCFAE5BD2E6C72A48551AEC284290F32C6C33E6263FB PUSH1 0x40 MLOAD PUSH1 0x40 MLOAD DUP1 SWAP2 SUB SWAP1 LOG2 POP POP JUMP JUMPDEST PUSH1 0x1 PUSH1 0x0 SWAP1 SLOAD SWAP1 PUSH2 0x100 EXP SWAP1 DIV PUSH20 0xFFFFFFFFFFFFFFFFFFFFFFFFFFFFFFFFFFFFFFFF AND PUSH20 0xFFFFFFFFFFFFFFFFFFFFFFFFFFFFFFFFFFFFFFFF AND CALLER PUSH20 0xFFFFFFFFFFFFFFFFFFFFFFFFFFFFFFFFFFFFFFFF AND EQ PUSH2 0x8DD JUMPI PUSH1 0x40 MLOAD PUSH32 0x8C379A000000000000000000000000000000000000000000000000000000000 DUP2 MSTORE PUSH1 0x4 ADD PUSH2 0x8D4 SWAP1 PUSH2 0x1217 JUMP JUMPDEST PUSH1 0x40 MLOAD DUP1 SWAP2 SUB SWAP1 REVERT JUMPDEST PUSH1 0x0 DUP1 DUP8 PUSH20 0xFFFFFFFFFFFFFFFFFFFFFFFFFFFFFFFFFFFFFFFF AND PUSH20 0xFFFFFFFFFFFFFFFFFFFFFFFFFFFFFFFFFFFFFFFF AND DUP2 MSTORE PUSH1 0x20 ADD SWAP1 DUP2 MSTORE PUSH1 0x20 ADD PUSH1 0x0 KECCAK256 PUSH1 0x5 ADD PUSH1 0x0 SWAP1 SLOAD SWAP1 PUSH2 0x100 EXP SWAP1 DIV PUSH1 0xFF AND ISZERO PUSH2 0x96C JUMPI PUSH1 0x40 MLOAD PUSH32 0x8C379A000000000000000000000000000000000000000000000000000000000 DUP2 MSTORE PUSH1 0x4 ADD PUSH2 0x963 SWAP1 PUSH2 0x163D JUMP JUMPDEST PUSH1 0x40 MLOAD DUP1 SWAP2 SUB SWAP1 REVERT JUMPDEST TIMESTAMP DUP2 GT PUSH2 0x9AE JUMPI PUSH1 0x40 MLOAD PUSH32 0x8C379A000000000000000000000000000000000000000000000000000000000 DUP2 MSTORE PUSH1 0x4 ADD PUSH2 0x9A5 SWAP1 PUSH2 0x16A9 JUMP JUMPDEST PUSH1 0x40 MLOAD DUP1 SWAP2 SUB SWAP1 REVERT JUMPDEST PUSH1 0x40 MLOAD DUP1 PUSH1 0xC0 ADD PUSH1 0x40 MSTORE DUP1 DUP7 DUP2 MSTORE PUSH1 0x20 ADD DUP6 DUP2 MSTORE PUSH1 0x20 ADD DUP5 DUP2 MSTORE PUSH1 0x20 ADD DUP4 DUP2 MSTORE PUSH1 0x20 ADD DUP3 DUP2 MSTORE PUSH1 0x20 ADD PUSH1 0x1 ISZERO ISZERO DUP2 MSTORE POP PUSH1 0x0 DUP1 DUP9 PUSH20 0xFFFFFFFFFFFFFFFFFFFFFFFFFFFFFFFFFFFFFFFF AND PUSH20 0xFFFFFFFFFFFFFFFFFFFFFFFFFFFFFFFFFFFFFFFF AND DUP2 MSTORE PUSH1 0x20 ADD SWAP1 DUP2 MSTORE PUSH1 0x20 ADD PUSH1 0x0 KECCAK256 PUSH1 0x0 DUP3 ADD MLOAD DUP2 PUSH1 0x0 ADD SWAP1 DUP2 PUSH2 0xA31 SWAP2 SWAP1 PUSH2 0x14AF JUMP JUMPDEST POP PUSH1 0x20 DUP3 ADD MLOAD DUP2 PUSH1 0x1 ADD SWAP1 DUP2 PUSH2 0xA47 SWAP2 SWAP1 PUSH2 0x14AF JUMP JUMPDEST POP PUSH1 0x40 DUP3 ADD MLOAD DUP2 PUSH1 0x2 ADD SWAP1 DUP2 PUSH2 0xA5D SWAP2 SWAP1 PUSH2 0x14AF JUMP JUMPDEST POP PUSH1 0x60 DUP3 ADD MLOAD DUP2 PUSH1 0x3 ADD SWAP1 DUP2 PUSH2 0xA73 SWAP2 SWAP1 PUSH2 0x14AF JUMP JUMPDEST POP PUSH1 0x80 DUP3 ADD MLOAD DUP2 PUSH1 0x4 ADD SSTORE PUSH1 0xA0 DUP3 ADD MLOAD DUP2 PUSH1 0x5 ADD PUSH1 0x0 PUSH2 0x100 EXP DUP2 SLOAD DUP2 PUSH1 0xFF MUL NOT AND SWAP1 DUP4 ISZERO ISZERO MUL OR SWAP1 SSTORE POP SWAP1 POP POP DUP6 PUSH20 0xFFFFFFFFFFFFFFFFFFFFFFFFFFFFFFFFFFFFFFFF AND PUSH32 0x8E3413CE2E0CAF9329BCBEAAD68D2F5B50E098839B5EFD33372014C1BA0021E6 DUP7 DUP4 PUSH1 0x40 MLOAD PUSH2 0xAE9 SWAP3 SWAP2 SWAP1 PUSH2 0x16D8 JUMP JUMPDEST PUSH1 0x40 MLOAD DUP1 SWAP2 SUB SWAP1 LOG2 POP POP POP POP POP POP JUMP JUMPDEST PUSH1 0x0 DUP2 PUSH1 0x0 DUP1 DUP3 PUSH20 0xFFFFFFFFFFFFFFFFFFFFFFFFFFFFFFFFFFFFFFFF AND PUSH20 0xFFFFFFFFFFFFFFFFFFFFFFFFFFFFFFFFFFFFFFFF AND DUP2 MSTORE PUSH1 0x20 ADD SWAP1 DUP2 MSTORE PUSH1 0x20 ADD PUSH1 0x0 KECCAK256 PUSH1 0x5 ADD PUSH1 0x0 SWAP1 SLOAD SWAP1 PUSH2 0x100 EXP SWAP1 DIV PUSH1 0xFF AND PUSH2 0xB8A JUMPI PUSH1 0x40 MLOAD PUSH32 0x8C379A000000000000000000000000000000000000000000000000000000000 DUP2 MSTORE PUSH1 0x4 ADD PUSH2 0xB81 SWAP1 PUSH2 0x1283 JUMP JUMPDEST PUSH1 0x40 MLOAD DUP1 SWAP2 SUB SWAP1 REVERT JUMPDEST TIMESTAMP PUSH1 0x0 DUP1 DUP6 PUSH20 0xFFFFFFFFFFFFFFFFFFFFFFFFFFFFFFFFFFFFFFFF AND PUSH20 0xFFFFFFFFFFFFFFFFFFFFFFFFFFFFFFFFFFFFFFFF AND DUP2 MSTORE PUSH1 0x20 ADD SWAP1 DUP2 MSTORE PUSH1 0x20 ADD PUSH1 0x0 KECCAK256 PUSH1 0x4 ADD SLOAD GT SWAP2 POP POP SWAP2 SWAP1 POP JUMP JUMPDEST PUSH1 0x1 PUSH1 0x0 SWAP1 SLOAD SWAP1 PUSH2 0x100 EXP SWAP1 DIV PUSH20 0xFFFFFFFFFFFFFFFFFFFFFFFFFFFFFFFFFFFFFFFF AND DUP2 JUMP JUMPDEST PUSH1 0x40 MLOAD DUP1 PUSH1 0xC0 ADD PUSH1 0x40 MSTORE DUP1 PUSH1 0x60 DUP2 MSTORE PUSH1 0x20 ADD PUSH1 0x60 DUP2 MSTORE PUSH1 0x20 ADD PUSH1 0x60 DUP2 MSTORE PUSH1 0x20 ADD PUSH1 0x60 DUP2 MSTORE PUSH1 0x20 ADD PUSH1 0x0 DUP2 MSTORE PUSH1 0x20 ADD PUSH1 0x0 ISZERO ISZERO DUP2 MSTORE POP SWAP1 JUMP JUMPDEST PUSH1 0x0 PUSH1 0x40 MLOAD SWAP1 POP SWAP1 JUMP JUMPDEST PUSH1 0x0 DUP1 REVERT JUMPDEST PUSH1 0x0 DUP1 REVERT JUMPDEST PUSH1 0x0 PUSH20 0xFFFFFFFFFFFFFFFFFFFFFFFFFFFFFFFFFFFFFFFF DUP3 AND SWAP1 POP SWAP2 SWAP1 POP JUMP JUMPDEST PUSH1 0x0 PUSH2 0xC73 DUP3 PUSH2 0xC48 JUMP JUMPDEST SWAP1 POP SWAP2 SWAP1 POP JUMP JUMPDEST PUSH2 0xC83 DUP2 PUSH2 0xC68 JUMP JUMPDEST DUP2 EQ PUSH2 0xC8E JUMPI PUSH1 0x0 DUP1 REVERT JUMPDEST POP JUMP JUMPDEST PUSH1 0x0 DUP2 CALLDATALOAD SWAP1 POP PUSH2 0xCA0 DUP2 PUSH2 0xC7A JUMP JUMPDEST SWAP3 SWAP2 POP POP JUMP JUMPDEST PUSH1 0x0 DUP1 REVERT JUMPDEST PUSH1 0x0 DUP1 REVERT JUMPDEST PUSH1 0x0 PUSH1 0x1F NOT PUSH1 0x1F DUP4 ADD AND SWAP1 POP SWAP2 SWAP1 POP JUMP JUMPDEST PUSH32 0x4E487B7100000000000000000000000000000000000000000000000000000000 PUSH1 0x0 MSTORE PUSH1 0x41 PUSH1 0x4 MSTORE PUSH1 0x24 PUSH1 0x0 REVERT JUMPDEST PUSH2 0xCF9 DUP3 PUSH2 0xCB0 JUMP JUMPDEST DUP2 ADD DUP2 DUP2 LT PUSH8 0xFFFFFFFFFFFFFFFF DUP3 GT OR ISZERO PUSH2 0xD18 JUMPI PUSH2 0xD17 PUSH2 0xCC1 JUMP JUMPDEST JUMPDEST DUP1 PUSH1 0x40 MSTORE POP POP POP JUMP JUMPDEST PUSH1 0x0 PUSH2 0xD2B PUSH2 0xC34 JUMP JUMPDEST SWAP1 POP PUSH2 0xD37 DUP3 DUP3 PUSH2 0xCF0 JUMP JUMPDEST SWAP2 SWAP1 POP JUMP JUMPDEST PUSH1 0x0 PUSH8 0xFFFFFFFFFFFFFFFF DUP3 GT ISZERO PUSH2 0xD57 JUMPI PUSH2 0xD56 PUSH2 0xCC1 JUMP JUMPDEST JUMPDEST PUSH2 0xD60 DUP3 PUSH2 0xCB0 JUMP JUMPDEST SWAP1 POP PUSH1 0x20 DUP2 ADD SWAP1 POP SWAP2 SWAP1 POP JUMP JUMPDEST DUP3 DUP2 DUP4 CALLDATACOPY PUSH1 0x0 DUP4 DUP4 ADD MSTORE POP POP POP JUMP JUMPDEST PUSH1 0x0 PUSH2 0xD8F PUSH2 0xD8A DUP5 PUSH2 0xD3C JUMP JUMPDEST PUSH2 0xD21 JUMP JUMPDEST SWAP1 POP DUP3 DUP2 MSTORE PUSH1 0x20 DUP2 ADD DUP5 DUP5 DUP5 ADD GT ISZERO PUSH2 0xDAB JUMPI PUSH2 0xDAA PUSH2 0xCAB JUMP JUMPDEST JUMPDEST PUSH2 0xDB6 DUP5 DUP3 DUP6 PUSH2 0xD6D JUMP JUMPDEST POP SWAP4 SWAP3 POP POP POP JUMP JUMPDEST PUSH1 0x0 DUP3 PUSH1 0x1F DUP4 ADD SLT PUSH2 0xDD3 JUMPI PUSH2 0xDD2 PUSH2 0xCA6 JUMP JUMPDEST JUMPDEST DUP2 CALLDATALOAD PUSH2 0xDE3 DUP5 DUP3 PUSH1 0x20 DUP7 ADD PUSH2 0xD7C JUMP JUMPDEST SWAP2 POP POP SWAP3 SWAP2 POP POP JUMP JUMPDEST PUSH1 0x0 DUP1 PUSH1 0x0 PUSH1 0x60 DUP5 DUP7 SUB SLT ISZERO PUSH2 0xE05 JUMPI PUSH2 0xE04 PUSH2 0xC3E JUMP JUMPDEST JUMPDEST PUSH1 0x0 PUSH2 0xE13 DUP7 DUP3 DUP8 ADD PUSH2 0xC91 JUMP JUMPDEST SWAP4 POP POP PUSH1 0x20 DUP5 ADD CALLDATALOAD PUSH8 0xFFFFFFFFFFFFFFFF DUP2 GT ISZERO PUSH2 0xE34 JUMPI PUSH2 0xE33 PUSH2 0xC43 JUMP JUMPDEST JUMPDEST PUSH2 0xE40 DUP7 DUP3 DUP8 ADD PUSH2 0xDBE JUMP JUMPDEST SWAP3 POP POP PUSH1 0x40 DUP5 ADD CALLDATALOAD PUSH8 0xFFFFFFFFFFFFFFFF DUP2 GT ISZERO PUSH2 0xE61 JUMPI PUSH2 0xE60 PUSH2 0xC43 JUMP JUMPDEST JUMPDEST PUSH2 0xE6D DUP7 DUP3 DUP8 ADD PUSH2 0xDBE JUMP JUMPDEST SWAP2 POP POP SWAP3 POP SWAP3 POP SWAP3 JUMP JUMPDEST PUSH1 0x0 PUSH1 0x20 DUP3 DUP5 SUB SLT ISZERO PUSH2 0xE8D JUMPI PUSH2 0xE8C PUSH2 0xC3E JUMP JUMPDEST JUMPDEST PUSH1 0x0 PUSH2 0xE9B DUP5 DUP3 DUP6 ADD PUSH2 0xC91 JUMP JUMPDEST SWAP2 POP POP SWAP3 SWAP2 POP POP JUMP JUMPDEST PUSH1 0x0 DUP2 MLOAD SWAP1 POP SWAP2 SWAP1 POP JUMP JUMPDEST PUSH1 0x0 DUP3 DUP3 MSTORE PUSH1 0x20 DUP3 ADD SWAP1 POP SWAP3 SWAP2 POP POP JUMP JUMPDEST PUSH1 0x0 JUMPDEST DUP4 DUP2 LT ISZERO PUSH2 0xEDE JUMPI DUP1 DUP3 ADD MLOAD DUP2 DUP5 ADD MSTORE PUSH1 0x20 DUP2 ADD SWAP1 POP PUSH2 0xEC3 JUMP JUMPDEST PUSH1 0x0 DUP5 DUP5 ADD MSTORE POP POP POP POP JUMP JUMPDEST PUSH1 0x0 PUSH2 0xEF5 DUP3 PUSH2 0xEA4 JUMP JUMPDEST PUSH2 0xEFF DUP2 DUP6 PUSH2 0xEAF JUMP JUMPDEST SWAP4 POP PUSH2 0xF0F DUP2 DUP6 PUSH1 0x20 DUP7 ADD PUSH2 0xEC0 JUMP JUMPDEST PUSH2 0xF18 DUP2 PUSH2 0xCB0 JUMP JUMPDEST DUP5 ADD SWAP2 POP POP SWAP3 SWAP2 POP POP JUMP JUMPDEST PUSH1 0x0 DUP2 SWAP1 POP SWAP2 SWAP1 POP JUMP JUMPDEST PUSH2 0xF36 DUP2 PUSH2 0xF23 JUMP JUMPDEST DUP3 MSTORE POP POP JUMP JUMPDEST PUSH1 0x0 DUP2 ISZERO ISZERO SWAP1 POP SWAP2 SWAP1 POP JUMP JUMPDEST PUSH2 0xF51 DUP2 PUSH2 0xF3C JUMP JUMPDEST DUP3 MSTORE POP POP JUMP JUMPDEST PUSH1 0x0 PUSH1 0xC0 DUP4 ADD PUSH1 0x0 DUP4 ADD MLOAD DUP5 DUP3 SUB PUSH1 0x0 DUP7 ADD MSTORE PUSH2 0xF74 DUP3 DUP3 PUSH2 0xEEA JUMP JUMPDEST SWAP2 POP POP PUSH1 0x20 DUP4 ADD MLOAD DUP5 DUP3 SUB PUSH1 0x20 DUP7 ADD MSTORE PUSH2 0xF8E DUP3 DUP3 PUSH2 0xEEA JUMP JUMPDEST SWAP2 POP POP PUSH1 0x40 DUP4 ADD MLOAD DUP5 DUP3 SUB PUSH1 0x40 DUP7 ADD MSTORE PUSH2 0xFA8 DUP3 DUP3 PUSH2 0xEEA JUMP JUMPDEST SWAP2 POP POP PUSH1 0x60 DUP4 ADD MLOAD DUP5 DUP3 SUB PUSH1 0x60 DUP7 ADD MSTORE PUSH2 0xFC2 DUP3 DUP3 PUSH2 0xEEA JUMP JUMPDEST SWAP2 POP POP PUSH1 0x80 DUP4 ADD MLOAD PUSH2 0xFD7 PUSH1 0x80 DUP7 ADD DUP3 PUSH2 0xF2D JUMP JUMPDEST POP PUSH1 0xA0 DUP4 ADD MLOAD PUSH2 0xFEA PUSH1 0xA0 DUP7 ADD DUP3 PUSH2 0xF48 JUMP JUMPDEST POP DUP1 SWAP2 POP POP SWAP3 SWAP2 POP POP JUMP JUMPDEST PUSH1 0x0 PUSH1 0x20 DUP3 ADD SWAP1 POP DUP2 DUP2 SUB PUSH1 0x0 DUP4 ADD MSTORE PUSH2 0x100F DUP2 DUP5 PUSH2 0xF57 JUMP JUMPDEST SWAP1 POP SWAP3 SWAP2 POP POP JUMP JUMPDEST PUSH2 0x1020 DUP2 PUSH2 0xF23 JUMP JUMPDEST DUP2 EQ PUSH2 0x102B JUMPI PUSH1 0x0 DUP1 REVERT JUMPDEST POP JUMP JUMPDEST PUSH1 0x0 DUP2 CALLDATALOAD SWAP1 POP PUSH2 0x103D DUP2 PUSH2 0x1017 JUMP JUMPDEST SWAP3 SWAP2 POP POP JUMP JUMPDEST PUSH1 0x0 DUP1 PUSH1 0x0 DUP1 PUSH1 0x0 DUP1 PUSH1 0xC0 DUP8 DUP10 SUB SLT ISZERO PUSH2 0x1060 JUMPI PUSH2 0x105F PUSH2 0xC3E JUMP JUMPDEST JUMPDEST PUSH1 0x0 PUSH2 0x106E DUP10 DUP3 DUP11 ADD PUSH2 0xC91 JUMP JUMPDEST SWAP7 POP POP PUSH1 0x20 DUP8 ADD CALLDATALOAD PUSH8 0xFFFFFFFFFFFFFFFF DUP2 GT ISZERO PUSH2 0x108F JUMPI PUSH2 0x108E PUSH2 0xC43 JUMP JUMPDEST JUMPDEST PUSH2 0x109B DUP10 DUP3 DUP11 ADD PUSH2 0xDBE JUMP JUMPDEST SWAP6 POP POP PUSH1 0x40 DUP8 ADD CALLDATALOAD PUSH8 0xFFFFFFFFFFFFFFFF DUP2 GT ISZERO PUSH2 0x10BC JUMPI PUSH2 0x10BB PUSH2 0xC43 JUMP JUMPDEST JUMPDEST PUSH2 0x10C8 DUP10 DUP3 DUP11 ADD PUSH2 0xDBE JUMP JUMPDEST SWAP5 POP POP PUSH1 0x60 DUP8 ADD CALLDATALOAD PUSH8 0xFFFFFFFFFFFFFFFF DUP2 GT ISZERO PUSH2 0x10E9 JUMPI PUSH2 0x10E8 PUSH2 0xC43 JUMP JUMPDEST JUMPDEST PUSH2 0x10F5 DUP10 DUP3 DUP11 ADD PUSH2 0xDBE JUMP JUMPDEST SWAP4 POP POP PUSH1 0x80 DUP8 ADD CALLDATALOAD PUSH8 0xFFFFFFFFFFFFFFFF DUP2 GT ISZERO PUSH2 0x1116 JUMPI PUSH2 0x1115 PUSH2 0xC43 JUMP JUMPDEST JUMPDEST PUSH2 0x1122 DUP10 DUP3 DUP11 ADD PUSH2 0xDBE JUMP JUMPDEST SWAP3 POP POP PUSH1 0xA0 PUSH2 0x1133 DUP10 DUP3 DUP11 ADD PUSH2 0x102E JUMP JUMPDEST SWAP2 POP POP SWAP3 SWAP6 POP SWAP3 SWAP6 POP SWAP3 SWAP6 JUMP JUMPDEST PUSH2 0x1149 DUP2 PUSH2 0xF3C JUMP JUMPDEST DUP3 MSTORE POP POP JUMP JUMPDEST PUSH1 0x0 PUSH1 0x20 DUP3 ADD SWAP1 POP PUSH2 0x1164 PUSH1 0x0 DUP4 ADD DUP5 PUSH2 0x1140 JUMP JUMPDEST SWAP3 SWAP2 POP POP JUMP JUMPDEST PUSH2 0x1173 DUP2 PUSH2 0xC68 JUMP JUMPDEST DUP3 MSTORE POP POP JUMP JUMPDEST PUSH1 0x0 PUSH1 0x20 DUP3 ADD SWAP1 POP PUSH2 0x118E PUSH1 0x0 DUP4 ADD DUP5 PUSH2 0x116A JUMP JUMPDEST SWAP3 SWAP2 POP POP JUMP JUMPDEST PUSH1 0x0 DUP3 DUP3 MSTORE PUSH1 0x20 DUP3 ADD SWAP1 POP SWAP3 SWAP2 POP POP JUMP JUMPDEST PUSH32 0x4F6E6C792061646D696E2063616E20706572666F726D20746869732061637469 PUSH1 0x0 DUP3 ADD MSTORE PUSH32 0x6F6E000000000000000000000000000000000000000000000000000000000000 PUSH1 0x20 DUP3 ADD MSTORE POP JUMP JUMPDEST PUSH1 0x0 PUSH2 0x1201 PUSH1 0x22 DUP4 PUSH2 0x1194 JUMP JUMPDEST SWAP2 POP PUSH2 0x120C DUP3 PUSH2 0x11A5 JUMP JUMPDEST PUSH1 0x40 DUP3 ADD SWAP1 POP SWAP2 SWAP1 POP JUMP JUMPDEST PUSH1 0x0 PUSH1 0x20 DUP3 ADD SWAP1 POP DUP2 DUP2 SUB PUSH1 0x0 DUP4 ADD MSTORE PUSH2 0x1230 DUP2 PUSH2 0x11F4 JUMP JUMPDEST SWAP1 POP SWAP2 SWAP1 POP JUMP JUMPDEST PUSH32 0x546F7572697374206E6F7420666F756E64000000000000000000000000000000 PUSH1 0x0 DUP3 ADD MSTORE POP JUMP JUMPDEST PUSH1 0x0 PUSH2 0x126D PUSH1 0x11 DUP4 PUSH2 0x1194 JUMP JUMPDEST SWAP2 POP PUSH2 0x1278 DUP3 PUSH2 0x1237 JUMP JUMPDEST PUSH1 0x20 DUP3 ADD SWAP1 POP SWAP2 SWAP1 POP JUMP JUMPDEST PUSH1 0x0 PUSH1 0x20 DUP3 ADD SWAP1 POP DUP2 DUP2 SUB PUSH1 0x0 DUP4 ADD MSTORE PUSH2 0x129C DUP2 PUSH2 0x1260 JUMP JUMPDEST SWAP1 POP SWAP2 SWAP1 POP JUMP JUMPDEST PUSH32 0x4E487B7100000000000000000000000000000000000000000000000000000000 PUSH1 0x0 MSTORE PUSH1 0x22 PUSH1 0x4 MSTORE PUSH1 0x24 PUSH1 0x0 REVERT JUMPDEST PUSH1 0x0 PUSH1 0x2 DUP3 DIV SWAP1 POP PUSH1 0x1 DUP3 AND DUP1 PUSH2 0x12EA JUMPI PUSH1 0x7F DUP3 AND SWAP2 POP JUMPDEST PUSH1 0x20 DUP3 LT DUP2 SUB PUSH2 0x12FD JUMPI PUSH2 0x12FC PUSH2 0x12A3 JUMP JUMPDEST JUMPDEST POP SWAP2 SWAP1 POP JUMP JUMPDEST PUSH1 0x0 DUP2 SWAP1 POP DUP2 PUSH1 0x0 MSTORE PUSH1 0x20 PUSH1 0x0 KECCAK256 SWAP1 POP SWAP2 SWAP1 POP JUMP JUMPDEST PUSH1 0x0 PUSH1 0x20 PUSH1 0x1F DUP4 ADD DIV SWAP1 POP SWAP2 SWAP1 POP JUMP JUMPDEST PUSH1 0x0 DUP3 DUP3 SHL SWAP1 POP SWAP3 SWAP2 POP POP JUMP JUMPDEST PUSH1 0x0 PUSH1 0x8 DUP4 MUL PUSH2 0x1365 PUSH32 0xFFFFFFFFFFFFFFFFFFFFFFFFFFFFFFFFFFFFFFFFFFFFFFFFFFFFFFFFFFFFFFFF DUP3 PUSH2 0x1328 JUMP JUMPDEST PUSH2 0x136F DUP7 DUP4 PUSH2 0x1328 JUMP JUMPDEST SWAP6 POP DUP1 NOT DUP5 AND SWAP4 POP DUP1 DUP7 AND DUP5 OR SWAP3 POP POP POP SWAP4 SWAP3 POP POP POP JUMP JUMPDEST PUSH1 0x0 DUP2 SWAP1 POP SWAP2 SWAP1 POP JUMP JUMPDEST PUSH1 0x0 PUSH2 0x13AC PUSH2 0x13A7 PUSH2 0x13A2 DUP5 PUSH2 0xF23 JUMP JUMPDEST PUSH2 0x1387 JUMP JUMPDEST PUSH2 0xF23 JUMP JUMPDEST SWAP1 POP SWAP2 SWAP1 POP JUMP JUMPDEST PUSH1 0x0 DUP2 SWAP1 POP SWAP2 SWAP1 POP JUMP JUMPDEST PUSH2 0x13C6 DUP4 PUSH2 0x1391 JUMP JUMPDEST PUSH2 0x13DA PUSH2 0x13D2 DUP3 PUSH2 0x13B3 JUMP JUMPDEST DUP5 DUP5 SLOAD PUSH2 0x1335 JUMP JUMPDEST DUP3 SSTORE POP POP POP POP JUMP JUMPDEST PUSH1 0x0 SWAP1 JUMP JUMPDEST PUSH2 0x13EF PUSH2 0x13E2 JUMP JUMPDEST PUSH2 0x13FA DUP2 DUP5 DUP5 PUSH2 0x13BD JUMP JUMPDEST POP POP POP JUMP JUMPDEST JUMPDEST DUP2 DUP2 LT ISZERO PUSH2 0x141E JUMPI PUSH2 0x1413 PUSH1 0x0 DUP3 PUSH2 0x13E7 JUMP JUMPDEST PUSH1 0x1 DUP2 ADD SWAP1 POP PUSH2 0x1400 JUMP JUMPDEST POP POP JUMP JUMPDEST PUSH1 0x1F DUP3 GT ISZERO PUSH2 0x1463 JUMPI PUSH2 0x1434 DUP2 PUSH2 0x1303 JUMP JUMPDEST PUSH2 0x143D DUP5 PUSH2 0x1318 JUMP JUMPDEST DUP2 ADD PUSH1 0x20 DUP6 LT ISZERO PUSH2 0x144C JUMPI DUP2 SWAP1 POP JUMPDEST PUSH2 0x1460 PUSH2 0x1458 DUP6 PUSH2 0x1318 JUMP JUMPDEST DUP4 ADD DUP3 PUSH2 0x13FF JUMP JUMPDEST POP POP JUMPDEST POP POP POP JUMP JUMPDEST PUSH1 0x0 DUP3 DUP3 SHR SWAP1 POP SWAP3 SWAP2 POP POP JUMP JUMPDEST PUSH1 0x0 PUSH2 0x1486 PUSH1 0x0 NOT DUP5 PUSH1 0x8 MUL PUSH2 0x1468 JUMP JUMPDEST NOT DUP1 DUP4 AND SWAP2 POP POP SWAP3 SWAP2 POP POP JUMP JUMPDEST PUSH1 0x0 PUSH2 0x149F DUP4 DUP4 PUSH2 0x1475 JUMP JUMPDEST SWAP2 POP DUP3 PUSH1 0x2 MUL DUP3 OR SWAP1 POP SWAP3 SWAP2 POP POP JUMP JUMPDEST PUSH2 0x14B8 DUP3 PUSH2 0xEA4 JUMP JUMPDEST PUSH8 0xFFFFFFFFFFFFFFFF DUP2 GT ISZERO PUSH2 0x14D1 JUMPI PUSH2 0x14D0 PUSH2 0xCC1 JUMP JUMPDEST JUMPDEST PUSH2 0x14DB DUP3 SLOAD PUSH2 0x12D2 JUMP JUMPDEST PUSH2 0x14E6 DUP3 DUP3 DUP6 PUSH2 0x1422 JUMP JUMPDEST PUSH1 0x0 PUSH1 0x20 SWAP1 POP PUSH1 0x1F DUP4 GT PUSH1 0x1 DUP2 EQ PUSH2 0x1519 JUMPI PUSH1 0x0 DUP5 ISZERO PUSH2 0x1507 JUMPI DUP3 DUP8 ADD MLOAD SWAP1 POP JUMPDEST PUSH2 0x1511 DUP6 DUP3 PUSH2 0x1493 JUMP JUMPDEST DUP7 SSTORE POP PUSH2 0x1579 JUMP JUMPDEST PUSH1 0x1F NOT DUP5 AND PUSH2 0x1527 DUP7 PUSH2 0x1303 JUMP JUMPDEST PUSH1 0x0 JUMPDEST DUP3 DUP2 LT ISZERO PUSH2 0x154F JUMPI DUP5 DUP10 ADD MLOAD DUP3 SSTORE PUSH1 0x1 DUP3 ADD SWAP2 POP PUSH1 0x20 DUP6 ADD SWAP5 POP PUSH1 0x20 DUP2 ADD SWAP1 POP PUSH2 0x152A JUMP JUMPDEST DUP7 DUP4 LT ISZERO PUSH2 0x156C JUMPI DUP5 DUP10 ADD MLOAD PUSH2 0x1568 PUSH1 0x1F DUP10 AND DUP3 PUSH2 0x1475 JUMP JUMPDEST DUP4 SSTORE POP JUMPDEST PUSH1 0x1 PUSH1 0x2 DUP9 MUL ADD DUP9 SSTORE POP POP POP JUMPDEST POP POP POP POP POP POP JUMP JUMPDEST PUSH1 0x0 PUSH2 0x158C DUP3 PUSH2 0xEA4 JUMP JUMPDEST PUSH2 0x1596 DUP2 DUP6 PUSH2 0x1194 JUMP JUMPDEST SWAP4 POP PUSH2 0x15A6 DUP2 DUP6 PUSH1 0x20 DUP7 ADD PUSH2 0xEC0 JUMP JUMPDEST PUSH2 0x15AF DUP2 PUSH2 0xCB0 JUMP JUMPDEST DUP5 ADD SWAP2 POP POP SWAP3 SWAP2 POP POP JUMP JUMPDEST PUSH1 0x0 PUSH1 0x40 DUP3 ADD SWAP1 POP DUP2 DUP2 SUB PUSH1 0x0 DUP4 ADD MSTORE PUSH2 0x15D4 DUP2 DUP6 PUSH2 0x1581 JUMP JUMPDEST SWAP1 POP DUP2 DUP2 SUB PUSH1 0x20 DUP4 ADD MSTORE PUSH2 0x15E8 DUP2 DUP5 PUSH2 0x1581 JUMP JUMPDEST SWAP1 POP SWAP4 SWAP3 POP POP POP JUMP JUMPDEST PUSH32 0x546F757269737420616C72656164792072656769737465726564000000000000 PUSH1 0x0 DUP3 ADD MSTORE POP JUMP JUMPDEST PUSH1 0x0 PUSH2 0x1627 PUSH1 0x1A DUP4 PUSH2 0x1194 JUMP JUMPDEST SWAP2 POP PUSH2 0x1632 DUP3 PUSH2 0x15F1 JUMP JUMPDEST PUSH1 0x20 DUP3 ADD SWAP1 POP SWAP2 SWAP1 POP JUMP JUMPDEST PUSH1 0x0 PUSH1 0x20 DUP3 ADD SWAP1 POP DUP2 DUP2 SUB PUSH1 0x0 DUP4 ADD MSTORE PUSH2 0x1656 DUP2 PUSH2 0x161A JUMP JUMPDEST SWAP1 POP SWAP2 SWAP1 POP JUMP JUMPDEST PUSH32 0x457870697279206D75737420626520696E207468652066757475726500000000 PUSH1 0x0 DUP3 ADD MSTORE POP JUMP JUMPDEST PUSH1 0x0 PUSH2 0x1693 PUSH1 0x1C DUP4 PUSH2 0x1194 JUMP JUMPDEST SWAP2 POP PUSH2 0x169E DUP3 PUSH2 0x165D JUMP JUMPDEST PUSH1 0x20 DUP3 ADD SWAP1 POP SWAP2 SWAP1 POP JUMP JUMPDEST PUSH1 0x0 PUSH1 0x20 DUP3 ADD SWAP1 POP DUP2 DUP2 SUB PUSH1 0x0 DUP4 ADD MSTORE PUSH2 0x16C2 DUP2 PUSH2 0x1686 JUMP JUMPDEST SWAP1 POP SWAP2 SWAP1 POP JUMP JUMPDEST PUSH2 0x16D2 DUP2 PUSH2 0xF23 JUMP JUMPDEST DUP3 MSTORE POP POP JUMP JUMPDEST PUSH1 0x0 PUSH1 0x40 DUP3 ADD SWAP1 POP DUP2 DUP2 SUB PUSH1 0x0 DUP4 ADD MSTORE PUSH2 0x16F2 DUP2 DUP6 PUSH2 0x1581 JUMP JUMPDEST SWAP1 POP PUSH2 0x1701 PUSH1 0x20 DUP4 ADD DUP5 PUSH2 0x16C9 JUMP JUMPDEST SWAP4 SWAP3 POP POP POP JUMP INVALID LOG2 PUSH5 0x6970667358 0x22 SLT KECCAK256 DUP5 PUSH9 0xABC9F8F567D4DBAEE4 SWAP2 CALLDATALOAD 0xEB 0xB3 CALLDATALOAD PUSH26 0x2BEEEE724DC6BFABEDDF359598020964736F6C634300081E0033 "
    },
    "gasEstimates": {
      "creation": {
        "codeDepositCost": "1190000",
        "executionCost": "25500",
        "totalCost": "1215500"
      },
      "external": {
        "admin()": "2602",
        "expireTourist(address)": "28271",
        "getTourist(address)": "infinite",
        "isTouristValid(address)": "5178",
        "registerTourist(address,string,string,string,string,uint256)": "infinite",
        "updateTourist(address,string,string)": "infinite"
      }
    },
    "methodIdentifiers": {
      "admin()": "f851a440",
      "expireTourist(address)": "c979715d",
      "getTourist(address)": "bf33cd4a",
      "isTouristValid(address)": "da836fa5",
      "registerTourist(address,string,string,string,string,uint256)": "d3c50c8c",
      "updateTourist(address,string,string)": "1db925b0"
    }
  },
  "storageLayout": {
    "storage": [
      {
        "astId": 20,
        "contract": "TouristID.sol:TouristID",
        "label": "tourists",
        "offset": 0,
        "slot": "0",
        "type": "t_mapping(t_address,t_struct(Tourist)15_storage)"
      },
      {
        "astId": 22,
        "contract": "TouristID.sol:TouristID",
        "label": "admin",
        "offset": 0,
        "slot": "1",
        "type": "t_address"
      }
    ],
    "types": {
      "t_address": {
        "encoding": "inplace",
        "label": "address",
        "numberOfBytes": "20"
      },
      "t_bool": {
        "encoding": "inplace",
        "label": "bool",
        "numberOfBytes": "1"
      },
      "t_mapping(t_address,t_struct(Tourist)15_storage)": {
        "encoding": "mapping",
        "key": "t_address",
        "label": "mapping(address => struct TouristID.Tourist)",
        "numberOfBytes": "32",
        "value": "t_struct(Tourist)15_storage"
      },
      "t_string_storage": {
        "encoding": "bytes",
        "label": "string",
        "numberOfBytes": "32"
      },
      "t_struct(Tourist)15_storage": {
        "encoding": "inplace",
        "label": "struct TouristID.Tourist",
        "members": [
          {
            "astId": 4,
            "contract": "TouristID.sol:TouristID",
            "label": "name",
            "offset": 0,
            "slot": "0",
            "type": "t_string_storage"
          },
          {
            "astId": 6,
            "contract": "TouristID.sol:TouristID",
            "label": "passportOrAadhaar",
            "offset": 0,
            "slot": "1",
            "type": "t_string_storage"
          },
          {
            "astId": 8,
            "contract": "TouristID.sol:TouristID",
            "label": "itinerary",
            "offset": 0,
            "slot": "2",
            "type": "t_string_storage"
          },
          {
            "astId": 10,
            "contract": "TouristID.sol:TouristID",
            "label": "emergencyContact",
            "offset": 0,
            "slot": "3",
            "type": "t_string_storage"
          },
          {
            "astId": 12,
            "contract": "TouristID.sol:TouristID",
            "label": "validUntil",
            "offset": 0,
            "slot": "4",
            "type": "t_uint256"
          },
          {
            "astId": 14,
            "contract": "TouristID.sol:TouristID",
            "label": "exists",
            "offset": 0,
            "slot": "5",
            "type": "t_bool"
          }
        ],
        "numberOfBytes": "192"
      },
      "t_uint256": {
        "encoding": "inplace",
        "label": "uint256",
        "numberOfBytes": "32"
      }
    }
  },
  "transientStorageLayout": {
    "storage": [],
    "types": null
  },
  "userdoc": {
    "events": {
      "TouristExpired(address)": {
        "notice": "Emitted when a tourist ID expires"
      },
      "TouristRegistered(address,string,uint256)": {
        "notice": "Emitted when a new tourist ID is created"
      },
      "TouristUpdated(address,string,string)": {
        "notice": "Emitted when a tourist ID is updated"
      }
    },
    "kind": "user",
    "methods": {
      "expireTourist(address)": {
        "notice": "Expire a tourist ID manually"
      },
      "getTourist(address)": {
        "notice": "Get details of a tourist"
      },
      "isTouristValid(address)": {
        "notice": "Check if a tourist ID is valid"
      },
      "registerTourist(address,string,string,string,string,uint256)": {
        "notice": "Register a new tourist and issue a digital ID"
      },
      "updateTourist(address,string,string)": {
        "notice": "Update tourist itinerary or emergency contact"
      }
    },
    "notice": "Issues and manages temporary digital IDs for tourists",
    "version": 1
  }
}